{
  "contractName": "Incubator",
  "abi": [
    {
      "constant": true,
      "inputs": [
        {
          "name": "",
          "type": "uint256"
        }
      ],
      "name": "incubatorProjects",
      "outputs": [
        {
          "name": "projectName",
          "type": "string"
        },
        {
          "name": "projectContractAddress",
          "type": "address"
        },
        {
          "name": "decimals",
          "type": "uint8"
        },
        {
          "name": "projectOwner",
          "type": "address"
        },
        {
          "name": "projectIncubatorOwner",
          "type": "address"
        }
      ],
      "payable": false,
      "stateMutability": "view",
      "type": "function"
    },
    {
      "constant": false,
      "inputs": [],
      "name": "renounceOwnership",
      "outputs": [],
      "payable": false,
      "stateMutability": "nonpayable",
      "type": "function"
    },
    {
      "constant": true,
      "inputs": [],
      "name": "owner",
      "outputs": [
        {
          "name": "",
          "type": "address"
        }
      ],
      "payable": false,
      "stateMutability": "view",
      "type": "function"
    },
    {
      "constant": true,
      "inputs": [],
      "name": "numberOfProjectsInThisIncubator",
      "outputs": [
        {
          "name": "",
          "type": "uint256"
        }
      ],
      "payable": false,
      "stateMutability": "view",
      "type": "function"
    },
    {
      "constant": false,
      "inputs": [
        {
          "name": "_newOwner",
          "type": "address"
        }
      ],
      "name": "transferOwnership",
      "outputs": [],
      "payable": false,
      "stateMutability": "nonpayable",
      "type": "function"
    },
    {
      "inputs": [],
      "payable": false,
      "stateMutability": "nonpayable",
      "type": "constructor"
    },
    {
      "anonymous": false,
      "inputs": [
        {
          "indexed": false,
          "name": "ProjectID",
          "type": "uint256"
        },
        {
          "indexed": false,
          "name": "projectName",
          "type": "string"
        }
      ],
      "name": "ProjectCreatedEvent",
      "type": "event"
    },
    {
      "anonymous": false,
      "inputs": [
        {
          "indexed": true,
          "name": "previousOwner",
          "type": "address"
        }
      ],
      "name": "OwnershipRenounced",
      "type": "event"
    },
    {
      "anonymous": false,
      "inputs": [
        {
          "indexed": true,
          "name": "previousOwner",
          "type": "address"
        },
        {
          "indexed": true,
          "name": "newOwner",
          "type": "address"
        }
      ],
      "name": "OwnershipTransferred",
      "type": "event"
    },
    {
      "constant": false,
      "inputs": [
        {
          "name": "_projectName",
          "type": "string"
        },
        {
          "name": "_projectOwner",
          "type": "address"
        },
        {
          "name": "_incubatorOwnerAddress",
          "type": "address"
        },
        {
          "name": "incubatorOwnerPercentageInProject",
          "type": "uint256"
        },
        {
          "name": "ventureFusionOwnerAddress",
          "type": "address"
        },
        {
          "name": "ventureFusionPercentageInProject",
          "type": "uint256"
        },
        {
          "name": "decimals",
          "type": "uint8"
        }
      ],
      "name": "addNewProject",
      "outputs": [
        {
          "name": "newProjectID",
          "type": "uint256"
        },
        {
          "name": "projectAddress",
          "type": "address"
        },
        {
          "name": "projectName",
          "type": "string"
        }
      ],
      "payable": false,
      "stateMutability": "nonpayable",
      "type": "function"
    }
  ],
  "bytecode": "0x6080604052600060015534801561001557600080fd5b50336000806101000a81548173ffffffffffffffffffffffffffffffffffffffff021916908373ffffffffffffffffffffffffffffffffffffffff160217905550614ef2806100656000396000f3006080604052600436106200007f576000357c0100000000000000000000000000000000000000000000000000000000900463ffffffff1680630b6b11a61462000084578063715018a614620001d65780638da5cb5b14620001f0578063a85e6af7146200024a578063d1a3f42f14620003ed578063f2fde38b146200041b575b600080fd5b3480156200009157600080fd5b50620000b26004803603810190808035906020019092919050505062000461565b60405180806020018673ffffffffffffffffffffffffffffffffffffffff1673ffffffffffffffffffffffffffffffffffffffff1681526020018560ff1660ff1681526020018473ffffffffffffffffffffffffffffffffffffffff1673ffffffffffffffffffffffffffffffffffffffff1681526020018373ffffffffffffffffffffffffffffffffffffffff1673ffffffffffffffffffffffffffffffffffffffff168152602001828103825287818151815260200191508051906020019080838360005b838110156200019657808201518184015260208101905062000179565b50505050905090810190601f168015620001c45780820380516001836020036101000a031916815260200191505b50965050505050505060405180910390f35b348015620001e357600080fd5b50620001ee620005a0565b005b348015620001fd57600080fd5b5062000208620006a3565b604051808273ffffffffffffffffffffffffffffffffffffffff1673ffffffffffffffffffffffffffffffffffffffff16815260200191505060405180910390f35b3480156200025757600080fd5b5062000335600480360381019080803590602001908201803590602001908080601f0160208091040260200160405190810160405280939291908181526020018383808284378201915050505050509192919290803573ffffffffffffffffffffffffffffffffffffffff169060200190929190803573ffffffffffffffffffffffffffffffffffffffff16906020019092919080359060200190929190803573ffffffffffffffffffffffffffffffffffffffff16906020019092919080359060200190929190803560ff169060200190929190505050620006c8565b604051808481526020018373ffffffffffffffffffffffffffffffffffffffff1673ffffffffffffffffffffffffffffffffffffffff16815260200180602001828103825283818151815260200191508051906020019080838360005b83811015620003af57808201518184015260208101905062000392565b50505050905090810190601f168015620003dd5780820380516001836020036101000a031916815260200191505b5094505050505060405180910390f35b348015620003fa57600080fd5b506200040562000d22565b6040518082815260200191505060405180910390f35b3480156200042857600080fd5b506200045f600480360381019080803573ffffffffffffffffffffffffffffffffffffffff16906020019092919050505062000d28565b005b6002602052806000526040600020600091509050806000018054600181600116156101000203166002900480601f016020809104026020016040519081016040528092919081815260200182805460018160011615610100020316600290048015620005115780601f10620004e55761010080835404028352916020019162000511565b820191906000526020600020905b815481529060010190602001808311620004f357829003601f168201915b5050505050908060010160009054906101000a900473ffffffffffffffffffffffffffffffffffffffff16908060010160149054906101000a900460ff16908060020160009054906101000a900473ffffffffffffffffffffffffffffffffffffffff16908060030160009054906101000a900473ffffffffffffffffffffffffffffffffffffffff16905085565b6000809054906101000a900473ffffffffffffffffffffffffffffffffffffffff1673ffffffffffffffffffffffffffffffffffffffff163373ffffffffffffffffffffffffffffffffffffffff16141515620005fc57600080fd5b6000809054906101000a900473ffffffffffffffffffffffffffffffffffffffff1673ffffffffffffffffffffffffffffffffffffffff167ff8df31144d9c2f0f6b59d69b8b98abd5459d07f2742c4df920b25aae33c6482060405160405180910390a260008060006101000a81548173ffffffffffffffffffffffffffffffffffffffff021916908373ffffffffffffffffffffffffffffffffffffffff160217905550565b6000809054906101000a900473ffffffffffffffffffffffffffffffffffffffff1681565b600080606060008060009054906101000a900473ffffffffffffffffffffffffffffffffffffffff1673ffffffffffffffffffffffffffffffffffffffff163373ffffffffffffffffffffffffffffffffffffffff161415156200072b57600080fd5b8989898989896200073b62000e8d565b808773ffffffffffffffffffffffffffffffffffffffff1673ffffffffffffffffffffffffffffffffffffffff1681526020018673ffffffffffffffffffffffffffffffffffffffff1673ffffffffffffffffffffffffffffffffffffffff1681526020018581526020018473ffffffffffffffffffffffffffffffffffffffff1673ffffffffffffffffffffffffffffffffffffffff1681526020018381526020018260ff1660ff1681526020019650505050505050604051809103906000f0801580156200080f573d6000803e3d6000fd5b50905060a0604051908101604052808c81526020018273ffffffffffffffffffffffffffffffffffffffff1681526020018660ff1681526020018b73ffffffffffffffffffffffffffffffffffffffff1681526020018a73ffffffffffffffffffffffffffffffffffffffff16815250600360008201518160000190805190602001906200089f92919062000e9e565b5060208201518160010160006101000a81548173ffffffffffffffffffffffffffffffffffffffff021916908373ffffffffffffffffffffffffffffffffffffffff16021790555060408201518160010160146101000a81548160ff021916908360ff16021790555060608201518160020160006101000a81548173ffffffffffffffffffffffffffffffffffffffff021916908373ffffffffffffffffffffffffffffffffffffffff16021790555060808201518160030160006101000a81548173ffffffffffffffffffffffffffffffffffffffff021916908373ffffffffffffffffffffffffffffffffffffffff160217905550905050600360026000600154815260200190815260200160002060008201816000019080546001816001161561010002031660029004620009d992919062000f25565b506001820160009054906101000a900473ffffffffffffffffffffffffffffffffffffffff168160010160006101000a81548173ffffffffffffffffffffffffffffffffffffffff021916908373ffffffffffffffffffffffffffffffffffffffff1602179055506001820160149054906101000a900460ff168160010160146101000a81548160ff021916908360ff1602179055506002820160009054906101000a900473ffffffffffffffffffffffffffffffffffffffff168160020160006101000a81548173ffffffffffffffffffffffffffffffffffffffff021916908373ffffffffffffffffffffffffffffffffffffffff1602179055506003820160009054906101000a900473ffffffffffffffffffffffffffffffffffffffff168160030160006101000a81548173ffffffffffffffffffffffffffffffffffffffff021916908373ffffffffffffffffffffffffffffffffffffffff1602179055509050508073ffffffffffffffffffffffffffffffffffffffff1660405180807f7472616e736665724f776e657273686970286164647265737329000000000000815250601a01905060405180910390207c010000000000000000000000000000000000000000000000000000000090048b6040518263ffffffff167c0100000000000000000000000000000000000000000000000000000000028152600401808273ffffffffffffffffffffffffffffffffffffffff1673ffffffffffffffffffffffffffffffffffffffff1681526020019150506000604051808303816000875af192505050151562000c3057600080fd5b7f32c32e7b567b27004c3ae86a451f7e31beb26fe5818700e163277ec03d3180696001548c6040518083815260200180602001828103825283818151815260200191508051906020019080838360005b8381101562000c9d57808201518184015260208101905062000c80565b50505050905090810190601f16801562000ccb5780820380516001836020036101000a031916815260200191505b50935050505060405180910390a160018054016001819055506001549350600360010160009054906101000a900473ffffffffffffffffffffffffffffffffffffffff1692508a9150509750975097945050505050565b60015481565b6000809054906101000a900473ffffffffffffffffffffffffffffffffffffffff1673ffffffffffffffffffffffffffffffffffffffff163373ffffffffffffffffffffffffffffffffffffffff1614151562000d8457600080fd5b62000d8f8162000d92565b50565b600073ffffffffffffffffffffffffffffffffffffffff168173ffffffffffffffffffffffffffffffffffffffff161415151562000dcf57600080fd5b8073ffffffffffffffffffffffffffffffffffffffff166000809054906101000a900473ffffffffffffffffffffffffffffffffffffffff1673ffffffffffffffffffffffffffffffffffffffff167f8be0079c531659141344cd1fd0a4f28419497f9722a3daafe3b4186f6b6457e060405160405180910390a3806000806101000a81548173ffffffffffffffffffffffffffffffffffffffff021916908373ffffffffffffffffffffffffffffffffffffffff16021790555050565b604051613eeb8062000fdc83390190565b828054600181600116156101000203166002900490600052602060002090601f016020900481019282601f1062000ee157805160ff191683800117855562000f12565b8280016001018555821562000f12579182015b8281111562000f1157825182559160200191906001019062000ef4565b5b50905062000f21919062000fb3565b5090565b828054600181600116156101000203166002900490600052602060002090601f016020900481019282601f1062000f60578054855562000fa0565b8280016001018555821562000fa057600052602060002091601f016020900482015b8281111562000f9f57825482559160010191906001019062000f82565b5b50905062000faf919062000fb3565b5090565b62000fd891905b8082111562000fd457600081600090555060010162000fba565b5090565b905600608060405260006007553480156200001657600080fd5b5060405160c08062003eeb83398101806040528101908080519060200190929190805190602001909291908051906020019092919080519060200190929190805190602001909291908051906020019092919050505033600360006101000a81548173ffffffffffffffffffffffffffffffffffffffff021916908373ffffffffffffffffffffffffffffffffffffffff160217905550600073ffffffffffffffffffffffffffffffffffffffff168673ffffffffffffffffffffffffffffffffffffffff1614151515620000ea57600080fd5b600073ffffffffffffffffffffffffffffffffffffffff168573ffffffffffffffffffffffffffffffffffffffff16141515156200012757600080fd5b600073ffffffffffffffffffffffffffffffffffffffff168373ffffffffffffffffffffffffffffffffffffffff16141515156200016457600080fd5b600084101515156200017557600080fd5b600082101515156200018657600080fd5b60008160ff16101580156200019f575060068160ff1611155b1515620001ab57600080fd5b60008160ff161415620001c657606460018190555062000274565b60018160ff161415620001e2576103e860018190555062000273565b60028160ff161415620001fe5761271060018190555062000272565b60038160ff1614156200021b57620186a060018190555062000271565b60048160ff1614156200023857620f424060018190555062000270565b60058160ff1614156200025557629896806001819055506200026f565b60068160ff1614156200026e576305f5e1006001819055505b5b5b5b5b5b5b836000808773ffffffffffffffffffffffffffffffffffffffff1673ffffffffffffffffffffffffffffffffffffffff16815260200190815260200160002081905550816000808573ffffffffffffffffffffffffffffffffffffffff1673ffffffffffffffffffffffffffffffffffffffff16815260200190815260200160002081905550620003218285016001546200038a6401000000000262001a92179091906401000000009004565b6000808873ffffffffffffffffffffffffffffffffffffffff1673ffffffffffffffffffffffffffffffffffffffff1681526020019081526020016000208190555080600660006101000a81548160ff021916908360ff160217905550505050505050620003a4565b60008282111515156200039957fe5b818303905092915050565b613b3780620003b46000396000f30060806040526004361062000103576000357c0100000000000000000000000000000000000000000000000000000000900463ffffffff16806306fdde031462000108578063095ea7b3146200019e5780631740ea5c146200020657806318160ddd146200029e57806323b872dd14620002cc578063313ce5671462000354578063425e7b8c1462000388578063523cf23714620003b657806366188463146200042657806370a08231146200048e578063715018a614620004e85780638da5cb5b146200050257806395d89b41146200055c578063a9059cbb14620005f2578063d73dd623146200065a578063dd62ed3e14620006c2578063f2fde38b146200073c575b600080fd5b3480156200011557600080fd5b506200012062000782565b6040518080602001828103825283818151815260200191508051906020019080838360005b838110156200016257808201518184015260208101905062000145565b50505050905090810190601f168015620001905780820380516001836020036101000a031916815260200191505b509250505060405180910390f35b348015620001ab57600080fd5b50620001ec600480360381019080803573ffffffffffffffffffffffffffffffffffffffff1690602001909291908035906020019092919050505062000824565b604051808215151515815260200191505060405180910390f35b3480156200021357600080fd5b5062000284600480360381019080803590602001908201803590602001908080601f0160208091040260200160405190810160405280939291908181526020018383808284378201915050505050509192919290803590602001909291908035906020019092919050505062000916565b604051808215151515815260200191505060405180910390f35b348015620002ab57600080fd5b50620002b662000caa565b6040518082815260200191505060405180910390f35b348015620002d957600080fd5b506200033a600480360381019080803573ffffffffffffffffffffffffffffffffffffffff169060200190929190803573ffffffffffffffffffffffffffffffffffffffff1690602001909291908035906020019092919050505062000cb4565b604051808215151515815260200191505060405180910390f35b3480156200036157600080fd5b506200036c62001078565b604051808260ff1660ff16815260200191505060405180910390f35b3480156200039557600080fd5b50620003a06200108b565b6040518082815260200191505060405180910390f35b348015620003c357600080fd5b50620003e46004803603810190808035906020019092919050505062001091565b604051808273ffffffffffffffffffffffffffffffffffffffff1673ffffffffffffffffffffffffffffffffffffffff16815260200191505060405180910390f35b3480156200043357600080fd5b5062000474600480360381019080803573ffffffffffffffffffffffffffffffffffffffff16906020019092919080359060200190929190505050620010d0565b604051808215151515815260200191505060405180910390f35b3480156200049b57600080fd5b50620004d2600480360381019080803573ffffffffffffffffffffffffffffffffffffffff16906020019092919050505062001366565b6040518082815260200191505060405180910390f35b348015620004f557600080fd5b5062000500620013ae565b005b3480156200050f57600080fd5b506200051a620014b4565b604051808273ffffffffffffffffffffffffffffffffffffffff1673ffffffffffffffffffffffffffffffffffffffff16815260200191505060405180910390f35b3480156200056957600080fd5b5062000574620014da565b6040518080602001828103825283818151815260200191508051906020019080838360005b83811015620005b657808201518184015260208101905062000599565b50505050905090810190601f168015620005e45780820380516001836020036101000a031916815260200191505b509250505060405180910390f35b348015620005ff57600080fd5b5062000640600480360381019080803573ffffffffffffffffffffffffffffffffffffffff169060200190929190803590602001909291905050506200157c565b604051808215151515815260200191505060405180910390f35b3480156200066757600080fd5b50620006a8600480360381019080803573ffffffffffffffffffffffffffffffffffffffff16906020019092919080359060200190929190505050620017a2565b604051808215151515815260200191505060405180910390f35b348015620006cf57600080fd5b5062000726600480360381019080803573ffffffffffffffffffffffffffffffffffffffff169060200190929190803573ffffffffffffffffffffffffffffffffffffffff169060200190929190505050620019a0565b6040518082815260200191505060405180910390f35b3480156200074957600080fd5b5062000780600480360381019080803573ffffffffffffffffffffffffffffffffffffffff16906020019092919050505062001a27565b005b60048054600181600116156101000203166002900480601f0160208091040260200160405190810160405280929190818152602001828054600181600116156101000203166002900480156200081c5780601f10620007f0576101008083540402835291602001916200081c565b820191906000526020600020905b815481529060010190602001808311620007fe57829003601f168201915b505050505081565b600081600260003373ffffffffffffffffffffffffffffffffffffffff1673ffffffffffffffffffffffffffffffffffffffff16815260200190815260200160002060008573ffffffffffffffffffffffffffffffffffffffff1673ffffffffffffffffffffffffffffffffffffffff168152602001908152602001600020819055508273ffffffffffffffffffffffffffffffffffffffff163373ffffffffffffffffffffffffffffffffffffffff167f8c5be1e5ebec7d5bd14f71427d1e84f3dd0314c0f7b2291e5b200ac8c7c3b925846040518082815260200191505060405180910390a36001905092915050565b600080600360009054906101000a900473ffffffffffffffffffffffffffffffffffffffff1673ffffffffffffffffffffffffffffffffffffffff163373ffffffffffffffffffffffffffffffffffffffff161415156200097657600080fd5b600084101515156200098757600080fd5b600083101515156200099857600080fd5b84848430620009a662001bc6565b80806020018581526020018481526020018373ffffffffffffffffffffffffffffffffffffffff1673ffffffffffffffffffffffffffffffffffffffff168152602001828103825286818151815260200191508051906020019080838360005b8381101562000a2357808201518184015260208101905062000a06565b50505050905090810190601f16801562000a515780820380516001836020036101000a031916815260200191505b5095505050505050604051809103906000f08015801562000a76573d6000803e3d6000fd5b50905060088190806001815401808255809150509060018203906000526020600020016000909192909190916101000a81548173ffffffffffffffffffffffffffffffffffffffff021916908373ffffffffffffffffffffffffffffffffffffffff160217905550506001600754016007819055508073ffffffffffffffffffffffffffffffffffffffff1660405180807f7472616e736665724f776e657273686970286164647265737329000000000000815250601a01905060405180910390207c01000000000000000000000000000000000000000000000000000000009004600360009054906101000a900473ffffffffffffffffffffffffffffffffffffffff166040518263ffffffff167c0100000000000000000000000000000000000000000000000000000000028152600401808273ffffffffffffffffffffffffffffffffffffffff1673ffffffffffffffffffffffffffffffffffffffff1681526020019150506000604051808303816000875af192505050151562000bfd57600080fd5b82840160026000600360009054906101000a900473ffffffffffffffffffffffffffffffffffffffff1673ffffffffffffffffffffffffffffffffffffffff1673ffffffffffffffffffffffffffffffffffffffff16815260200190815260200160002060008373ffffffffffffffffffffffffffffffffffffffff1673ffffffffffffffffffffffffffffffffffffffff16815260200190815260200160002081905550509392505050565b6000600154905090565b60008060008573ffffffffffffffffffffffffffffffffffffffff1673ffffffffffffffffffffffffffffffffffffffff16815260200190815260200160002054821115151562000d0457600080fd5b600260008573ffffffffffffffffffffffffffffffffffffffff1673ffffffffffffffffffffffffffffffffffffffff16815260200190815260200160002060003373ffffffffffffffffffffffffffffffffffffffff1673ffffffffffffffffffffffffffffffffffffffff16815260200190815260200160002054821115151562000d9057600080fd5b600073ffffffffffffffffffffffffffffffffffffffff168373ffffffffffffffffffffffffffffffffffffffff161415151562000dcd57600080fd5b62000e20826000808773ffffffffffffffffffffffffffffffffffffffff1673ffffffffffffffffffffffffffffffffffffffff1681526020019081526020016000205462001a9290919063ffffffff16565b6000808673ffffffffffffffffffffffffffffffffffffffff1673ffffffffffffffffffffffffffffffffffffffff1681526020019081526020016000208190555062000eb5826000808673ffffffffffffffffffffffffffffffffffffffff1673ffffffffffffffffffffffffffffffffffffffff1681526020019081526020016000205462001aac90919063ffffffff16565b6000808573ffffffffffffffffffffffffffffffffffffffff1673ffffffffffffffffffffffffffffffffffffffff1681526020019081526020016000208190555062000f8882600260008773ffffffffffffffffffffffffffffffffffffffff1673ffffffffffffffffffffffffffffffffffffffff16815260200190815260200160002060003373ffffffffffffffffffffffffffffffffffffffff1673ffffffffffffffffffffffffffffffffffffffff1681526020019081526020016000205462001a9290919063ffffffff16565b600260008673ffffffffffffffffffffffffffffffffffffffff1673ffffffffffffffffffffffffffffffffffffffff16815260200190815260200160002060003373ffffffffffffffffffffffffffffffffffffffff1673ffffffffffffffffffffffffffffffffffffffff168152602001908152602001600020819055508273ffffffffffffffffffffffffffffffffffffffff168473ffffffffffffffffffffffffffffffffffffffff167fddf252ad1be2c89b69c2b068fc378daa952ba7f163c4a11628f55a4df523b3ef846040518082815260200191505060405180910390a3600190509392505050565b600660009054906101000a900460ff1681565b60075481565b600881815481101515620010a157fe5b906000526020600020016000915054906101000a900473ffffffffffffffffffffffffffffffffffffffff1681565b600080600260003373ffffffffffffffffffffffffffffffffffffffff1673ffffffffffffffffffffffffffffffffffffffff16815260200190815260200160002060008573ffffffffffffffffffffffffffffffffffffffff1673ffffffffffffffffffffffffffffffffffffffff1681526020019081526020016000205490508083101515620011e4576000600260003373ffffffffffffffffffffffffffffffffffffffff1673ffffffffffffffffffffffffffffffffffffffff16815260200190815260200160002060008673ffffffffffffffffffffffffffffffffffffffff1673ffffffffffffffffffffffffffffffffffffffff168152602001908152602001600020819055506200127a565b620011f9838262001a9290919063ffffffff16565b600260003373ffffffffffffffffffffffffffffffffffffffff1673ffffffffffffffffffffffffffffffffffffffff16815260200190815260200160002060008673ffffffffffffffffffffffffffffffffffffffff1673ffffffffffffffffffffffffffffffffffffffff168152602001908152602001600020819055505b8373ffffffffffffffffffffffffffffffffffffffff163373ffffffffffffffffffffffffffffffffffffffff167f8c5be1e5ebec7d5bd14f71427d1e84f3dd0314c0f7b2291e5b200ac8c7c3b925600260003373ffffffffffffffffffffffffffffffffffffffff1673ffffffffffffffffffffffffffffffffffffffff16815260200190815260200160002060008873ffffffffffffffffffffffffffffffffffffffff1673ffffffffffffffffffffffffffffffffffffffff168152602001908152602001600020546040518082815260200191505060405180910390a3600191505092915050565b60008060008373ffffffffffffffffffffffffffffffffffffffff1673ffffffffffffffffffffffffffffffffffffffff168152602001908152602001600020549050919050565b600360009054906101000a900473ffffffffffffffffffffffffffffffffffffffff1673ffffffffffffffffffffffffffffffffffffffff163373ffffffffffffffffffffffffffffffffffffffff161415156200140b57600080fd5b600360009054906101000a900473ffffffffffffffffffffffffffffffffffffffff1673ffffffffffffffffffffffffffffffffffffffff167ff8df31144d9c2f0f6b59d69b8b98abd5459d07f2742c4df920b25aae33c6482060405160405180910390a26000600360006101000a81548173ffffffffffffffffffffffffffffffffffffffff021916908373ffffffffffffffffffffffffffffffffffffffff160217905550565b600360009054906101000a900473ffffffffffffffffffffffffffffffffffffffff1681565b60058054600181600116156101000203166002900480601f016020809104026020016040519081016040528092919081815260200182805460018160011615610100020316600290048015620015745780601f10620015485761010080835404028352916020019162001574565b820191906000526020600020905b8154815290600101906020018083116200155657829003601f168201915b505050505081565b60008060003373ffffffffffffffffffffffffffffffffffffffff1673ffffffffffffffffffffffffffffffffffffffff168152602001908152602001600020548211151515620015cc57600080fd5b600073ffffffffffffffffffffffffffffffffffffffff168373ffffffffffffffffffffffffffffffffffffffff16141515156200160957600080fd5b6200165c826000803373ffffffffffffffffffffffffffffffffffffffff1673ffffffffffffffffffffffffffffffffffffffff1681526020019081526020016000205462001a9290919063ffffffff16565b6000803373ffffffffffffffffffffffffffffffffffffffff1673ffffffffffffffffffffffffffffffffffffffff16815260200190815260200160002081905550620016f1826000808673ffffffffffffffffffffffffffffffffffffffff1673ffffffffffffffffffffffffffffffffffffffff1681526020019081526020016000205462001aac90919063ffffffff16565b6000808573ffffffffffffffffffffffffffffffffffffffff1673ffffffffffffffffffffffffffffffffffffffff168152602001908152602001600020819055508273ffffffffffffffffffffffffffffffffffffffff163373ffffffffffffffffffffffffffffffffffffffff167fddf252ad1be2c89b69c2b068fc378daa952ba7f163c4a11628f55a4df523b3ef846040518082815260200191505060405180910390a36001905092915050565b60006200183582600260003373ffffffffffffffffffffffffffffffffffffffff1673ffffffffffffffffffffffffffffffffffffffff16815260200190815260200160002060008673ffffffffffffffffffffffffffffffffffffffff1673ffffffffffffffffffffffffffffffffffffffff1681526020019081526020016000205462001aac90919063ffffffff16565b600260003373ffffffffffffffffffffffffffffffffffffffff1673ffffffffffffffffffffffffffffffffffffffff16815260200190815260200160002060008573ffffffffffffffffffffffffffffffffffffffff1673ffffffffffffffffffffffffffffffffffffffff168152602001908152602001600020819055508273ffffffffffffffffffffffffffffffffffffffff163373ffffffffffffffffffffffffffffffffffffffff167f8c5be1e5ebec7d5bd14f71427d1e84f3dd0314c0f7b2291e5b200ac8c7c3b925600260003373ffffffffffffffffffffffffffffffffffffffff1673ffffffffffffffffffffffffffffffffffffffff16815260200190815260200160002060008773ffffffffffffffffffffffffffffffffffffffff1673ffffffffffffffffffffffffffffffffffffffff168152602001908152602001600020546040518082815260200191505060405180910390a36001905092915050565b6000600260008473ffffffffffffffffffffffffffffffffffffffff1673ffffffffffffffffffffffffffffffffffffffff16815260200190815260200160002060008373ffffffffffffffffffffffffffffffffffffffff1673ffffffffffffffffffffffffffffffffffffffff16815260200190815260200160002054905092915050565b600360009054906101000a900473ffffffffffffffffffffffffffffffffffffffff1673ffffffffffffffffffffffffffffffffffffffff163373ffffffffffffffffffffffffffffffffffffffff1614151562001a8457600080fd5b62001a8f8162001ac9565b50565b600082821115151562001aa157fe5b818303905092915050565b6000818301905082811015151562001ac057fe5b80905092915050565b600073ffffffffffffffffffffffffffffffffffffffff168173ffffffffffffffffffffffffffffffffffffffff161415151562001b0657600080fd5b8073ffffffffffffffffffffffffffffffffffffffff16600360009054906101000a900473ffffffffffffffffffffffffffffffffffffffff1673ffffffffffffffffffffffffffffffffffffffff167f8be0079c531659141344cd1fd0a4f28419497f9722a3daafe3b4186f6b6457e060405160405180910390a380600360006101000a81548173ffffffffffffffffffffffffffffffffffffffff021916908373ffffffffffffffffffffffffffffffffffffffff16021790555050565b604051611f348062001bd883390190560060806040526000600560006101000a81548160ff0219169083151502179055506000600560016101000a81548160ff0219169083151502179055506000600760006101000a81548160ff0219169083151502179055506000600760016101000a81548160ff021916908315150217905550600060085560006009553480156200008757600080fd5b5060405162001f3438038062001f3483398101806040528101908080518201929190602001805190602001909291908051906020019092919080519060200190929190505050336000806101000a81548173ffffffffffffffffffffffffffffffffffffffff021916908373ffffffffffffffffffffffffffffffffffffffff160217905550600073ffffffffffffffffffffffffffffffffffffffff168173ffffffffffffffffffffffffffffffffffffffff16141515156200014a57600080fd5b600083101515156200015b57600080fd5b600082101515156200016c57600080fd5b600084511115156200017d57600080fd5b836001908051906020019062000195929190620001ef565b50826004819055508160068190555080600260006101000a81548173ffffffffffffffffffffffffffffffffffffffff021916908373ffffffffffffffffffffffffffffffffffffffff160217905550505050506200029e565b828054600181600116156101000203166002900490600052602060002090601f016020900481019282601f106200023257805160ff191683800117855562000263565b8280016001018555821562000263579182015b828111156200026257825182559160200191906001019062000245565b5b50905062000272919062000276565b5090565b6200029b91905b80821115620002975760008160009055506001016200027d565b5090565b90565b611c8680620002ae6000396000f300608060405260043610610149576000357c0100000000000000000000000000000000000000000000000000000000900463ffffffff1680632124e4cc1461014e5780633804f0c0146101fb5780633a77c91a146102265780633a8bae841461028f5780633cf96af1146102a65780634a990c8b146102fd578063537dbb451461032c5780635a319a3a1461039557806361513264146103fe578063688e043314610471578063715018a6146104a057806372e0576a146104b757806379bd45111461050e578063856ff264146105775780638b65e252146105a65780638da5cb5b146105bd5780638fc3ceb414610614578063a66ba55114610643578063b74c379b14610686578063c0bcec46146106c9578063cde5b4e1146106f4578063d1a1542c1461074b578063d546c33d14610776578063f2fde38b146107df578063f7222aad14610822575b600080fd5b34801561015a57600080fd5b50610179600480360381019080803590602001909291905050506108b2565b6040518080602001838152602001828103825284818151815260200191508051906020019080838360005b838110156101bf5780820151818401526020810190506101a4565b50505050905090810190601f1680156101ec5780820380516001836020036101000a031916815260200191505b50935050505060405180910390f35b34801561020757600080fd5b5061021061096e565b6040518082815260200191505060405180910390f35b34801561023257600080fd5b5061028d600480360381019080803590602001908201803590602001908080601f0160208091040260200160405190810160405280939291908181526020018383808284378201915050505050509192919290505050610974565b005b34801561029b57600080fd5b506102a4610bba565b005b3480156102b257600080fd5b506102bb610ee7565b604051808273ffffffffffffffffffffffffffffffffffffffff1673ffffffffffffffffffffffffffffffffffffffff16815260200191505060405180910390f35b34801561030957600080fd5b50610312610f0d565b604051808215151515815260200191505060405180910390f35b34801561033857600080fd5b50610393600480360381019080803590602001908201803590602001908080601f0160208091040260200160405190810160405280939291908181526020018383808284378201915050505050509192919290505050610f20565b005b3480156103a157600080fd5b506103fc600480360381019080803590602001908201803590602001908080601f0160208091040260200160405190810160405280939291908181526020018383808284378201915050505050509192919290505050610fb5565b005b34801561040a57600080fd5b5061046f600480360381019080803590602001908201803590602001908080601f01602080910402602001604051908101604052809392919081815260200183838082843782019150505050505091929192908035906020019092919050505061106b565b005b34801561047d57600080fd5b50610486611108565b604051808215151515815260200191505060405180910390f35b3480156104ac57600080fd5b506104b561111b565b005b3480156104c357600080fd5b506104cc61121d565b604051808273ffffffffffffffffffffffffffffffffffffffff1673ffffffffffffffffffffffffffffffffffffffff16815260200191505060405180910390f35b34801561051a57600080fd5b50610575600480360381019080803590602001908201803590602001908080601f0160208091040260200160405190810160405280939291908181526020018383808284378201915050505050509192919290505050611243565b005b34801561058357600080fd5b5061058c6112f9565b604051808215151515815260200191505060405180910390f35b3480156105b257600080fd5b506105bb61130c565b005b3480156105c957600080fd5b506105d2611636565b604051808273ffffffffffffffffffffffffffffffffffffffff1673ffffffffffffffffffffffffffffffffffffffff16815260200191505060405180910390f35b34801561062057600080fd5b5061062961165b565b604051808215151515815260200191505060405180910390f35b34801561064f57600080fd5b50610684600480360381019080803573ffffffffffffffffffffffffffffffffffffffff16906020019092919050505061166e565b005b34801561069257600080fd5b506106c7600480360381019080803573ffffffffffffffffffffffffffffffffffffffff16906020019092919050505061176b565b005b3480156106d557600080fd5b506106de611868565b6040518082815260200191505060405180910390f35b34801561070057600080fd5b5061070961186e565b604051808273ffffffffffffffffffffffffffffffffffffffff1673ffffffffffffffffffffffffffffffffffffffff16815260200191505060405180910390f35b34801561075757600080fd5b50610760611894565b6040518082815260200191505060405180910390f35b34801561078257600080fd5b506107dd600480360381019080803590602001908201803590602001908080601f016020809104026020016040519081016040528093929190818152602001838380828437820191505050505050919291929050505061189a565b005b3480156107eb57600080fd5b50610820600480360381019080803573ffffffffffffffffffffffffffffffffffffffff16906020019092919050505061192f565b005b34801561082e57600080fd5b50610837611996565b6040518080602001828103825283818151815260200191508051906020019080838360005b8381101561087757808201518184015260208101905061085c565b50505050905090810190601f1680156108a45780820380516001836020036101000a031916815260200191505b509250505060405180910390f35b600a602052806000526040600020600091509050806000018054600181600116156101000203166002900480601f01602080910402602001604051908101604052809291908181526020018280546001816001161561010002031660029004801561095e5780601f106109335761010080835404028352916020019161095e565b820191906000526020600020905b81548152906001019060200180831161094157829003601f168201915b5050505050908060010154905082565b60045481565b600360009054906101000a900473ffffffffffffffffffffffffffffffffffffffff1673ffffffffffffffffffffffffffffffffffffffff163373ffffffffffffffffffffffffffffffffffffffff161480610a1d5750600560029054906101000a900473ffffffffffffffffffffffffffffffffffffffff1673ffffffffffffffffffffffffffffffffffffffff163373ffffffffffffffffffffffffffffffffffffffff16145b80610a7457506000809054906101000a900473ffffffffffffffffffffffffffffffffffffffff1673ffffffffffffffffffffffffffffffffffffffff163373ffffffffffffffffffffffffffffffffffffffff16145b1515610a7f57600080fd5b6000809054906101000a900473ffffffffffffffffffffffffffffffffffffffff1673ffffffffffffffffffffffffffffffffffffffff163373ffffffffffffffffffffffffffffffffffffffff161415610add5760016008819055505b600360009054906101000a900473ffffffffffffffffffffffffffffffffffffffff1673ffffffffffffffffffffffffffffffffffffffff163373ffffffffffffffffffffffffffffffffffffffff161415610b3c5760026008819055505b600560029054906101000a900473ffffffffffffffffffffffffffffffffffffffff1673ffffffffffffffffffffffffffffffffffffffff163373ffffffffffffffffffffffffffffffffffffffff161415610b9b5760036008819055505b60008151111515610bab57600080fd5b610bb78160085461106b565b50565b60008060009054906101000a900473ffffffffffffffffffffffffffffffffffffffff1673ffffffffffffffffffffffffffffffffffffffff163373ffffffffffffffffffffffffffffffffffffffff16141515610c1757600080fd5b6001600760006101000a81548160ff02191690831515021790551515610c3c57600080fd5b60001515600760019054906101000a900460ff161515141515610c5e57600080fd5b600260009054906101000a900473ffffffffffffffffffffffffffffffffffffffff1690508073ffffffffffffffffffffffffffffffffffffffff166323b872dd6000809054906101000a900473ffffffffffffffffffffffffffffffffffffffff16600560029054906101000a900473ffffffffffffffffffffffffffffffffffffffff166006546040518463ffffffff167c0100000000000000000000000000000000000000000000000000000000028152600401808473ffffffffffffffffffffffffffffffffffffffff1673ffffffffffffffffffffffffffffffffffffffff1681526020018373ffffffffffffffffffffffffffffffffffffffff1673ffffffffffffffffffffffffffffffffffffffff1681526020018281526020019350505050602060405180830381600087803b158015610d9f57600080fd5b505af1158015610db3573d6000803e3d6000fd5b505050506040513d6020811015610dc957600080fd5b81019080805190602001909291905050501515610de557600080fd5b6001600760016101000a81548160ff0219169083151502179055507f2e8f320f26e1408a887da348ca3e09c9a8b4ac4fdf759aaa8fc94bef12bb59296000809054906101000a900473ffffffffffffffffffffffffffffffffffffffff16600560029054906101000a900473ffffffffffffffffffffffffffffffffffffffff16600654604051808473ffffffffffffffffffffffffffffffffffffffff1673ffffffffffffffffffffffffffffffffffffffff1681526020018373ffffffffffffffffffffffffffffffffffffffff1673ffffffffffffffffffffffffffffffffffffffff168152602001828152602001935050505060405180910390a150565b600260009054906101000a900473ffffffffffffffffffffffffffffffffffffffff1681565b600560009054906101000a900460ff1681565b600560029054906101000a900473ffffffffffffffffffffffffffffffffffffffff1673ffffffffffffffffffffffffffffffffffffffff163373ffffffffffffffffffffffffffffffffffffffff16141515610f7c57600080fd5b60008151111515610f8c57600080fd5b6001600760006101000a81548160ff021916908315150217905550610fb281600361106b565b50565b6000809054906101000a900473ffffffffffffffffffffffffffffffffffffffff1673ffffffffffffffffffffffffffffffffffffffff163373ffffffffffffffffffffffffffffffffffffffff1614151561101057600080fd5b60011515600760009054906101000a900460ff16151514151561103257600080fd5b6000815111151561104257600080fd5b6000600760006101000a81548160ff02191690831515021790555061106881600161106b565b50565b604080519081016040528083815260200182815250600b600082015181600001908051906020019061109e929190611b2e565b5060208201518160010155905050600b600a60006009548152602001908152602001600020600082018160000190805460018160011615610100020316600290046110ea929190611bae565b50600182015481600101559050506001600954016009819055505050565b600560019054906101000a900460ff1681565b6000809054906101000a900473ffffffffffffffffffffffffffffffffffffffff1673ffffffffffffffffffffffffffffffffffffffff163373ffffffffffffffffffffffffffffffffffffffff1614151561117657600080fd5b6000809054906101000a900473ffffffffffffffffffffffffffffffffffffffff1673ffffffffffffffffffffffffffffffffffffffff167ff8df31144d9c2f0f6b59d69b8b98abd5459d07f2742c4df920b25aae33c6482060405160405180910390a260008060006101000a81548173ffffffffffffffffffffffffffffffffffffffff021916908373ffffffffffffffffffffffffffffffffffffffff160217905550565b600560029054906101000a900473ffffffffffffffffffffffffffffffffffffffff1681565b6000809054906101000a900473ffffffffffffffffffffffffffffffffffffffff1673ffffffffffffffffffffffffffffffffffffffff163373ffffffffffffffffffffffffffffffffffffffff1614151561129e57600080fd5b60011515600560009054906101000a900460ff1615151415156112c057600080fd5b600081511115156112d057600080fd5b6000600560006101000a81548160ff0219169083151502179055506112f681600161106b565b50565b600760019054906101000a900460ff1681565b60008060009054906101000a900473ffffffffffffffffffffffffffffffffffffffff1673ffffffffffffffffffffffffffffffffffffffff163373ffffffffffffffffffffffffffffffffffffffff1614151561136957600080fd5b60011515600560009054906101000a900460ff16151514151561138b57600080fd5b60001515600560019054906101000a900460ff1615151415156113ad57600080fd5b600260009054906101000a900473ffffffffffffffffffffffffffffffffffffffff1690508073ffffffffffffffffffffffffffffffffffffffff166323b872dd6000809054906101000a900473ffffffffffffffffffffffffffffffffffffffff16600360009054906101000a900473ffffffffffffffffffffffffffffffffffffffff166004546040518463ffffffff167c0100000000000000000000000000000000000000000000000000000000028152600401808473ffffffffffffffffffffffffffffffffffffffff1673ffffffffffffffffffffffffffffffffffffffff1681526020018373ffffffffffffffffffffffffffffffffffffffff1673ffffffffffffffffffffffffffffffffffffffff1681526020018281526020019350505050602060405180830381600087803b1580156114ee57600080fd5b505af1158015611502573d6000803e3d6000fd5b505050506040513d602081101561151857600080fd5b8101908080519060200190929190505050151561153457600080fd5b6001600560016101000a81548160ff0219169083151502179055507f2e705641ef3838701162829c9931a82fbb60ea6b84992d297d1654cc31ce0d8b6000809054906101000a900473ffffffffffffffffffffffffffffffffffffffff16600360009054906101000a900473ffffffffffffffffffffffffffffffffffffffff16600454604051808473ffffffffffffffffffffffffffffffffffffffff1673ffffffffffffffffffffffffffffffffffffffff1681526020018373ffffffffffffffffffffffffffffffffffffffff1673ffffffffffffffffffffffffffffffffffffffff168152602001828152602001935050505060405180910390a150565b6000809054906101000a900473ffffffffffffffffffffffffffffffffffffffff1681565b600760009054906101000a900460ff1681565b6000809054906101000a900473ffffffffffffffffffffffffffffffffffffffff1673ffffffffffffffffffffffffffffffffffffffff163373ffffffffffffffffffffffffffffffffffffffff161415156116c957600080fd5b600073ffffffffffffffffffffffffffffffffffffffff168173ffffffffffffffffffffffffffffffffffffffff161415151561170557600080fd5b60001515600760019054906101000a900460ff16151514151561172757600080fd5b80600560026101000a81548173ffffffffffffffffffffffffffffffffffffffff021916908373ffffffffffffffffffffffffffffffffffffffff16021790555050565b6000809054906101000a900473ffffffffffffffffffffffffffffffffffffffff1673ffffffffffffffffffffffffffffffffffffffff163373ffffffffffffffffffffffffffffffffffffffff161415156117c657600080fd5b600073ffffffffffffffffffffffffffffffffffffffff168173ffffffffffffffffffffffffffffffffffffffff161415151561180257600080fd5b60001515600560019054906101000a900460ff16151514151561182457600080fd5b80600360006101000a81548173ffffffffffffffffffffffffffffffffffffffff021916908373ffffffffffffffffffffffffffffffffffffffff16021790555050565b60065481565b600360009054906101000a900473ffffffffffffffffffffffffffffffffffffffff1681565b60095481565b600360009054906101000a900473ffffffffffffffffffffffffffffffffffffffff1673ffffffffffffffffffffffffffffffffffffffff163373ffffffffffffffffffffffffffffffffffffffff161415156118f657600080fd5b6000815111151561190657600080fd5b6001600560006101000a81548160ff02191690831515021790555061192c81600261106b565b50565b6000809054906101000a900473ffffffffffffffffffffffffffffffffffffffff1673ffffffffffffffffffffffffffffffffffffffff163373ffffffffffffffffffffffffffffffffffffffff1614151561198a57600080fd5b61199381611a34565b50565b60018054600181600116156101000203166002900480601f016020809104026020016040519081016040528092919081815260200182805460018160011615610100020316600290048015611a2c5780601f10611a0157610100808354040283529160200191611a2c565b820191906000526020600020905b815481529060010190602001808311611a0f57829003601f168201915b505050505081565b600073ffffffffffffffffffffffffffffffffffffffff168173ffffffffffffffffffffffffffffffffffffffff1614151515611a7057600080fd5b8073ffffffffffffffffffffffffffffffffffffffff166000809054906101000a900473ffffffffffffffffffffffffffffffffffffffff1673ffffffffffffffffffffffffffffffffffffffff167f8be0079c531659141344cd1fd0a4f28419497f9722a3daafe3b4186f6b6457e060405160405180910390a3806000806101000a81548173ffffffffffffffffffffffffffffffffffffffff021916908373ffffffffffffffffffffffffffffffffffffffff16021790555050565b828054600181600116156101000203166002900490600052602060002090601f016020900481019282601f10611b6f57805160ff1916838001178555611b9d565b82800160010185558215611b9d579182015b82811115611b9c578251825591602001919060010190611b81565b5b509050611baa9190611c35565b5090565b828054600181600116156101000203166002900490600052602060002090601f016020900481019282601f10611be75780548555611c24565b82800160010185558215611c2457600052602060002091601f016020900482015b82811115611c23578254825591600101919060010190611c08565b5b509050611c319190611c35565b5090565b611c5791905b80821115611c53576000816000905550600101611c3b565b5090565b905600a165627a7a72305820528327baa0a416d9989bf9dba874b10dd755e7515fc4c91607d4d03ceb7abdf20029a165627a7a72305820421086941715a211a4f3f40b4f9c334a9ad6a366a20b295363f91daed4f78e800029a165627a7a7230582085260657d22f97e53a7647d14143ac66dc4610b72ea3f11fb0c4ffa4f8fc91b00029",
  "source": "pragma solidity ^0.4.24;\r\n\r\nimport './contracts/ownership/Ownable.sol';\r\nimport './ProjectEquity.sol';\r\n\r\ncontract Incubator is Ownable {\r\n\t\r\n\t//-----------------------------------------------------------------------------------------------------\r\n\t// Incubator projects collection, Project structure and number of projects in this incubator. \r\n\t// numberOfProjectsInThisIncubator contains number of projects in this incubator and this is 0 based\r\n\t// which means if value is 1 then first project contract is at 0 index in the mapping \r\n\t//-----------------------------------------------------------------------------------------------------\r\n\tuint public numberOfProjectsInThisIncubator = 0;   \r\n\tstruct projectsStruct {             \t\t\t\t\r\n\t\tstring projectName;\r\n\t\taddress projectContractAddress;\r\n\t\tuint8 decimals;\r\n\t\taddress projectOwner;\r\n\t\taddress projectIncubatorOwner;\r\n\t}\r\n\tmapping (uint => projectsStruct) public incubatorProjects; \r\n\r\n\t\r\n\t\r\n\t//-----------------------------------------------------------------------------------------------------\r\n\t// Events in this contract \r\n\t//-----------------------------------------------------------------------------------------------------\r\n\tevent ProjectCreatedEvent(uint ProjectID, string projectName );\r\n\t\r\n\t\r\n\t\r\n\t\r\n\t//-------------------------------------------------\r\n\t// Contract Constructor       \r\n\t//-------------------------------------------------\r\n\tconstructor() public \r\n    {\r\n\t\t\r\n\t}\r\n\t\r\n\t\r\n\r\n\r\n\t//-----------------------------------------------------------------------------------------\r\n\t// Add new project.   This interface will create a new project within this incubator\r\n\t//-----------------------------------------------------------------------------------------\r\n\tprojectsStruct newProject;\r\n\tfunction addNewProject(\r\n\t\t\t\t\tstring _projectName, \r\n\t\t\t\t\taddress _projectOwner,\r\n\t\t\t\t\taddress _incubatorOwnerAddress,\r\n\t\t\t\t\tuint incubatorOwnerPercentageInProject, \r\n\t\t\t\t\taddress ventureFusionOwnerAddress, \r\n\t\t\t\t\tuint ventureFusionPercentageInProject, \r\n\t\t\t\t\tuint8 decimals\r\n\t\t\t\t) public onlyOwner \t\t\r\n\t\treturns ( uint newProjectID, \r\n\t\t\t\t  address projectAddress, \r\n\t\t\t\t  string projectName\r\n\t\t\t\t)\r\n\t{\r\n\t\t//Create new project contract\r\n\t\taddress newProjectContract = new ProjectEquity(_projectOwner, _incubatorOwnerAddress, incubatorOwnerPercentageInProject, ventureFusionOwnerAddress, ventureFusionPercentageInProject, decimals);\r\n\t\t\r\n\t\t//Create project structure object and add it to projects collection\r\n\t\tnewProject = projectsStruct(_projectName, newProjectContract, decimals, _projectOwner, _incubatorOwnerAddress);\r\n\t\tincubatorProjects[numberOfProjectsInThisIncubator] = newProject;\r\n\t\t\r\n\t\t//Transfer ownership to project owner\r\n\t\trequire(newProjectContract.call(bytes4(keccak256(\"transferOwnership(address)\")),_projectOwner));\r\n\t\t\r\n\t\t//Emit event that project has been created \r\n\t\temit ProjectCreatedEvent(numberOfProjectsInThisIncubator, _projectName);\r\n\t\t\r\n\t\t//Increment counter for next new project\r\n\t\tnumberOfProjectsInThisIncubator = numberOfProjectsInThisIncubator + 1;\r\n\t\t\r\n\t\t//Set return values of this function \r\n\t\tnewProjectID = numberOfProjectsInThisIncubator;\r\n\t\tprojectAddress = newProject.projectContractAddress;\r\n\t\tprojectName = _projectName;\r\n\t}\r\n\r\n\r\n\r\n}\r\n\r\n",
  "sourcePath": "F:\\Projects\\work\\VF\\blockchain\\contracts\\Incubator.sol",
  "compiler": {
    "name": "solc",
    "version": "0.4.24+commit.e67f0147.Emscripten.clang"
  },
  "schemaVersion": "2.0.1",
  "updatedAt": "2018-10-19T08:11:33.667Z"
}