{
  "contractName": "Incubator",
  "abi": [
    {
      "constant": true,
      "inputs": [
        {
          "name": "",
          "type": "uint256"
        }
      ],
      "name": "incubatorProjects",
      "outputs": [
        {
          "name": "projectName",
          "type": "string"
        },
        {
          "name": "projectContractAddress",
          "type": "address"
        }
      ],
      "payable": false,
      "stateMutability": "view",
      "type": "function"
    },
    {
      "constant": true,
      "inputs": [],
      "name": "transactionPriceInTokens",
      "outputs": [
        {
          "name": "",
          "type": "uint256"
        }
      ],
      "payable": false,
      "stateMutability": "view",
      "type": "function"
    },
    {
      "constant": true,
      "inputs": [],
      "name": "ventureFusionPercentageInProject",
      "outputs": [
        {
          "name": "",
          "type": "uint256"
        }
      ],
      "payable": false,
      "stateMutability": "view",
      "type": "function"
    },
    {
      "constant": true,
      "inputs": [],
      "name": "incubatorOwnerPercentageInProject",
      "outputs": [
        {
          "name": "",
          "type": "uint256"
        }
      ],
      "payable": false,
      "stateMutability": "view",
      "type": "function"
    },
    {
      "constant": false,
      "inputs": [],
      "name": "renounceOwnership",
      "outputs": [],
      "payable": false,
      "stateMutability": "nonpayable",
      "type": "function"
    },
    {
      "constant": true,
      "inputs": [],
      "name": "owner",
      "outputs": [
        {
          "name": "",
          "type": "address"
        }
      ],
      "payable": false,
      "stateMutability": "view",
      "type": "function"
    },
    {
      "constant": true,
      "inputs": [],
      "name": "numberOfProjectsInThisIncubator",
      "outputs": [
        {
          "name": "",
          "type": "uint256"
        }
      ],
      "payable": false,
      "stateMutability": "view",
      "type": "function"
    },
    {
      "constant": false,
      "inputs": [
        {
          "name": "_newOwner",
          "type": "address"
        }
      ],
      "name": "transferOwnership",
      "outputs": [],
      "payable": false,
      "stateMutability": "nonpayable",
      "type": "function"
    },
    {
      "inputs": [
        {
          "name": "_incubatorOwnerPercentageInProject",
          "type": "uint256"
        },
        {
          "name": "_ventureFusionPercentageInProject",
          "type": "uint256"
        },
        {
          "name": "_ventureFusionOwnerAddress",
          "type": "address"
        },
        {
          "name": "_transactionPriceInTokens",
          "type": "uint256"
        }
      ],
      "payable": false,
      "stateMutability": "nonpayable",
      "type": "constructor"
    },
    {
      "anonymous": false,
      "inputs": [
        {
          "indexed": false,
          "name": "oldPercentage",
          "type": "uint256"
        },
        {
          "indexed": false,
          "name": "percentage",
          "type": "uint256"
        }
      ],
      "name": "changeIncubatorOwnerProjectPercentageEvent",
      "type": "event"
    },
    {
      "anonymous": false,
      "inputs": [
        {
          "indexed": false,
          "name": "oldPercentage",
          "type": "uint256"
        },
        {
          "indexed": false,
          "name": "percentage",
          "type": "uint256"
        }
      ],
      "name": "changeVentureFusionProjectPercentageEvent",
      "type": "event"
    },
    {
      "anonymous": false,
      "inputs": [
        {
          "indexed": false,
          "name": "oldPrice",
          "type": "uint256"
        },
        {
          "indexed": false,
          "name": "price",
          "type": "uint256"
        }
      ],
      "name": "changeVETTokenForTransactionsEvent",
      "type": "event"
    },
    {
      "anonymous": false,
      "inputs": [
        {
          "indexed": false,
          "name": "projectName",
          "type": "string"
        },
        {
          "indexed": false,
          "name": "ProjectNo",
          "type": "uint256"
        }
      ],
      "name": "ProjectCreatedEvent",
      "type": "event"
    },
    {
      "anonymous": false,
      "inputs": [
        {
          "indexed": true,
          "name": "previousOwner",
          "type": "address"
        }
      ],
      "name": "OwnershipRenounced",
      "type": "event"
    },
    {
      "anonymous": false,
      "inputs": [
        {
          "indexed": true,
          "name": "previousOwner",
          "type": "address"
        },
        {
          "indexed": true,
          "name": "newOwner",
          "type": "address"
        }
      ],
      "name": "OwnershipTransferred",
      "type": "event"
    },
    {
      "constant": false,
      "inputs": [
        {
          "name": "_projectPercentage",
          "type": "uint256"
        }
      ],
      "name": "changeIncubatorOwnerProjectPercentage",
      "outputs": [],
      "payable": false,
      "stateMutability": "nonpayable",
      "type": "function"
    },
    {
      "constant": false,
      "inputs": [
        {
          "name": "_projectPercentage",
          "type": "uint256"
        }
      ],
      "name": "changeVentureFusionProjectPercentage",
      "outputs": [],
      "payable": false,
      "stateMutability": "nonpayable",
      "type": "function"
    },
    {
      "constant": false,
      "inputs": [
        {
          "name": "_transactionPriceInTokens",
          "type": "uint256"
        }
      ],
      "name": "changeVETTokenForTransactions",
      "outputs": [],
      "payable": false,
      "stateMutability": "nonpayable",
      "type": "function"
    },
    {
      "constant": false,
      "inputs": [
        {
          "name": "_projectName",
          "type": "string"
        },
        {
          "name": "_projectOwner",
          "type": "address"
        }
      ],
      "name": "addNewProject",
      "outputs": [
        {
          "name": "newProjectID",
          "type": "uint256"
        },
        {
          "name": "projectAddress",
          "type": "address"
        },
        {
          "name": "projectName",
          "type": "string"
        }
      ],
      "payable": false,
      "stateMutability": "nonpayable",
      "type": "function"
    }
  ],
  "bytecode": "0x6080604052600060055534801561001557600080fd5b5060405160808061200183398101806040528101908080519060200190929190805190602001909291908051906020019092919080519060200190929190505050336000806101000a81548173ffffffffffffffffffffffffffffffffffffffff021916908373ffffffffffffffffffffffffffffffffffffffff16021790555083600181905550826002819055508060048190555081600360006101000a81548173ffffffffffffffffffffffffffffffffffffffff021916908373ffffffffffffffffffffffffffffffffffffffff16021790555050505050611f02806100ff6000396000f3006080604052600436106100ba576000357c0100000000000000000000000000000000000000000000000000000000900463ffffffff1680630b6b11a6146100bf57806335fec784146101985780633f5ed830146101c55780636566962e146101f057806368d101691461021b578063715018a61461024657806384c74f4c1461025d5780638da5cb5b1461028a578063a997332b146102e1578063c7e054171461041d578063d1a3f42f1461044a578063f2fde38b14610475575b600080fd5b3480156100cb57600080fd5b506100ea600480360381019080803590602001909291905050506104b8565b60405180806020018373ffffffffffffffffffffffffffffffffffffffff1673ffffffffffffffffffffffffffffffffffffffff168152602001828103825284818151815260200191508051906020019080838360005b8381101561015c578082015181840152602081019050610141565b50505050905090810190601f1680156101895780820380516001836020036101000a031916815260200191505b50935050505060405180910390f35b3480156101a457600080fd5b506101c360048036038101908080359060200190929190505050610594565b005b3480156101d157600080fd5b506101da61063b565b6040518082815260200191505060405180910390f35b3480156101fc57600080fd5b50610205610641565b6040518082815260200191505060405180910390f35b34801561022757600080fd5b50610230610647565b6040518082815260200191505060405180910390f35b34801561025257600080fd5b5061025b61064d565b005b34801561026957600080fd5b506102886004803603810190808035906020019092919050505061074f565b005b34801561029657600080fd5b5061029f6107f5565b604051808273ffffffffffffffffffffffffffffffffffffffff1673ffffffffffffffffffffffffffffffffffffffff16815260200191505060405180910390f35b3480156102ed57600080fd5b50610368600480360381019080803590602001908201803590602001908080601f0160208091040260200160405190810160405280939291908181526020018383808284378201915050505050509192919290803573ffffffffffffffffffffffffffffffffffffffff16906020019092919050505061081a565b604051808481526020018373ffffffffffffffffffffffffffffffffffffffff1673ffffffffffffffffffffffffffffffffffffffff16815260200180602001828103825283818151815260200191508051906020019080838360005b838110156103e05780820151818401526020810190506103c5565b50505050905090810190601f16801561040d5780820380516001836020036101000a031916815260200191505b5094505050505060405180910390f35b34801561042957600080fd5b5061044860048036038101908080359060200190929190505050610b15565b005b34801561045657600080fd5b5061045f610bbc565b6040518082815260200191505060405180910390f35b34801561048157600080fd5b506104b6600480360381019080803573ffffffffffffffffffffffffffffffffffffffff169060200190929190505050610bc2565b005b6006602052806000526040600020600091509050806000018054600181600116156101000203166002900480601f0160208091040260200160405190810160405280929190818152602001828054600181600116156101000203166002900480156105645780601f1061053957610100808354040283529160200191610564565b820191906000526020600020905b81548152906001019060200180831161054757829003601f168201915b5050505050908060010160009054906101000a900473ffffffffffffffffffffffffffffffffffffffff16905082565b600360009054906101000a900473ffffffffffffffffffffffffffffffffffffffff1673ffffffffffffffffffffffffffffffffffffffff163373ffffffffffffffffffffffffffffffffffffffff161415156105f057600080fd5b7fbe1954d350f64b7d35c6203ac570bbf0e4b65e1ab72d099ade3a3a5440a171d860025482604051808381526020018281526020019250505060405180910390a18060028190555050565b60045481565b60025481565b60015481565b6000809054906101000a900473ffffffffffffffffffffffffffffffffffffffff1673ffffffffffffffffffffffffffffffffffffffff163373ffffffffffffffffffffffffffffffffffffffff161415156106a857600080fd5b6000809054906101000a900473ffffffffffffffffffffffffffffffffffffffff1673ffffffffffffffffffffffffffffffffffffffff167ff8df31144d9c2f0f6b59d69b8b98abd5459d07f2742c4df920b25aae33c6482060405160405180910390a260008060006101000a81548173ffffffffffffffffffffffffffffffffffffffff021916908373ffffffffffffffffffffffffffffffffffffffff160217905550565b6000809054906101000a900473ffffffffffffffffffffffffffffffffffffffff1673ffffffffffffffffffffffffffffffffffffffff163373ffffffffffffffffffffffffffffffffffffffff161415156107aa57600080fd5b7f710753ea7152c80b8f0e4cf4129b26eff2ecc4477385791fb3df4fb89193b63260045482604051808381526020018281526020019250505060405180910390a18060048190555050565b6000809054906101000a900473ffffffffffffffffffffffffffffffffffffffff1681565b600080606060008060009054906101000a900473ffffffffffffffffffffffffffffffffffffffff1673ffffffffffffffffffffffffffffffffffffffff163373ffffffffffffffffffffffffffffffffffffffff1614151561087c57600080fd5b8460015460025461088b610d23565b808473ffffffffffffffffffffffffffffffffffffffff1673ffffffffffffffffffffffffffffffffffffffff1681526020018381526020018281526020019350505050604051809103906000f0801580156108eb573d6000803e3d6000fd5b50905060408051908101604052808781526020018273ffffffffffffffffffffffffffffffffffffffff1681525060076000820151816000019080519060200190610937929190610d33565b5060208201518160010160006101000a81548173ffffffffffffffffffffffffffffffffffffffff021916908373ffffffffffffffffffffffffffffffffffffffff1602179055509050506007600660006005548152602001908152602001600020600082018160000190805460018160011615610100020316600290046109c0929190610db3565b506001820160009054906101000a900473ffffffffffffffffffffffffffffffffffffffff168160010160006101000a81548173ffffffffffffffffffffffffffffffffffffffff021916908373ffffffffffffffffffffffffffffffffffffffff1602179055509050506005549350600760010160009054906101000a900473ffffffffffffffffffffffffffffffffffffffff1692508591507f3cce72b7eb1a2e8f1c9f26285c2c25a5250f594a775a380e678d0f8eebf14da7866005546040518080602001838152602001828103825284818151815260200191508051906020019080838360005b83811015610ac6578082015181840152602081019050610aab565b50505050905090810190601f168015610af35780820380516001836020036101000a031916815260200191505b50935050505060405180910390a1600160055401600581905550509250925092565b600360009054906101000a900473ffffffffffffffffffffffffffffffffffffffff1673ffffffffffffffffffffffffffffffffffffffff163373ffffffffffffffffffffffffffffffffffffffff16141515610b7157600080fd5b7fecc942e849bf25d222972881c160298567463ddce4e4cac6cba1bc43807badb360015482604051808381526020018281526020019250505060405180910390a18060018190555050565b60055481565b6000809054906101000a900473ffffffffffffffffffffffffffffffffffffffff1673ffffffffffffffffffffffffffffffffffffffff163373ffffffffffffffffffffffffffffffffffffffff16141515610c1d57600080fd5b610c2681610c29565b50565b600073ffffffffffffffffffffffffffffffffffffffff168173ffffffffffffffffffffffffffffffffffffffff1614151515610c6557600080fd5b8073ffffffffffffffffffffffffffffffffffffffff166000809054906101000a900473ffffffffffffffffffffffffffffffffffffffff1673ffffffffffffffffffffffffffffffffffffffff167f8be0079c531659141344cd1fd0a4f28419497f9722a3daafe3b4186f6b6457e060405160405180910390a3806000806101000a81548173ffffffffffffffffffffffffffffffffffffffff021916908373ffffffffffffffffffffffffffffffffffffffff16021790555050565b60405161107780610e6083390190565b828054600181600116156101000203166002900490600052602060002090601f016020900481019282601f10610d7457805160ff1916838001178555610da2565b82800160010185558215610da2579182015b82811115610da1578251825591602001919060010190610d86565b5b509050610daf9190610e3a565b5090565b828054600181600116156101000203166002900490600052602060002090601f016020900481019282601f10610dec5780548555610e29565b82800160010185558215610e2957600052602060002091601f016020900482015b82811115610e28578254825591600101919060010190610e0d565b5b509050610e369190610e3a565b5090565b610e5c91905b80821115610e58576000816000905550600101610e40565b5090565b905600608060405234801561001057600080fd5b506040516060806110778339810180604052810190808051906020019092919080519060200190929190805190602001909291905050506000336000806101000a81548173ffffffffffffffffffffffffffffffffffffffff021916908373ffffffffffffffffffffffffffffffffffffffff1602179055506064905082600160003373ffffffffffffffffffffffffffffffffffffffff1673ffffffffffffffffffffffffffffffffffffffff168152602001908152602001600020819055506100f1838261012764010000000002610dcd179091906401000000009004565b600160008073ffffffffffffffffffffffffffffffffffffffff1681526020019081526020016000208190555050505050610140565b600082821115151561013557fe5b818303905092915050565b610f288061014f6000396000f3006080604052600436106100a4576000357c0100000000000000000000000000000000000000000000000000000000900463ffffffff168063165e42e7146100a95780631c6c32831461010e5780634473ad5214610193578063715018a6146101ea5780638da5cb5b146102015780638fcb4e5b146102585780639564c2f0146102bd578063a0aa699514610334578063cf3a615814610399578063f2fde38b14610444575b600080fd5b3480156100b557600080fd5b506100f4600480360381019080803573ffffffffffffffffffffffffffffffffffffffff16906020019092919080359060200190929190505050610487565b604051808215151515815260200191505060405180910390f35b34801561011a57600080fd5b50610179600480360381019080803573ffffffffffffffffffffffffffffffffffffffff169060200190929190803573ffffffffffffffffffffffffffffffffffffffff1690602001909291908035906020019092919050505061048f565b604051808215151515815260200191505060405180910390f35b34801561019f57600080fd5b506101d4600480360381019080803573ffffffffffffffffffffffffffffffffffffffff16906020019092919050505061084f565b6040518082815260200191505060405180910390f35b3480156101f657600080fd5b506101ff610898565b005b34801561020d57600080fd5b5061021661099a565b604051808273ffffffffffffffffffffffffffffffffffffffff1673ffffffffffffffffffffffffffffffffffffffff16815260200191505060405180910390f35b34801561026457600080fd5b506102a3600480360381019080803573ffffffffffffffffffffffffffffffffffffffff169060200190929190803590602001909291905050506109bf565b604051808215151515815260200191505060405180910390f35b3480156102c957600080fd5b5061031e600480360381019080803573ffffffffffffffffffffffffffffffffffffffff169060200190929190803573ffffffffffffffffffffffffffffffffffffffff169060200190929190505050610be4565b6040518082815260200191505060405180910390f35b34801561034057600080fd5b5061037f600480360381019080803573ffffffffffffffffffffffffffffffffffffffff16906020019092919080359060200190929190505050610c6b565b604051808215151515815260200191505060405180910390f35b3480156103a557600080fd5b5061042a600480360381019080803590602001908201803590602001908080601f016020809104026020016040519081016040528093929190818152602001838380828437820191505050505050919291929080359060200190929190803573ffffffffffffffffffffffffffffffffffffffff169060200190929190505050610d5d565b604051808215151515815260200191505060405180910390f35b34801561045057600080fd5b50610485600480360381019080803573ffffffffffffffffffffffffffffffffffffffff169060200190929190505050610d66565b005b600092915050565b6000600160008573ffffffffffffffffffffffffffffffffffffffff1673ffffffffffffffffffffffffffffffffffffffff1681526020019081526020016000205482111515156104df57600080fd5b600260008573ffffffffffffffffffffffffffffffffffffffff1673ffffffffffffffffffffffffffffffffffffffff16815260200190815260200160002060003373ffffffffffffffffffffffffffffffffffffffff1673ffffffffffffffffffffffffffffffffffffffff16815260200190815260200160002054821115151561056a57600080fd5b600073ffffffffffffffffffffffffffffffffffffffff168373ffffffffffffffffffffffffffffffffffffffff16141515156105a657600080fd5b6105f882600160008773ffffffffffffffffffffffffffffffffffffffff1673ffffffffffffffffffffffffffffffffffffffff16815260200190815260200160002054610dcd90919063ffffffff16565b600160008673ffffffffffffffffffffffffffffffffffffffff1673ffffffffffffffffffffffffffffffffffffffff1681526020019081526020016000208190555061068d82600160008673ffffffffffffffffffffffffffffffffffffffff1673ffffffffffffffffffffffffffffffffffffffff16815260200190815260200160002054610de690919063ffffffff16565b600160008573ffffffffffffffffffffffffffffffffffffffff1673ffffffffffffffffffffffffffffffffffffffff1681526020019081526020016000208190555061075f82600260008773ffffffffffffffffffffffffffffffffffffffff1673ffffffffffffffffffffffffffffffffffffffff16815260200190815260200160002060003373ffffffffffffffffffffffffffffffffffffffff1673ffffffffffffffffffffffffffffffffffffffff16815260200190815260200160002054610dcd90919063ffffffff16565b600260008673ffffffffffffffffffffffffffffffffffffffff1673ffffffffffffffffffffffffffffffffffffffff16815260200190815260200160002060003373ffffffffffffffffffffffffffffffffffffffff1673ffffffffffffffffffffffffffffffffffffffff168152602001908152602001600020819055508273ffffffffffffffffffffffffffffffffffffffff168473ffffffffffffffffffffffffffffffffffffffff167f9d9c909296d9c674451c0c24f02cb64981eb3b727f99865939192f880a755dcb846040518082815260200191505060405180910390a3600190509392505050565b6000600160008373ffffffffffffffffffffffffffffffffffffffff1673ffffffffffffffffffffffffffffffffffffffff168152602001908152602001600020549050919050565b6000809054906101000a900473ffffffffffffffffffffffffffffffffffffffff1673ffffffffffffffffffffffffffffffffffffffff163373ffffffffffffffffffffffffffffffffffffffff161415156108f357600080fd5b6000809054906101000a900473ffffffffffffffffffffffffffffffffffffffff1673ffffffffffffffffffffffffffffffffffffffff167ff8df31144d9c2f0f6b59d69b8b98abd5459d07f2742c4df920b25aae33c6482060405160405180910390a260008060006101000a81548173ffffffffffffffffffffffffffffffffffffffff021916908373ffffffffffffffffffffffffffffffffffffffff160217905550565b6000809054906101000a900473ffffffffffffffffffffffffffffffffffffffff1681565b6000600160003373ffffffffffffffffffffffffffffffffffffffff1673ffffffffffffffffffffffffffffffffffffffff168152602001908152602001600020548211151515610a0f57600080fd5b600073ffffffffffffffffffffffffffffffffffffffff168373ffffffffffffffffffffffffffffffffffffffff1614151515610a4b57600080fd5b610a9d82600160003373ffffffffffffffffffffffffffffffffffffffff1673ffffffffffffffffffffffffffffffffffffffff16815260200190815260200160002054610dcd90919063ffffffff16565b600160003373ffffffffffffffffffffffffffffffffffffffff1673ffffffffffffffffffffffffffffffffffffffff16815260200190815260200160002081905550610b3282600160008673ffffffffffffffffffffffffffffffffffffffff1673ffffffffffffffffffffffffffffffffffffffff16815260200190815260200160002054610de690919063ffffffff16565b600160008573ffffffffffffffffffffffffffffffffffffffff1673ffffffffffffffffffffffffffffffffffffffff168152602001908152602001600020819055508273ffffffffffffffffffffffffffffffffffffffff163373ffffffffffffffffffffffffffffffffffffffff167f9d9c909296d9c674451c0c24f02cb64981eb3b727f99865939192f880a755dcb846040518082815260200191505060405180910390a36001905092915050565b6000600260008473ffffffffffffffffffffffffffffffffffffffff1673ffffffffffffffffffffffffffffffffffffffff16815260200190815260200160002060008373ffffffffffffffffffffffffffffffffffffffff1673ffffffffffffffffffffffffffffffffffffffff16815260200190815260200160002054905092915050565b600081600260003373ffffffffffffffffffffffffffffffffffffffff1673ffffffffffffffffffffffffffffffffffffffff16815260200190815260200160002060008573ffffffffffffffffffffffffffffffffffffffff1673ffffffffffffffffffffffffffffffffffffffff168152602001908152602001600020819055508273ffffffffffffffffffffffffffffffffffffffff163373ffffffffffffffffffffffffffffffffffffffff167ff782178947bb18718bebbe1961c554f5b10973aca733cba80290d723f0d2988e846040518082815260200191505060405180910390a36001905092915050565b60009392505050565b6000809054906101000a900473ffffffffffffffffffffffffffffffffffffffff1673ffffffffffffffffffffffffffffffffffffffff163373ffffffffffffffffffffffffffffffffffffffff16141515610dc157600080fd5b610dca81610e02565b50565b6000828211151515610ddb57fe5b818303905092915050565b60008183019050828110151515610df957fe5b80905092915050565b600073ffffffffffffffffffffffffffffffffffffffff168173ffffffffffffffffffffffffffffffffffffffff1614151515610e3e57600080fd5b8073ffffffffffffffffffffffffffffffffffffffff166000809054906101000a900473ffffffffffffffffffffffffffffffffffffffff1673ffffffffffffffffffffffffffffffffffffffff167f8be0079c531659141344cd1fd0a4f28419497f9722a3daafe3b4186f6b6457e060405160405180910390a3806000806101000a81548173ffffffffffffffffffffffffffffffffffffffff021916908373ffffffffffffffffffffffffffffffffffffffff160217905550505600a165627a7a72305820abdac7e48e3d30e774168461f64153e56fbf26246dec17f8865129285f1a94c60029a165627a7a72305820e3258a49d76a066209d40a8580226c490cde2dd60c0130fba7e32664eb0843dd0029",
  "source": "pragma solidity ^0.4.24;\r\n\r\nimport './contracts/ownership/Ownable.sol';\r\nimport './ProjectEquity.sol';\r\n\r\ncontract Incubator is Ownable {\r\n\t\r\n\tuint public incubatorOwnerPercentageInProject;\r\n\t\r\n\tuint public ventureFusionPercentageInProject;\r\n\taddress internal ventureFusionOwnerAddress;\r\n\t\r\n\tuint public transactionPriceInTokens;\r\n\r\n\tevent changeIncubatorOwnerProjectPercentageEvent(uint oldPercentage, uint percentage);\r\n\tevent changeVentureFusionProjectPercentageEvent(uint oldPercentage, uint percentage);\r\n\tevent changeVETTokenForTransactionsEvent(uint oldPrice, uint price);\r\n\t\r\n\t\r\n\tuint public numberOfProjectsInThisIncubator = 0;   //current number of project in this incubator\r\n\tstruct projectsStruct {             //project structure\r\n\t\tstring projectName;\r\n\t\taddress projectContractAddress;\r\n\t}\r\n\tmapping (uint => projectsStruct) public incubatorProjects;     //mapping of projects\r\n\t\r\n\t\r\n\tevent ProjectCreatedEvent(string projectName, uint ProjectNo);\r\n\t\r\n\t\r\n\tconstructor( \r\n\t     uint _incubatorOwnerPercentageInProject, \r\n\t\t uint _ventureFusionPercentageInProject,\r\n\t\t address _ventureFusionOwnerAddress,\r\n\t\t uint _transactionPriceInTokens ) \r\n    public \r\n    {\r\n\t\tincubatorOwnerPercentageInProject = _incubatorOwnerPercentageInProject;\r\n\t\tventureFusionPercentageInProject = _ventureFusionPercentageInProject;\r\n\t\ttransactionPriceInTokens = _transactionPriceInTokens;\r\n\t\tventureFusionOwnerAddress = _ventureFusionOwnerAddress;\r\n\t}\r\n\t\r\n\t\r\n\t\r\n\t\r\n\t//-------------------------------------------------\r\n\t// Check that only venture fusion owner is calling this function\r\n\t//-------------------------------------------------\r\n\tmodifier onlyVentureFusionOwner() {\r\n\t\trequire(msg.sender == ventureFusionOwnerAddress);\r\n\t\t_;\r\n\t}\t\r\n\t\r\n\r\n\t//-------------------------------------------------\r\n\t// Change the percentages owned by incubator owner when creating a new project\r\n\t//-------------------------------------------------\r\n\tfunction changeIncubatorOwnerProjectPercentage(uint _projectPercentage) public onlyVentureFusionOwner {\t\r\n\t\temit changeIncubatorOwnerProjectPercentageEvent(incubatorOwnerPercentageInProject, _projectPercentage);\r\n\t\tincubatorOwnerPercentageInProject = _projectPercentage;\r\n\t}\r\n\t\r\n\t\r\n\t\r\n\t//-------------------------------------------------\r\n\t// Change the percentages owned by VentureFusion when creating a new project  \r\n\t//-------------------------------------------------\r\n\tfunction changeVentureFusionProjectPercentage(uint _projectPercentage) public onlyVentureFusionOwner {\t\r\n\t\temit changeVentureFusionProjectPercentageEvent(ventureFusionPercentageInProject, _projectPercentage);\r\n\t\tventureFusionPercentageInProject = _projectPercentage;\r\n\t}\r\n\t\r\n\t\r\n\t//-------------------------------------------------\r\n\t// This interface will be called by the VentureFusion admin and will set the number of tokens required to perform \r\n    // each transaction in this incubator. For exmaple to launch SellBuy shares needs 4 VET tokens  \t\r\n\t//-------------------------------------------------\r\n\tfunction changeVETTokenForTransactions(uint _transactionPriceInTokens) public onlyOwner {\r\n\t\temit changeVETTokenForTransactionsEvent(transactionPriceInTokens, _transactionPriceInTokens);\r\n\t\ttransactionPriceInTokens = _transactionPriceInTokens;\r\n\t}\r\n\r\n\r\n\r\n\r\n\tprojectsStruct newProject;\r\n\t//-------------------------------------------------\r\n\t// Add new project.   This will create a new project within this incubator\r\n\t//-------------------------------------------------\r\n\tfunction addNewProject(string _projectName, address _projectOwner) \r\n\t\tpublic onlyOwner \r\n\t\treturns ( uint newProjectID, address projectAddress, string projectName )  \r\n\t{\r\n\t\taddress newProjectContract = new ProjectEquity(_projectOwner, incubatorOwnerPercentageInProject, ventureFusionPercentageInProject);\r\n\r\n\t\tnewProject = projectsStruct(_projectName, newProjectContract);\r\n\t\tincubatorProjects[numberOfProjectsInThisIncubator] = newProject;\r\n\r\n\t\t//set return values \r\n\t\tnewProjectID = numberOfProjectsInThisIncubator;\r\n\t\tprojectAddress = newProject.projectContractAddress;\r\n\t\tprojectName = _projectName;\r\n\t\t\r\n\t\temit ProjectCreatedEvent(_projectName, numberOfProjectsInThisIncubator);\r\n\t\t\r\n\t\t//increment the counter for next new project\r\n\t\tnumberOfProjectsInThisIncubator = numberOfProjectsInThisIncubator + 1;\r\n\t}\r\n\r\n\r\n}\r\n\r\n",
  "sourcePath": "F:\\Projects\\work\\VF\\blockchain\\contracts\\Incubator.sol",
  "compiler": {
    "name": "solc",
    "version": "0.4.24+commit.e67f0147.Emscripten.clang"
  },
  "schemaVersion": "2.0.1",
  "updatedAt": "2018-10-08T18:00:06.110Z"
}