{
  "contractName": "Incubator",
  "abi": [
    {
      "constant": true,
      "inputs": [
        {
          "name": "",
          "type": "uint256"
        }
      ],
      "name": "incubatorProjects",
      "outputs": [
        {
          "name": "projectName",
          "type": "string"
        },
        {
          "name": "projectContractAddress",
          "type": "address"
        },
        {
          "name": "ProjectSingleShareDivision",
          "type": "uint256"
        },
        {
          "name": "projectOwner",
          "type": "address"
        }
      ],
      "payable": false,
      "stateMutability": "view",
      "type": "function"
    },
    {
      "constant": true,
      "inputs": [],
      "name": "transactionPriceInTokens",
      "outputs": [
        {
          "name": "",
          "type": "uint256"
        }
      ],
      "payable": false,
      "stateMutability": "view",
      "type": "function"
    },
    {
      "constant": true,
      "inputs": [],
      "name": "ventureFusionPercentageInProject",
      "outputs": [
        {
          "name": "",
          "type": "uint256"
        }
      ],
      "payable": false,
      "stateMutability": "view",
      "type": "function"
    },
    {
      "constant": true,
      "inputs": [],
      "name": "incubatorOwnerPercentageInProject",
      "outputs": [
        {
          "name": "",
          "type": "uint256"
        }
      ],
      "payable": false,
      "stateMutability": "view",
      "type": "function"
    },
    {
      "constant": true,
      "inputs": [],
      "name": "ProjectSingleShareDivision",
      "outputs": [
        {
          "name": "",
          "type": "uint256"
        }
      ],
      "payable": false,
      "stateMutability": "view",
      "type": "function"
    },
    {
      "constant": false,
      "inputs": [],
      "name": "renounceOwnership",
      "outputs": [],
      "payable": false,
      "stateMutability": "nonpayable",
      "type": "function"
    },
    {
      "constant": true,
      "inputs": [],
      "name": "owner",
      "outputs": [
        {
          "name": "",
          "type": "address"
        }
      ],
      "payable": false,
      "stateMutability": "view",
      "type": "function"
    },
    {
      "constant": true,
      "inputs": [],
      "name": "numberOfProjectsInThisIncubator",
      "outputs": [
        {
          "name": "",
          "type": "uint256"
        }
      ],
      "payable": false,
      "stateMutability": "view",
      "type": "function"
    },
    {
      "constant": false,
      "inputs": [
        {
          "name": "_newOwner",
          "type": "address"
        }
      ],
      "name": "transferOwnership",
      "outputs": [],
      "payable": false,
      "stateMutability": "nonpayable",
      "type": "function"
    },
    {
      "inputs": [
        {
          "name": "_incubatorOwnerPercentageInProject",
          "type": "uint256"
        },
        {
          "name": "_ventureFusionPercentageInProject",
          "type": "uint256"
        },
        {
          "name": "_ventureFusionOwnerAddress",
          "type": "address"
        },
        {
          "name": "_transactionPriceInTokens",
          "type": "uint256"
        },
        {
          "name": "_singleShareDivision",
          "type": "uint256"
        }
      ],
      "payable": false,
      "stateMutability": "nonpayable",
      "type": "constructor"
    },
    {
      "anonymous": false,
      "inputs": [
        {
          "indexed": false,
          "name": "oldPercentage",
          "type": "uint256"
        },
        {
          "indexed": false,
          "name": "percentage",
          "type": "uint256"
        }
      ],
      "name": "changeIncubatorOwnerProjectPercentageEvent",
      "type": "event"
    },
    {
      "anonymous": false,
      "inputs": [
        {
          "indexed": false,
          "name": "oldPercentage",
          "type": "uint256"
        },
        {
          "indexed": false,
          "name": "percentage",
          "type": "uint256"
        }
      ],
      "name": "changeVentureFusionProjectPercentageEvent",
      "type": "event"
    },
    {
      "anonymous": false,
      "inputs": [
        {
          "indexed": false,
          "name": "oldPrice",
          "type": "uint256"
        },
        {
          "indexed": false,
          "name": "price",
          "type": "uint256"
        }
      ],
      "name": "changeVETTokenForTransactionsEvent",
      "type": "event"
    },
    {
      "anonymous": false,
      "inputs": [
        {
          "indexed": false,
          "name": "oldSingleShareDivision",
          "type": "uint256"
        },
        {
          "indexed": false,
          "name": "singleShareDivision",
          "type": "uint256"
        }
      ],
      "name": "changeProjectSingleShareDivisionEvent",
      "type": "event"
    },
    {
      "anonymous": false,
      "inputs": [
        {
          "indexed": false,
          "name": "projectName",
          "type": "string"
        },
        {
          "indexed": false,
          "name": "ProjectNo",
          "type": "uint256"
        }
      ],
      "name": "ProjectCreatedEvent",
      "type": "event"
    },
    {
      "anonymous": false,
      "inputs": [
        {
          "indexed": true,
          "name": "previousOwner",
          "type": "address"
        }
      ],
      "name": "OwnershipRenounced",
      "type": "event"
    },
    {
      "anonymous": false,
      "inputs": [
        {
          "indexed": true,
          "name": "previousOwner",
          "type": "address"
        },
        {
          "indexed": true,
          "name": "newOwner",
          "type": "address"
        }
      ],
      "name": "OwnershipTransferred",
      "type": "event"
    },
    {
      "constant": false,
      "inputs": [
        {
          "name": "_projectPercentage",
          "type": "uint256"
        }
      ],
      "name": "changeIncubatorOwnerProjectPercentage",
      "outputs": [],
      "payable": false,
      "stateMutability": "nonpayable",
      "type": "function"
    },
    {
      "constant": false,
      "inputs": [
        {
          "name": "_projectPercentage",
          "type": "uint256"
        }
      ],
      "name": "changeVentureFusionProjectPercentage",
      "outputs": [],
      "payable": false,
      "stateMutability": "nonpayable",
      "type": "function"
    },
    {
      "constant": false,
      "inputs": [
        {
          "name": "_transactionPriceInTokens",
          "type": "uint256"
        }
      ],
      "name": "changeVETTokenForTransactions",
      "outputs": [],
      "payable": false,
      "stateMutability": "nonpayable",
      "type": "function"
    },
    {
      "constant": false,
      "inputs": [
        {
          "name": "_singleShareDivision",
          "type": "uint256"
        }
      ],
      "name": "changeProjectSingleShareDivision",
      "outputs": [],
      "payable": false,
      "stateMutability": "nonpayable",
      "type": "function"
    },
    {
      "constant": false,
      "inputs": [
        {
          "name": "_projectName",
          "type": "string"
        },
        {
          "name": "_projectOwner",
          "type": "address"
        }
      ],
      "name": "addNewProject",
      "outputs": [
        {
          "name": "newProjectID",
          "type": "uint256"
        },
        {
          "name": "projectAddress",
          "type": "address"
        },
        {
          "name": "projectName",
          "type": "string"
        }
      ],
      "payable": false,
      "stateMutability": "nonpayable",
      "type": "function"
    }
  ],
  "bytecode": "0x6080604052600060065534801561001557600080fd5b5060405160a0806124d88339810180604052810190808051906020019092919080519060200190929190805190602001909291908051906020019092919080519060200190929190505050336000806101000a81548173ffffffffffffffffffffffffffffffffffffffff021916908373ffffffffffffffffffffffffffffffffffffffff16021790555084600181905550836002819055508160048190555082600360006101000a81548173ffffffffffffffffffffffffffffffffffffffff021916908373ffffffffffffffffffffffffffffffffffffffff1602179055508060058190555050505050506123c7806101116000396000f3006080604052600436106100d0576000357c0100000000000000000000000000000000000000000000000000000000900463ffffffff16806304f7fcc7146100d55780630b6b11a61461010257806335fec784146102155780633f5ed830146102425780636566962e1461026d57806368d101691461029857806369edc912146102c3578063715018a6146102ee57806384c74f4c146103055780638da5cb5b14610332578063a997332b14610389578063c7e05417146104c5578063d1a3f42f146104f2578063f2fde38b1461051d575b600080fd5b3480156100e157600080fd5b5061010060048036038101908080359060200190929190505050610560565b005b34801561010e57600080fd5b5061012d60048036038101908080359060200190929190505050610607565b60405180806020018573ffffffffffffffffffffffffffffffffffffffff1673ffffffffffffffffffffffffffffffffffffffff1681526020018481526020018373ffffffffffffffffffffffffffffffffffffffff1673ffffffffffffffffffffffffffffffffffffffff168152602001828103825286818151815260200191508051906020019080838360005b838110156101d75780820151818401526020810190506101bc565b50505050905090810190601f1680156102045780820380516001836020036101000a031916815260200191505b509550505050505060405180910390f35b34801561022157600080fd5b506102406004803603810190808035906020019092919050505061070f565b005b34801561024e57600080fd5b506102576107b6565b6040518082815260200191505060405180910390f35b34801561027957600080fd5b506102826107bc565b6040518082815260200191505060405180910390f35b3480156102a457600080fd5b506102ad6107c2565b6040518082815260200191505060405180910390f35b3480156102cf57600080fd5b506102d86107c8565b6040518082815260200191505060405180910390f35b3480156102fa57600080fd5b506103036107ce565b005b34801561031157600080fd5b50610330600480360381019080803590602001909291905050506108d0565b005b34801561033e57600080fd5b50610347610977565b604051808273ffffffffffffffffffffffffffffffffffffffff1673ffffffffffffffffffffffffffffffffffffffff16815260200191505060405180910390f35b34801561039557600080fd5b50610410600480360381019080803590602001908201803590602001908080601f0160208091040260200160405190810160405280939291908181526020018383808284378201915050505050509192919290803573ffffffffffffffffffffffffffffffffffffffff16906020019092919050505061099c565b604051808481526020018373ffffffffffffffffffffffffffffffffffffffff1673ffffffffffffffffffffffffffffffffffffffff16815260200180602001828103825283818151815260200191508051906020019080838360005b8381101561048857808201518184015260208101905061046d565b50505050905090810190601f1680156104b55780820380516001836020036101000a031916815260200191505b5094505050505060405180910390f35b3480156104d157600080fd5b506104f060048036038101908080359060200190929190505050610f18565b005b3480156104fe57600080fd5b50610507610fbf565b6040518082815260200191505060405180910390f35b34801561052957600080fd5b5061055e600480360381019080803573ffffffffffffffffffffffffffffffffffffffff169060200190929190505050610fc5565b005b600360009054906101000a900473ffffffffffffffffffffffffffffffffffffffff1673ffffffffffffffffffffffffffffffffffffffff163373ffffffffffffffffffffffffffffffffffffffff161415156105bc57600080fd5b7f6565af990940c7602d3fd6eed11762b60a8cfeef8dae79f5f9874d921406862a60055482604051808381526020018281526020019250505060405180910390a18060058190555050565b6007602052806000526040600020600091509050806000018054600181600116156101000203166002900480601f0160208091040260200160405190810160405280929190818152602001828054600181600116156101000203166002900480156106b35780601f10610688576101008083540402835291602001916106b3565b820191906000526020600020905b81548152906001019060200180831161069657829003601f168201915b5050505050908060010160009054906101000a900473ffffffffffffffffffffffffffffffffffffffff16908060020154908060030160009054906101000a900473ffffffffffffffffffffffffffffffffffffffff16905084565b600360009054906101000a900473ffffffffffffffffffffffffffffffffffffffff1673ffffffffffffffffffffffffffffffffffffffff163373ffffffffffffffffffffffffffffffffffffffff1614151561076b57600080fd5b7fbe1954d350f64b7d35c6203ac570bbf0e4b65e1ab72d099ade3a3a5440a171d860025482604051808381526020018281526020019250505060405180910390a18060028190555050565b60045481565b60025481565b60015481565b60055481565b6000809054906101000a900473ffffffffffffffffffffffffffffffffffffffff1673ffffffffffffffffffffffffffffffffffffffff163373ffffffffffffffffffffffffffffffffffffffff1614151561082957600080fd5b6000809054906101000a900473ffffffffffffffffffffffffffffffffffffffff1673ffffffffffffffffffffffffffffffffffffffff167ff8df31144d9c2f0f6b59d69b8b98abd5459d07f2742c4df920b25aae33c6482060405160405180910390a260008060006101000a81548173ffffffffffffffffffffffffffffffffffffffff021916908373ffffffffffffffffffffffffffffffffffffffff160217905550565b600360009054906101000a900473ffffffffffffffffffffffffffffffffffffffff1673ffffffffffffffffffffffffffffffffffffffff163373ffffffffffffffffffffffffffffffffffffffff1614151561092c57600080fd5b7f710753ea7152c80b8f0e4cf4129b26eff2ecc4477385791fb3df4fb89193b63260045482604051808381526020018281526020019250505060405180910390a18060048190555050565b6000809054906101000a900473ffffffffffffffffffffffffffffffffffffffff1681565b600080606060008060009054906101000a900473ffffffffffffffffffffffffffffffffffffffff1673ffffffffffffffffffffffffffffffffffffffff163373ffffffffffffffffffffffffffffffffffffffff161415156109fe57600080fd5b846000809054906101000a900473ffffffffffffffffffffffffffffffffffffffff16600154600360009054906101000a900473ffffffffffffffffffffffffffffffffffffffff16600254600554610a55611126565b808773ffffffffffffffffffffffffffffffffffffffff1673ffffffffffffffffffffffffffffffffffffffff1681526020018673ffffffffffffffffffffffffffffffffffffffff1673ffffffffffffffffffffffffffffffffffffffff1681526020018581526020018473ffffffffffffffffffffffffffffffffffffffff1673ffffffffffffffffffffffffffffffffffffffff1681526020018381526020018281526020019650505050505050604051809103906000f080158015610b22573d6000803e3d6000fd5b5090506080604051908101604052808781526020018273ffffffffffffffffffffffffffffffffffffffff16815260200160055481526020018673ffffffffffffffffffffffffffffffffffffffff1681525060086000820151816000019080519060200190610b93929190611136565b5060208201518160010160006101000a81548173ffffffffffffffffffffffffffffffffffffffff021916908373ffffffffffffffffffffffffffffffffffffffff1602179055506040820151816002015560608201518160030160006101000a81548173ffffffffffffffffffffffffffffffffffffffff021916908373ffffffffffffffffffffffffffffffffffffffff160217905550905050600860076000600654815260200190815260200160002060008201816000019080546001816001161561010002031660029004610c6d9291906111b6565b506001820160009054906101000a900473ffffffffffffffffffffffffffffffffffffffff168160010160006101000a81548173ffffffffffffffffffffffffffffffffffffffff021916908373ffffffffffffffffffffffffffffffffffffffff160217905550600282015481600201556003820160009054906101000a900473ffffffffffffffffffffffffffffffffffffffff168160030160006101000a81548173ffffffffffffffffffffffffffffffffffffffff021916908373ffffffffffffffffffffffffffffffffffffffff1602179055509050506006549350600860010160009054906101000a900473ffffffffffffffffffffffffffffffffffffffff1692508591508073ffffffffffffffffffffffffffffffffffffffff1660405180807f7472616e736665724f776e657273686970286164647265737329000000000000815250601a01905060405180910390207c01000000000000000000000000000000000000000000000000000000009004866040518263ffffffff167c0100000000000000000000000000000000000000000000000000000000028152600401808273ffffffffffffffffffffffffffffffffffffffff1673ffffffffffffffffffffffffffffffffffffffff1681526020019150506000604051808303816000875af192505050507f3cce72b7eb1a2e8f1c9f26285c2c25a5250f594a775a380e678d0f8eebf14da7866006546040518080602001838152602001828103825284818151815260200191508051906020019080838360005b83811015610ec9578082015181840152602081019050610eae565b50505050905090810190601f168015610ef65780820380516001836020036101000a031916815260200191505b50935050505060405180910390a1600160065401600681905550509250925092565b600360009054906101000a900473ffffffffffffffffffffffffffffffffffffffff1673ffffffffffffffffffffffffffffffffffffffff163373ffffffffffffffffffffffffffffffffffffffff16141515610f7457600080fd5b7fecc942e849bf25d222972881c160298567463ddce4e4cac6cba1bc43807badb360015482604051808381526020018281526020019250505060405180910390a18060018190555050565b60065481565b6000809054906101000a900473ffffffffffffffffffffffffffffffffffffffff1673ffffffffffffffffffffffffffffffffffffffff163373ffffffffffffffffffffffffffffffffffffffff1614151561102057600080fd5b6110298161102c565b50565b600073ffffffffffffffffffffffffffffffffffffffff168173ffffffffffffffffffffffffffffffffffffffff161415151561106857600080fd5b8073ffffffffffffffffffffffffffffffffffffffff166000809054906101000a900473ffffffffffffffffffffffffffffffffffffffff1673ffffffffffffffffffffffffffffffffffffffff167f8be0079c531659141344cd1fd0a4f28419497f9722a3daafe3b4186f6b6457e060405160405180910390a3806000806101000a81548173ffffffffffffffffffffffffffffffffffffffff021916908373ffffffffffffffffffffffffffffffffffffffff16021790555050565b6040516111398061126383390190565b828054600181600116156101000203166002900490600052602060002090601f016020900481019282601f1061117757805160ff19168380011785556111a5565b828001600101855582156111a5579182015b828111156111a4578251825591602001919060010190611189565b5b5090506111b2919061123d565b5090565b828054600181600116156101000203166002900490600052602060002090601f016020900481019282601f106111ef578054855561122c565b8280016001018555821561122c57600052602060002091601f016020900482015b8281111561122b578254825591600101919060010190611210565b5b509050611239919061123d565b5090565b61125f91905b8082111561125b576000816000905550600101611243565b5090565b905600608060405234801561001057600080fd5b5060405160c0806111398339810180604052810190808051906020019092919080519060200190929190805190602001909291908051906020019092919080519060200190929190805190602001909291905050506000336000806101000a81548173ffffffffffffffffffffffffffffffffffffffff021916908373ffffffffffffffffffffffffffffffffffffffff16021790555081606402905084600160008873ffffffffffffffffffffffffffffffffffffffff1673ffffffffffffffffffffffffffffffffffffffff1681526020019081526020016000208190555082600160008673ffffffffffffffffffffffffffffffffffffffff1673ffffffffffffffffffffffffffffffffffffffff16815260200190815260200160002081905550610157838601826101ad64010000000002610e09179091906401000000009004565b600160008973ffffffffffffffffffffffffffffffffffffffff1673ffffffffffffffffffffffffffffffffffffffff1681526020019081526020016000208190555081600381905550505050505050506101c6565b60008282111515156101bb57fe5b818303905092915050565b610f64806101d56000396000f3006080604052600436106100af576000357c0100000000000000000000000000000000000000000000000000000000900463ffffffff168063165e42e7146100b45780631c6c3283146101195780634473ad521461019e57806369edc912146101f5578063715018a6146102205780638da5cb5b146102375780638fcb4e5b1461028e5780639564c2f0146102f3578063a0aa69951461036a578063cf3a6158146103cf578063f2fde38b1461047a575b600080fd5b3480156100c057600080fd5b506100ff600480360381019080803573ffffffffffffffffffffffffffffffffffffffff169060200190929190803590602001909291905050506104bd565b604051808215151515815260200191505060405180910390f35b34801561012557600080fd5b50610184600480360381019080803573ffffffffffffffffffffffffffffffffffffffff169060200190929190803573ffffffffffffffffffffffffffffffffffffffff169060200190929190803590602001909291905050506104c5565b604051808215151515815260200191505060405180910390f35b3480156101aa57600080fd5b506101df600480360381019080803573ffffffffffffffffffffffffffffffffffffffff169060200190929190505050610885565b6040518082815260200191505060405180910390f35b34801561020157600080fd5b5061020a6108ce565b6040518082815260200191505060405180910390f35b34801561022c57600080fd5b506102356108d4565b005b34801561024357600080fd5b5061024c6109d6565b604051808273ffffffffffffffffffffffffffffffffffffffff1673ffffffffffffffffffffffffffffffffffffffff16815260200191505060405180910390f35b34801561029a57600080fd5b506102d9600480360381019080803573ffffffffffffffffffffffffffffffffffffffff169060200190929190803590602001909291905050506109fb565b604051808215151515815260200191505060405180910390f35b3480156102ff57600080fd5b50610354600480360381019080803573ffffffffffffffffffffffffffffffffffffffff169060200190929190803573ffffffffffffffffffffffffffffffffffffffff169060200190929190505050610c20565b6040518082815260200191505060405180910390f35b34801561037657600080fd5b506103b5600480360381019080803573ffffffffffffffffffffffffffffffffffffffff16906020019092919080359060200190929190505050610ca7565b604051808215151515815260200191505060405180910390f35b3480156103db57600080fd5b50610460600480360381019080803590602001908201803590602001908080601f016020809104026020016040519081016040528093929190818152602001838380828437820191505050505050919291929080359060200190929190803573ffffffffffffffffffffffffffffffffffffffff169060200190929190505050610d99565b604051808215151515815260200191505060405180910390f35b34801561048657600080fd5b506104bb600480360381019080803573ffffffffffffffffffffffffffffffffffffffff169060200190929190505050610da2565b005b600092915050565b6000600160008573ffffffffffffffffffffffffffffffffffffffff1673ffffffffffffffffffffffffffffffffffffffff16815260200190815260200160002054821115151561051557600080fd5b600260008573ffffffffffffffffffffffffffffffffffffffff1673ffffffffffffffffffffffffffffffffffffffff16815260200190815260200160002060003373ffffffffffffffffffffffffffffffffffffffff1673ffffffffffffffffffffffffffffffffffffffff1681526020019081526020016000205482111515156105a057600080fd5b600073ffffffffffffffffffffffffffffffffffffffff168373ffffffffffffffffffffffffffffffffffffffff16141515156105dc57600080fd5b61062e82600160008773ffffffffffffffffffffffffffffffffffffffff1673ffffffffffffffffffffffffffffffffffffffff16815260200190815260200160002054610e0990919063ffffffff16565b600160008673ffffffffffffffffffffffffffffffffffffffff1673ffffffffffffffffffffffffffffffffffffffff168152602001908152602001600020819055506106c382600160008673ffffffffffffffffffffffffffffffffffffffff1673ffffffffffffffffffffffffffffffffffffffff16815260200190815260200160002054610e2290919063ffffffff16565b600160008573ffffffffffffffffffffffffffffffffffffffff1673ffffffffffffffffffffffffffffffffffffffff1681526020019081526020016000208190555061079582600260008773ffffffffffffffffffffffffffffffffffffffff1673ffffffffffffffffffffffffffffffffffffffff16815260200190815260200160002060003373ffffffffffffffffffffffffffffffffffffffff1673ffffffffffffffffffffffffffffffffffffffff16815260200190815260200160002054610e0990919063ffffffff16565b600260008673ffffffffffffffffffffffffffffffffffffffff1673ffffffffffffffffffffffffffffffffffffffff16815260200190815260200160002060003373ffffffffffffffffffffffffffffffffffffffff1673ffffffffffffffffffffffffffffffffffffffff168152602001908152602001600020819055508273ffffffffffffffffffffffffffffffffffffffff168473ffffffffffffffffffffffffffffffffffffffff167f9d9c909296d9c674451c0c24f02cb64981eb3b727f99865939192f880a755dcb846040518082815260200191505060405180910390a3600190509392505050565b6000600160008373ffffffffffffffffffffffffffffffffffffffff1673ffffffffffffffffffffffffffffffffffffffff168152602001908152602001600020549050919050565b60035481565b6000809054906101000a900473ffffffffffffffffffffffffffffffffffffffff1673ffffffffffffffffffffffffffffffffffffffff163373ffffffffffffffffffffffffffffffffffffffff1614151561092f57600080fd5b6000809054906101000a900473ffffffffffffffffffffffffffffffffffffffff1673ffffffffffffffffffffffffffffffffffffffff167ff8df31144d9c2f0f6b59d69b8b98abd5459d07f2742c4df920b25aae33c6482060405160405180910390a260008060006101000a81548173ffffffffffffffffffffffffffffffffffffffff021916908373ffffffffffffffffffffffffffffffffffffffff160217905550565b6000809054906101000a900473ffffffffffffffffffffffffffffffffffffffff1681565b6000600160003373ffffffffffffffffffffffffffffffffffffffff1673ffffffffffffffffffffffffffffffffffffffff168152602001908152602001600020548211151515610a4b57600080fd5b600073ffffffffffffffffffffffffffffffffffffffff168373ffffffffffffffffffffffffffffffffffffffff1614151515610a8757600080fd5b610ad982600160003373ffffffffffffffffffffffffffffffffffffffff1673ffffffffffffffffffffffffffffffffffffffff16815260200190815260200160002054610e0990919063ffffffff16565b600160003373ffffffffffffffffffffffffffffffffffffffff1673ffffffffffffffffffffffffffffffffffffffff16815260200190815260200160002081905550610b6e82600160008673ffffffffffffffffffffffffffffffffffffffff1673ffffffffffffffffffffffffffffffffffffffff16815260200190815260200160002054610e2290919063ffffffff16565b600160008573ffffffffffffffffffffffffffffffffffffffff1673ffffffffffffffffffffffffffffffffffffffff168152602001908152602001600020819055508273ffffffffffffffffffffffffffffffffffffffff163373ffffffffffffffffffffffffffffffffffffffff167f9d9c909296d9c674451c0c24f02cb64981eb3b727f99865939192f880a755dcb846040518082815260200191505060405180910390a36001905092915050565b6000600260008473ffffffffffffffffffffffffffffffffffffffff1673ffffffffffffffffffffffffffffffffffffffff16815260200190815260200160002060008373ffffffffffffffffffffffffffffffffffffffff1673ffffffffffffffffffffffffffffffffffffffff16815260200190815260200160002054905092915050565b600081600260003373ffffffffffffffffffffffffffffffffffffffff1673ffffffffffffffffffffffffffffffffffffffff16815260200190815260200160002060008573ffffffffffffffffffffffffffffffffffffffff1673ffffffffffffffffffffffffffffffffffffffff168152602001908152602001600020819055508273ffffffffffffffffffffffffffffffffffffffff163373ffffffffffffffffffffffffffffffffffffffff167ff782178947bb18718bebbe1961c554f5b10973aca733cba80290d723f0d2988e846040518082815260200191505060405180910390a36001905092915050565b60009392505050565b6000809054906101000a900473ffffffffffffffffffffffffffffffffffffffff1673ffffffffffffffffffffffffffffffffffffffff163373ffffffffffffffffffffffffffffffffffffffff16141515610dfd57600080fd5b610e0681610e3e565b50565b6000828211151515610e1757fe5b818303905092915050565b60008183019050828110151515610e3557fe5b80905092915050565b600073ffffffffffffffffffffffffffffffffffffffff168173ffffffffffffffffffffffffffffffffffffffff1614151515610e7a57600080fd5b8073ffffffffffffffffffffffffffffffffffffffff166000809054906101000a900473ffffffffffffffffffffffffffffffffffffffff1673ffffffffffffffffffffffffffffffffffffffff167f8be0079c531659141344cd1fd0a4f28419497f9722a3daafe3b4186f6b6457e060405160405180910390a3806000806101000a81548173ffffffffffffffffffffffffffffffffffffffff021916908373ffffffffffffffffffffffffffffffffffffffff160217905550505600a165627a7a72305820d7650b07d460ebe82c84313fa657415304aaf587d93dc6a31d49375f0a4b54ed0029a165627a7a7230582089b0881d93430adb6b340fdb3f4503cdd0748e2f8d229523a6d167f20a5b5eef0029",
  "source": "pragma solidity ^0.4.24;\r\n\r\nimport './contracts/ownership/Ownable.sol';\r\nimport './ProjectEquity.sol';\r\n\r\ncontract Incubator is Ownable {\r\n\t\r\n\tuint public incubatorOwnerPercentageInProject;\r\n\t\r\n\tuint public ventureFusionPercentageInProject;\r\n\taddress internal ventureFusionOwnerAddress;\r\n\t\r\n\tuint public transactionPriceInTokens;\r\n\tuint public ProjectSingleShareDivision;\r\n\r\n\tevent changeIncubatorOwnerProjectPercentageEvent(uint oldPercentage, uint percentage);\r\n\tevent changeVentureFusionProjectPercentageEvent(uint oldPercentage, uint percentage);\r\n\tevent changeVETTokenForTransactionsEvent(uint oldPrice, uint price);\r\n\tevent changeProjectSingleShareDivisionEvent(uint oldSingleShareDivision, uint singleShareDivision);\r\n\t\r\n\t\r\n\tuint public numberOfProjectsInThisIncubator = 0;   //current number of project in this incubator\r\n\tstruct projectsStruct {             //project structure\r\n\t\tstring projectName;\r\n\t\taddress projectContractAddress;\r\n\t\tuint ProjectSingleShareDivision;\r\n\t\taddress projectOwner;\r\n\t}\r\n\tmapping (uint => projectsStruct) public incubatorProjects;     //mapping of projects\r\n\r\n\r\n\tevent ProjectCreatedEvent(string projectName, uint ProjectNo);\r\n\t\r\n\r\n\tconstructor( \r\n\t     uint _incubatorOwnerPercentageInProject, \r\n\t\t uint _ventureFusionPercentageInProject,\r\n\t\t address _ventureFusionOwnerAddress,\r\n\t\t uint _transactionPriceInTokens,\r\n\t\t uint _singleShareDivision) \r\n    public \r\n    {\r\n\t\tincubatorOwnerPercentageInProject = _incubatorOwnerPercentageInProject;\r\n\t\tventureFusionPercentageInProject = _ventureFusionPercentageInProject;\r\n\t\ttransactionPriceInTokens = _transactionPriceInTokens;\r\n\t\tventureFusionOwnerAddress = _ventureFusionOwnerAddress;\r\n\t\tProjectSingleShareDivision = _singleShareDivision;\r\n\t}\r\n\t\r\n\t\r\n\t\r\n\t\r\n\t//-------------------------------------------------\r\n\t// Check that only venture fusion owner is calling this function\r\n\t//-------------------------------------------------\r\n\tmodifier onlyVentureFusionOwner() {\r\n\t\trequire(msg.sender == ventureFusionOwnerAddress);\r\n\t\t_;\r\n\t}\r\n\t\r\n\r\n\t//-------------------------------------------------\r\n\t// Change the percentages owned by incubator owner when creating a new project\r\n\t//-------------------------------------------------\r\n\tfunction changeIncubatorOwnerProjectPercentage(uint _projectPercentage) public onlyVentureFusionOwner {\t\r\n\t\temit changeIncubatorOwnerProjectPercentageEvent(incubatorOwnerPercentageInProject, _projectPercentage);\r\n\t\tincubatorOwnerPercentageInProject = _projectPercentage;\r\n\t}\r\n\t\r\n\t\r\n\t\r\n\t//-------------------------------------------------\r\n\t// Change the percentages owned by VentureFusion when creating a new project  \r\n\t//-------------------------------------------------\r\n\tfunction changeVentureFusionProjectPercentage(uint _projectPercentage) public onlyVentureFusionOwner {\t\r\n\t\temit changeVentureFusionProjectPercentageEvent(ventureFusionPercentageInProject, _projectPercentage);\r\n\t\tventureFusionPercentageInProject = _projectPercentage;\r\n\t}\r\n\t\r\n\t\r\n\t//-------------------------------------------------\r\n\t// This interface will be called by the VentureFusion admin and will set the number of tokens required to perform \r\n    // each transaction in this incubator. For exmaple to launch SellBuy shares needs 4 VET tokens  \t\r\n\t//-------------------------------------------------\r\n\tfunction changeVETTokenForTransactions(uint _transactionPriceInTokens) public onlyVentureFusionOwner {\r\n\t\temit changeVETTokenForTransactionsEvent(transactionPriceInTokens, _transactionPriceInTokens);\r\n\t\ttransactionPriceInTokens = _transactionPriceInTokens;\r\n\t}\r\n\r\n\r\n\t\r\n\t//-------------------------------------------------\r\n\t// This interface can be called by VentureFusion owner to set the decimal places in projects new projects \r\n\t// \r\n\t//-------------------------------------------------\r\n\tfunction changeProjectSingleShareDivision(uint _singleShareDivision) public onlyVentureFusionOwner {\r\n\t\temit changeProjectSingleShareDivisionEvent(ProjectSingleShareDivision, _singleShareDivision);\r\n\t\tProjectSingleShareDivision = _singleShareDivision;\r\n\t}\r\n\t\r\n\t\r\n\r\n\r\n\tprojectsStruct newProject;\r\n\t//-------------------------------------------------\r\n\t// Add new project.   This will create a new project within this incubator\r\n\t//-------------------------------------------------\r\n\tfunction addNewProject(string _projectName, address _projectOwner) \r\n\t\tpublic onlyOwner \r\n\t\treturns ( uint newProjectID, address projectAddress, string projectName )  \r\n\t{\r\n\t\taddress newProjectContract = new ProjectEquity(_projectOwner, owner, incubatorOwnerPercentageInProject, ventureFusionOwnerAddress, ventureFusionPercentageInProject, ProjectSingleShareDivision);\r\n\t\t\r\n\t\tnewProject = projectsStruct(_projectName, newProjectContract, ProjectSingleShareDivision, _projectOwner);\r\n\t\tincubatorProjects[numberOfProjectsInThisIncubator] = newProject;\r\n\r\n\t\t//set return values \r\n\t\tnewProjectID = numberOfProjectsInThisIncubator;\r\n\t\tprojectAddress = newProject.projectContractAddress;\r\n\t\tprojectName = _projectName;\r\n\t\t\r\n\t\t//transfer ownership to project owner\r\n\t\tnewProjectContract.call(bytes4(keccak256(\"transferOwnership(address)\")),_projectOwner);\r\n\t\t\r\n\t\temit ProjectCreatedEvent(_projectName, numberOfProjectsInThisIncubator);\r\n\t\t\r\n\t\t//increment the counter for next new project\r\n\t\tnumberOfProjectsInThisIncubator = numberOfProjectsInThisIncubator + 1;\r\n\t}\r\n\r\n\r\n}\r\n\r\n",
  "sourcePath": "F:\\Projects\\work\\VF\\blockchain\\contracts\\Incubator.sol",
  "compiler": {
    "name": "solc",
    "version": "0.4.24+commit.e67f0147.Emscripten.clang"
  },
  "schemaVersion": "2.0.1",
  "updatedAt": "2018-10-10T10:46:13.440Z"
}