{
  "contractName": "Incubator",
  "abi": [
    {
      "constant": true,
      "inputs": [
        {
          "name": "",
          "type": "uint256"
        }
      ],
      "name": "incubatorProjects",
      "outputs": [
        {
          "name": "projectName",
          "type": "string"
        },
        {
          "name": "projectContractAddress",
          "type": "address"
        },
        {
          "name": "ProjectSingleShareDivision",
          "type": "uint256"
        },
        {
          "name": "projectOwner",
          "type": "address"
        }
      ],
      "payable": false,
      "stateMutability": "view",
      "type": "function"
    },
    {
      "constant": true,
      "inputs": [],
      "name": "transactionPriceInTokens",
      "outputs": [
        {
          "name": "",
          "type": "uint256"
        }
      ],
      "payable": false,
      "stateMutability": "view",
      "type": "function"
    },
    {
      "constant": true,
      "inputs": [],
      "name": "ventureFusionPercentageInProject",
      "outputs": [
        {
          "name": "",
          "type": "uint256"
        }
      ],
      "payable": false,
      "stateMutability": "view",
      "type": "function"
    },
    {
      "constant": true,
      "inputs": [],
      "name": "incubatorOwnerPercentageInProject",
      "outputs": [
        {
          "name": "",
          "type": "uint256"
        }
      ],
      "payable": false,
      "stateMutability": "view",
      "type": "function"
    },
    {
      "constant": true,
      "inputs": [],
      "name": "ProjectSingleShareDivision",
      "outputs": [
        {
          "name": "",
          "type": "uint256"
        }
      ],
      "payable": false,
      "stateMutability": "view",
      "type": "function"
    },
    {
      "constant": false,
      "inputs": [],
      "name": "renounceOwnership",
      "outputs": [],
      "payable": false,
      "stateMutability": "nonpayable",
      "type": "function"
    },
    {
      "constant": true,
      "inputs": [],
      "name": "owner",
      "outputs": [
        {
          "name": "",
          "type": "address"
        }
      ],
      "payable": false,
      "stateMutability": "view",
      "type": "function"
    },
    {
      "constant": true,
      "inputs": [],
      "name": "numberOfProjectsInThisIncubator",
      "outputs": [
        {
          "name": "",
          "type": "uint256"
        }
      ],
      "payable": false,
      "stateMutability": "view",
      "type": "function"
    },
    {
      "constant": false,
      "inputs": [
        {
          "name": "_newOwner",
          "type": "address"
        }
      ],
      "name": "transferOwnership",
      "outputs": [],
      "payable": false,
      "stateMutability": "nonpayable",
      "type": "function"
    },
    {
      "inputs": [
        {
          "name": "_incubatorOwnerPercentageInProject",
          "type": "uint256"
        },
        {
          "name": "_ventureFusionPercentageInProject",
          "type": "uint256"
        },
        {
          "name": "_ventureFusionOwnerAddress",
          "type": "address"
        },
        {
          "name": "_transactionPriceInTokens",
          "type": "uint256"
        },
        {
          "name": "_singleShareDivision",
          "type": "uint256"
        }
      ],
      "payable": false,
      "stateMutability": "nonpayable",
      "type": "constructor"
    },
    {
      "anonymous": false,
      "inputs": [
        {
          "indexed": false,
          "name": "oldPercentage",
          "type": "uint256"
        },
        {
          "indexed": false,
          "name": "percentage",
          "type": "uint256"
        }
      ],
      "name": "changeIncubatorOwnerProjectPercentageEvent",
      "type": "event"
    },
    {
      "anonymous": false,
      "inputs": [
        {
          "indexed": false,
          "name": "oldPercentage",
          "type": "uint256"
        },
        {
          "indexed": false,
          "name": "percentage",
          "type": "uint256"
        }
      ],
      "name": "changeVentureFusionProjectPercentageEvent",
      "type": "event"
    },
    {
      "anonymous": false,
      "inputs": [
        {
          "indexed": false,
          "name": "oldPrice",
          "type": "uint256"
        },
        {
          "indexed": false,
          "name": "price",
          "type": "uint256"
        }
      ],
      "name": "changeVETTokenForTransactionsEvent",
      "type": "event"
    },
    {
      "anonymous": false,
      "inputs": [
        {
          "indexed": false,
          "name": "oldSingleShareDivision",
          "type": "uint256"
        },
        {
          "indexed": false,
          "name": "singleShareDivision",
          "type": "uint256"
        }
      ],
      "name": "changeProjectSingleShareDivisionEvent",
      "type": "event"
    },
    {
      "anonymous": false,
      "inputs": [
        {
          "indexed": false,
          "name": "ProjectID",
          "type": "uint256"
        },
        {
          "indexed": false,
          "name": "projectName",
          "type": "string"
        }
      ],
      "name": "ProjectCreatedEvent",
      "type": "event"
    },
    {
      "anonymous": false,
      "inputs": [
        {
          "indexed": true,
          "name": "previousOwner",
          "type": "address"
        }
      ],
      "name": "OwnershipRenounced",
      "type": "event"
    },
    {
      "anonymous": false,
      "inputs": [
        {
          "indexed": true,
          "name": "previousOwner",
          "type": "address"
        },
        {
          "indexed": true,
          "name": "newOwner",
          "type": "address"
        }
      ],
      "name": "OwnershipTransferred",
      "type": "event"
    },
    {
      "constant": false,
      "inputs": [
        {
          "name": "_projectPercentage",
          "type": "uint256"
        }
      ],
      "name": "changeIncubatorOwnerProjectPercentage",
      "outputs": [],
      "payable": false,
      "stateMutability": "nonpayable",
      "type": "function"
    },
    {
      "constant": false,
      "inputs": [
        {
          "name": "_projectPercentage",
          "type": "uint256"
        }
      ],
      "name": "changeVentureFusionProjectPercentage",
      "outputs": [],
      "payable": false,
      "stateMutability": "nonpayable",
      "type": "function"
    },
    {
      "constant": false,
      "inputs": [
        {
          "name": "_transactionPriceInTokens",
          "type": "uint256"
        }
      ],
      "name": "changeVETTokenForTransactions",
      "outputs": [],
      "payable": false,
      "stateMutability": "nonpayable",
      "type": "function"
    },
    {
      "constant": false,
      "inputs": [
        {
          "name": "_singleShareDivision",
          "type": "uint256"
        }
      ],
      "name": "changeProjectSingleShareDivision",
      "outputs": [],
      "payable": false,
      "stateMutability": "nonpayable",
      "type": "function"
    },
    {
      "constant": false,
      "inputs": [
        {
          "name": "_projectName",
          "type": "string"
        },
        {
          "name": "_projectOwner",
          "type": "address"
        }
      ],
      "name": "addNewProject",
      "outputs": [
        {
          "name": "newProjectID",
          "type": "uint256"
        },
        {
          "name": "projectAddress",
          "type": "address"
        },
        {
          "name": "projectName",
          "type": "string"
        }
      ],
      "payable": false,
      "stateMutability": "nonpayable",
      "type": "function"
    }
  ],
  "bytecode": "0x6080604052600060065534801561001557600080fd5b5060405160a0806147dd8339810180604052810190808051906020019092919080519060200190929190805190602001909291908051906020019092919080519060200190929190505050336000806101000a81548173ffffffffffffffffffffffffffffffffffffffff021916908373ffffffffffffffffffffffffffffffffffffffff16021790555084600181905550836002819055508160058190555082600460006101000a81548173ffffffffffffffffffffffffffffffffffffffff021916908373ffffffffffffffffffffffffffffffffffffffff1602179055508060038190555050505050506146cc806101116000396000f3006080604052600436106100d0576000357c0100000000000000000000000000000000000000000000000000000000900463ffffffff16806304f7fcc7146100d55780630b6b11a61461010257806335fec784146102155780633f5ed830146102425780636566962e1461026d57806368d101691461029857806369edc912146102c3578063715018a6146102ee57806384c74f4c146103055780638da5cb5b14610332578063a997332b14610389578063c7e05417146104c5578063d1a3f42f146104f2578063f2fde38b1461051d575b600080fd5b3480156100e157600080fd5b5061010060048036038101908080359060200190929190505050610560565b005b34801561010e57600080fd5b5061012d60048036038101908080359060200190929190505050610607565b60405180806020018573ffffffffffffffffffffffffffffffffffffffff1673ffffffffffffffffffffffffffffffffffffffff1681526020018481526020018373ffffffffffffffffffffffffffffffffffffffff1673ffffffffffffffffffffffffffffffffffffffff168152602001828103825286818151815260200191508051906020019080838360005b838110156101d75780820151818401526020810190506101bc565b50505050905090810190601f1680156102045780820380516001836020036101000a031916815260200191505b509550505050505060405180910390f35b34801561022157600080fd5b506102406004803603810190808035906020019092919050505061070f565b005b34801561024e57600080fd5b506102576107b6565b6040518082815260200191505060405180910390f35b34801561027957600080fd5b506102826107bc565b6040518082815260200191505060405180910390f35b3480156102a457600080fd5b506102ad6107c2565b6040518082815260200191505060405180910390f35b3480156102cf57600080fd5b506102d86107c8565b6040518082815260200191505060405180910390f35b3480156102fa57600080fd5b506103036107ce565b005b34801561031157600080fd5b50610330600480360381019080803590602001909291905050506108d0565b005b34801561033e57600080fd5b50610347610977565b604051808273ffffffffffffffffffffffffffffffffffffffff1673ffffffffffffffffffffffffffffffffffffffff16815260200191505060405180910390f35b34801561039557600080fd5b50610410600480360381019080803590602001908201803590602001908080601f0160208091040260200160405190810160405280939291908181526020018383808284378201915050505050509192919290803573ffffffffffffffffffffffffffffffffffffffff16906020019092919050505061099c565b604051808481526020018373ffffffffffffffffffffffffffffffffffffffff1673ffffffffffffffffffffffffffffffffffffffff16815260200180602001828103825283818151815260200191508051906020019080838360005b8381101561048857808201518184015260208101905061046d565b50505050905090810190601f1680156104b55780820380516001836020036101000a031916815260200191505b5094505050505060405180910390f35b3480156104d157600080fd5b506104f060048036038101908080359060200190929190505050610f22565b005b3480156104fe57600080fd5b50610507610fc9565b6040518082815260200191505060405180910390f35b34801561052957600080fd5b5061055e600480360381019080803573ffffffffffffffffffffffffffffffffffffffff169060200190929190505050610fcf565b005b600460009054906101000a900473ffffffffffffffffffffffffffffffffffffffff1673ffffffffffffffffffffffffffffffffffffffff163373ffffffffffffffffffffffffffffffffffffffff161415156105bc57600080fd5b7f6565af990940c7602d3fd6eed11762b60a8cfeef8dae79f5f9874d921406862a60035482604051808381526020018281526020019250505060405180910390a18060038190555050565b6007602052806000526040600020600091509050806000018054600181600116156101000203166002900480601f0160208091040260200160405190810160405280929190818152602001828054600181600116156101000203166002900480156106b35780601f10610688576101008083540402835291602001916106b3565b820191906000526020600020905b81548152906001019060200180831161069657829003601f168201915b5050505050908060010160009054906101000a900473ffffffffffffffffffffffffffffffffffffffff16908060020154908060030160009054906101000a900473ffffffffffffffffffffffffffffffffffffffff16905084565b600460009054906101000a900473ffffffffffffffffffffffffffffffffffffffff1673ffffffffffffffffffffffffffffffffffffffff163373ffffffffffffffffffffffffffffffffffffffff1614151561076b57600080fd5b7fbe1954d350f64b7d35c6203ac570bbf0e4b65e1ab72d099ade3a3a5440a171d860025482604051808381526020018281526020019250505060405180910390a18060028190555050565b60055481565b60025481565b60015481565b60035481565b6000809054906101000a900473ffffffffffffffffffffffffffffffffffffffff1673ffffffffffffffffffffffffffffffffffffffff163373ffffffffffffffffffffffffffffffffffffffff1614151561082957600080fd5b6000809054906101000a900473ffffffffffffffffffffffffffffffffffffffff1673ffffffffffffffffffffffffffffffffffffffff167ff8df31144d9c2f0f6b59d69b8b98abd5459d07f2742c4df920b25aae33c6482060405160405180910390a260008060006101000a81548173ffffffffffffffffffffffffffffffffffffffff021916908373ffffffffffffffffffffffffffffffffffffffff160217905550565b600460009054906101000a900473ffffffffffffffffffffffffffffffffffffffff1673ffffffffffffffffffffffffffffffffffffffff163373ffffffffffffffffffffffffffffffffffffffff1614151561092c57600080fd5b7f710753ea7152c80b8f0e4cf4129b26eff2ecc4477385791fb3df4fb89193b63260055482604051808381526020018281526020019250505060405180910390a18060058190555050565b6000809054906101000a900473ffffffffffffffffffffffffffffffffffffffff1681565b600080606060008060009054906101000a900473ffffffffffffffffffffffffffffffffffffffff1673ffffffffffffffffffffffffffffffffffffffff163373ffffffffffffffffffffffffffffffffffffffff161415156109fe57600080fd5b846000809054906101000a900473ffffffffffffffffffffffffffffffffffffffff16600154600460009054906101000a900473ffffffffffffffffffffffffffffffffffffffff16600254600354610a55611130565b808773ffffffffffffffffffffffffffffffffffffffff1673ffffffffffffffffffffffffffffffffffffffff1681526020018673ffffffffffffffffffffffffffffffffffffffff1673ffffffffffffffffffffffffffffffffffffffff1681526020018581526020018473ffffffffffffffffffffffffffffffffffffffff1673ffffffffffffffffffffffffffffffffffffffff1681526020018381526020018281526020019650505050505050604051809103906000f080158015610b22573d6000803e3d6000fd5b5090506080604051908101604052808781526020018273ffffffffffffffffffffffffffffffffffffffff16815260200160035481526020018673ffffffffffffffffffffffffffffffffffffffff1681525060086000820151816000019080519060200190610b93929190611141565b5060208201518160010160006101000a81548173ffffffffffffffffffffffffffffffffffffffff021916908373ffffffffffffffffffffffffffffffffffffffff1602179055506040820151816002015560608201518160030160006101000a81548173ffffffffffffffffffffffffffffffffffffffff021916908373ffffffffffffffffffffffffffffffffffffffff160217905550905050600860076000600654815260200190815260200160002060008201816000019080546001816001161561010002031660029004610c6d9291906111c1565b506001820160009054906101000a900473ffffffffffffffffffffffffffffffffffffffff168160010160006101000a81548173ffffffffffffffffffffffffffffffffffffffff021916908373ffffffffffffffffffffffffffffffffffffffff160217905550600282015481600201556003820160009054906101000a900473ffffffffffffffffffffffffffffffffffffffff168160030160006101000a81548173ffffffffffffffffffffffffffffffffffffffff021916908373ffffffffffffffffffffffffffffffffffffffff1602179055509050508073ffffffffffffffffffffffffffffffffffffffff1660405180807f7472616e736665724f776e657273686970286164647265737329000000000000815250601a01905060405180910390207c01000000000000000000000000000000000000000000000000000000009004866040518263ffffffff167c0100000000000000000000000000000000000000000000000000000000028152600401808273ffffffffffffffffffffffffffffffffffffffff1673ffffffffffffffffffffffffffffffffffffffff1681526020019150506000604051808303816000875af1925050501515610e3857600080fd5b7f32c32e7b567b27004c3ae86a451f7e31beb26fe5818700e163277ec03d318069600654876040518083815260200180602001828103825283818151815260200191508051906020019080838360005b83811015610ea3578082015181840152602081019050610e88565b50505050905090810190601f168015610ed05780820380516001836020036101000a031916815260200191505b50935050505060405180910390a16001600654016006819055506006549350600860010160009054906101000a900473ffffffffffffffffffffffffffffffffffffffff169250859150509250925092565b600460009054906101000a900473ffffffffffffffffffffffffffffffffffffffff1673ffffffffffffffffffffffffffffffffffffffff163373ffffffffffffffffffffffffffffffffffffffff16141515610f7e57600080fd5b7fecc942e849bf25d222972881c160298567463ddce4e4cac6cba1bc43807badb360015482604051808381526020018281526020019250505060405180910390a18060018190555050565b60065481565b6000809054906101000a900473ffffffffffffffffffffffffffffffffffffffff1673ffffffffffffffffffffffffffffffffffffffff163373ffffffffffffffffffffffffffffffffffffffff1614151561102a57600080fd5b61103381611036565b50565b600073ffffffffffffffffffffffffffffffffffffffff168173ffffffffffffffffffffffffffffffffffffffff161415151561107257600080fd5b8073ffffffffffffffffffffffffffffffffffffffff166000809054906101000a900473ffffffffffffffffffffffffffffffffffffffff1673ffffffffffffffffffffffffffffffffffffffff167f8be0079c531659141344cd1fd0a4f28419497f9722a3daafe3b4186f6b6457e060405160405180910390a3806000806101000a81548173ffffffffffffffffffffffffffffffffffffffff021916908373ffffffffffffffffffffffffffffffffffffffff16021790555050565b604051613433806200126e83390190565b828054600181600116156101000203166002900490600052602060002090601f016020900481019282601f1061118257805160ff19168380011785556111b0565b828001600101855582156111b0579182015b828111156111af578251825591602001919060010190611194565b5b5090506111bd9190611248565b5090565b828054600181600116156101000203166002900490600052602060002090601f016020900481019282601f106111fa5780548555611237565b8280016001018555821561123757600052602060002091601f016020900482015b8281111561123657825482559160010191906001019061121b565b5b5090506112449190611248565b5090565b61126a91905b8082111561126657600081600090555060010161124e565b5090565b9056006080604052600060045534801561001557600080fd5b5060405160c0806134338339810180604052810190808051906020019092919080519060200190929190805190602001909291908051906020019092919080519060200190929190805190602001909291905050506000336000806101000a81548173ffffffffffffffffffffffffffffffffffffffff021916908373ffffffffffffffffffffffffffffffffffffffff16021790555081606402905084600160008873ffffffffffffffffffffffffffffffffffffffff1673ffffffffffffffffffffffffffffffffffffffff1681526020019081526020016000208190555082600160008673ffffffffffffffffffffffffffffffffffffffff1673ffffffffffffffffffffffffffffffffffffffff1681526020019081526020016000208190555061015c838601826101b264010000000002611209179091906401000000009004565b600160008973ffffffffffffffffffffffffffffffffffffffff1673ffffffffffffffffffffffffffffffffffffffff1681526020019081526020016000208190555081600381905550505050505050506101cb565b60008282111515156101c057fe5b818303905092915050565b613259806101da6000396000f3006080604052600436106100ba576000357c0100000000000000000000000000000000000000000000000000000000900463ffffffff1680631740ea5c146100bf5780631c6c328314610154578063425e7b8c146101d95780634473ad5214610204578063523cf2371461025b57806369edc912146102c8578063715018a6146102f35780638da5cb5b1461030a5780638fcb4e5b146103615780639564c2f0146103c6578063a0aa69951461043d578063f2fde38b146104a2575b600080fd5b3480156100cb57600080fd5b5061013a600480360381019080803590602001908201803590602001908080601f016020809104026020016040519081016040528093929190818152602001838380828437820191505050505050919291929080359060200190929190803590602001909291905050506104e5565b604051808215151515815260200191505060405180910390f35b34801561016057600080fd5b506101bf600480360381019080803573ffffffffffffffffffffffffffffffffffffffff169060200190929190803573ffffffffffffffffffffffffffffffffffffffff1690602001909291908035906020019092919050505061088a565b604051808215151515815260200191505060405180910390f35b3480156101e557600080fd5b506101ee610c4a565b6040518082815260200191505060405180910390f35b34801561021057600080fd5b50610245600480360381019080803573ffffffffffffffffffffffffffffffffffffffff169060200190929190505050610c50565b6040518082815260200191505060405180910390f35b34801561026757600080fd5b5061028660048036038101908080359060200190929190505050610c99565b604051808273ffffffffffffffffffffffffffffffffffffffff1673ffffffffffffffffffffffffffffffffffffffff16815260200191505060405180910390f35b3480156102d457600080fd5b506102dd610cd7565b6040518082815260200191505060405180910390f35b3480156102ff57600080fd5b50610308610cdd565b005b34801561031657600080fd5b5061031f610ddf565b604051808273ffffffffffffffffffffffffffffffffffffffff1673ffffffffffffffffffffffffffffffffffffffff16815260200191505060405180910390f35b34801561036d57600080fd5b506103ac600480360381019080803573ffffffffffffffffffffffffffffffffffffffff16906020019092919080359060200190929190505050610e04565b604051808215151515815260200191505060405180910390f35b3480156103d257600080fd5b50610427600480360381019080803573ffffffffffffffffffffffffffffffffffffffff169060200190929190803573ffffffffffffffffffffffffffffffffffffffff169060200190929190505050611029565b6040518082815260200191505060405180910390f35b34801561044957600080fd5b50610488600480360381019080803573ffffffffffffffffffffffffffffffffffffffff169060200190929190803590602001909291905050506110b0565b604051808215151515815260200191505060405180910390f35b3480156104ae57600080fd5b506104e3600480360381019080803573ffffffffffffffffffffffffffffffffffffffff1690602001909291905050506111a2565b005b6000806000809054906101000a900473ffffffffffffffffffffffffffffffffffffffff1673ffffffffffffffffffffffffffffffffffffffff163373ffffffffffffffffffffffffffffffffffffffff1614151561054357600080fd5b8460008560008630610553611338565b80806020018773ffffffffffffffffffffffffffffffffffffffff1681526020018681526020018573ffffffffffffffffffffffffffffffffffffffff1681526020018481526020018373ffffffffffffffffffffffffffffffffffffffff1673ffffffffffffffffffffffffffffffffffffffff168152602001828103825288818151815260200191508051906020019080838360005b838110156106065780820151818401526020810190506105eb565b50505050905090810190601f1680156106335780820380516001836020036101000a031916815260200191505b50975050505050505050604051809103906000f080158015610659573d6000803e3d6000fd5b50905060058190806001815401808255809150509060018203906000526020600020016000909192909190916101000a81548173ffffffffffffffffffffffffffffffffffffffff021916908373ffffffffffffffffffffffffffffffffffffffff160217905550506001600454016004819055508073ffffffffffffffffffffffffffffffffffffffff1660405180807f7472616e736665724f776e657273686970286164647265737329000000000000815250601a01905060405180910390207c010000000000000000000000000000000000000000000000000000000090046000809054906101000a900473ffffffffffffffffffffffffffffffffffffffff166040518263ffffffff167c0100000000000000000000000000000000000000000000000000000000028152600401808273ffffffffffffffffffffffffffffffffffffffff1673ffffffffffffffffffffffffffffffffffffffff1681526020019150506000604051808303816000875af19250505015156107de57600080fd5b828401600260008060009054906101000a900473ffffffffffffffffffffffffffffffffffffffff1673ffffffffffffffffffffffffffffffffffffffff1673ffffffffffffffffffffffffffffffffffffffff16815260200190815260200160002060008373ffffffffffffffffffffffffffffffffffffffff1673ffffffffffffffffffffffffffffffffffffffff16815260200190815260200160002081905550509392505050565b6000600160008573ffffffffffffffffffffffffffffffffffffffff1673ffffffffffffffffffffffffffffffffffffffff1681526020019081526020016000205482111515156108da57600080fd5b600260008573ffffffffffffffffffffffffffffffffffffffff1673ffffffffffffffffffffffffffffffffffffffff16815260200190815260200160002060003373ffffffffffffffffffffffffffffffffffffffff1673ffffffffffffffffffffffffffffffffffffffff16815260200190815260200160002054821115151561096557600080fd5b600073ffffffffffffffffffffffffffffffffffffffff168373ffffffffffffffffffffffffffffffffffffffff16141515156109a157600080fd5b6109f382600160008773ffffffffffffffffffffffffffffffffffffffff1673ffffffffffffffffffffffffffffffffffffffff1681526020019081526020016000205461120990919063ffffffff16565b600160008673ffffffffffffffffffffffffffffffffffffffff1673ffffffffffffffffffffffffffffffffffffffff16815260200190815260200160002081905550610a8882600160008673ffffffffffffffffffffffffffffffffffffffff1673ffffffffffffffffffffffffffffffffffffffff1681526020019081526020016000205461122290919063ffffffff16565b600160008573ffffffffffffffffffffffffffffffffffffffff1673ffffffffffffffffffffffffffffffffffffffff16815260200190815260200160002081905550610b5a82600260008773ffffffffffffffffffffffffffffffffffffffff1673ffffffffffffffffffffffffffffffffffffffff16815260200190815260200160002060003373ffffffffffffffffffffffffffffffffffffffff1673ffffffffffffffffffffffffffffffffffffffff1681526020019081526020016000205461120990919063ffffffff16565b600260008673ffffffffffffffffffffffffffffffffffffffff1673ffffffffffffffffffffffffffffffffffffffff16815260200190815260200160002060003373ffffffffffffffffffffffffffffffffffffffff1673ffffffffffffffffffffffffffffffffffffffff168152602001908152602001600020819055508273ffffffffffffffffffffffffffffffffffffffff168473ffffffffffffffffffffffffffffffffffffffff167f9d9c909296d9c674451c0c24f02cb64981eb3b727f99865939192f880a755dcb846040518082815260200191505060405180910390a3600190509392505050565b60045481565b6000600160008373ffffffffffffffffffffffffffffffffffffffff1673ffffffffffffffffffffffffffffffffffffffff168152602001908152602001600020549050919050565b600581815481101515610ca857fe5b906000526020600020016000915054906101000a900473ffffffffffffffffffffffffffffffffffffffff1681565b60035481565b6000809054906101000a900473ffffffffffffffffffffffffffffffffffffffff1673ffffffffffffffffffffffffffffffffffffffff163373ffffffffffffffffffffffffffffffffffffffff16141515610d3857600080fd5b6000809054906101000a900473ffffffffffffffffffffffffffffffffffffffff1673ffffffffffffffffffffffffffffffffffffffff167ff8df31144d9c2f0f6b59d69b8b98abd5459d07f2742c4df920b25aae33c6482060405160405180910390a260008060006101000a81548173ffffffffffffffffffffffffffffffffffffffff021916908373ffffffffffffffffffffffffffffffffffffffff160217905550565b6000809054906101000a900473ffffffffffffffffffffffffffffffffffffffff1681565b6000600160003373ffffffffffffffffffffffffffffffffffffffff1673ffffffffffffffffffffffffffffffffffffffff168152602001908152602001600020548211151515610e5457600080fd5b600073ffffffffffffffffffffffffffffffffffffffff168373ffffffffffffffffffffffffffffffffffffffff1614151515610e9057600080fd5b610ee282600160003373ffffffffffffffffffffffffffffffffffffffff1673ffffffffffffffffffffffffffffffffffffffff1681526020019081526020016000205461120990919063ffffffff16565b600160003373ffffffffffffffffffffffffffffffffffffffff1673ffffffffffffffffffffffffffffffffffffffff16815260200190815260200160002081905550610f7782600160008673ffffffffffffffffffffffffffffffffffffffff1673ffffffffffffffffffffffffffffffffffffffff1681526020019081526020016000205461122290919063ffffffff16565b600160008573ffffffffffffffffffffffffffffffffffffffff1673ffffffffffffffffffffffffffffffffffffffff168152602001908152602001600020819055508273ffffffffffffffffffffffffffffffffffffffff163373ffffffffffffffffffffffffffffffffffffffff167f9d9c909296d9c674451c0c24f02cb64981eb3b727f99865939192f880a755dcb846040518082815260200191505060405180910390a36001905092915050565b6000600260008473ffffffffffffffffffffffffffffffffffffffff1673ffffffffffffffffffffffffffffffffffffffff16815260200190815260200160002060008373ffffffffffffffffffffffffffffffffffffffff1673ffffffffffffffffffffffffffffffffffffffff16815260200190815260200160002054905092915050565b600081600260003373ffffffffffffffffffffffffffffffffffffffff1673ffffffffffffffffffffffffffffffffffffffff16815260200190815260200160002060008573ffffffffffffffffffffffffffffffffffffffff1673ffffffffffffffffffffffffffffffffffffffff168152602001908152602001600020819055508273ffffffffffffffffffffffffffffffffffffffff163373ffffffffffffffffffffffffffffffffffffffff167ff782178947bb18718bebbe1961c554f5b10973aca733cba80290d723f0d2988e846040518082815260200191505060405180910390a36001905092915050565b6000809054906101000a900473ffffffffffffffffffffffffffffffffffffffff1673ffffffffffffffffffffffffffffffffffffffff163373ffffffffffffffffffffffffffffffffffffffff161415156111fd57600080fd5b6112068161123e565b50565b600082821115151561121757fe5b818303905092915050565b6000818301905082811015151561123557fe5b80905092915050565b600073ffffffffffffffffffffffffffffffffffffffff168173ffffffffffffffffffffffffffffffffffffffff161415151561127a57600080fd5b8073ffffffffffffffffffffffffffffffffffffffff166000809054906101000a900473ffffffffffffffffffffffffffffffffffffffff1673ffffffffffffffffffffffffffffffffffffffff167f8be0079c531659141344cd1fd0a4f28419497f9722a3daafe3b4186f6b6457e060405160405180910390a3806000806101000a81548173ffffffffffffffffffffffffffffffffffffffff021916908373ffffffffffffffffffffffffffffffffffffffff16021790555050565b604051611ee4806200134a83390190560060806040526000600560006101000a81548160ff0219169083151502179055506000600560016101000a81548160ff0219169083151502179055506000600760006101000a81548160ff0219169083151502179055506000600760016101000a81548160ff021916908315150217905550600060085560006009553480156200008757600080fd5b5060405162001ee438038062001ee4833981018060405281019080805182019291906020018051906020019092919080519060200190929190805190602001909291908051906020019092919080519060200190929190505050336000806101000a81548173ffffffffffffffffffffffffffffffffffffffff021916908373ffffffffffffffffffffffffffffffffffffffff16021790555085600190805190602001906200013992919062000217565b5084600360006101000a81548173ffffffffffffffffffffffffffffffffffffffff021916908373ffffffffffffffffffffffffffffffffffffffff160217905550836004819055508160068190555082600560026101000a81548173ffffffffffffffffffffffffffffffffffffffff021916908373ffffffffffffffffffffffffffffffffffffffff16021790555080600260006101000a81548173ffffffffffffffffffffffffffffffffffffffff021916908373ffffffffffffffffffffffffffffffffffffffff160217905550505050505050620002c6565b828054600181600116156101000203166002900490600052602060002090601f016020900481019282601f106200025a57805160ff19168380011785556200028b565b828001600101855582156200028b579182015b828111156200028a5782518255916020019190600101906200026d565b5b5090506200029a91906200029e565b5090565b620002c391905b80821115620002bf576000816000905550600101620002a5565b5090565b90565b611c0e80620002d66000396000f300608060405260043610610149576000357c0100000000000000000000000000000000000000000000000000000000900463ffffffff1680632124e4cc1461014e5780633804f0c0146101fb5780633a77c91a146102265780633a8bae841461028f5780633cf96af1146102a65780634a990c8b146102fd578063537dbb451461032c5780635a319a3a1461039557806361513264146103fe578063688e043314610471578063715018a6146104a057806372e0576a146104b757806379bd45111461050e578063856ff264146105775780638b65e252146105a65780638da5cb5b146105bd5780638fc3ceb414610614578063a66ba55114610643578063b74c379b14610686578063c0bcec46146106c9578063cde5b4e1146106f4578063d1a1542c1461074b578063d546c33d14610776578063f2fde38b146107df578063f7222aad14610822575b600080fd5b34801561015a57600080fd5b50610179600480360381019080803590602001909291905050506108b2565b6040518080602001838152602001828103825284818151815260200191508051906020019080838360005b838110156101bf5780820151818401526020810190506101a4565b50505050905090810190601f1680156101ec5780820380516001836020036101000a031916815260200191505b50935050505060405180910390f35b34801561020757600080fd5b5061021061096e565b6040518082815260200191505060405180910390f35b34801561023257600080fd5b5061028d600480360381019080803590602001908201803590602001908080601f0160208091040260200160405190810160405280939291908181526020018383808284378201915050505050509192919290505050610974565b005b34801561029b57600080fd5b506102a4610bba565b005b3480156102b257600080fd5b506102bb610ee7565b604051808273ffffffffffffffffffffffffffffffffffffffff1673ffffffffffffffffffffffffffffffffffffffff16815260200191505060405180910390f35b34801561030957600080fd5b50610312610f0d565b604051808215151515815260200191505060405180910390f35b34801561033857600080fd5b50610393600480360381019080803590602001908201803590602001908080601f0160208091040260200160405190810160405280939291908181526020018383808284378201915050505050509192919290505050610f20565b005b3480156103a157600080fd5b506103fc600480360381019080803590602001908201803590602001908080601f0160208091040260200160405190810160405280939291908181526020018383808284378201915050505050509192919290505050610fb5565b005b34801561040a57600080fd5b5061046f600480360381019080803590602001908201803590602001908080601f01602080910402602001604051908101604052809392919081815260200183838082843782019150505050505091929192908035906020019092919050505061106b565b005b34801561047d57600080fd5b50610486611108565b604051808215151515815260200191505060405180910390f35b3480156104ac57600080fd5b506104b561111b565b005b3480156104c357600080fd5b506104cc61121d565b604051808273ffffffffffffffffffffffffffffffffffffffff1673ffffffffffffffffffffffffffffffffffffffff16815260200191505060405180910390f35b34801561051a57600080fd5b50610575600480360381019080803590602001908201803590602001908080601f0160208091040260200160405190810160405280939291908181526020018383808284378201915050505050509192919290505050611243565b005b34801561058357600080fd5b5061058c6112f9565b604051808215151515815260200191505060405180910390f35b3480156105b257600080fd5b506105bb61130c565b005b3480156105c957600080fd5b506105d2611636565b604051808273ffffffffffffffffffffffffffffffffffffffff1673ffffffffffffffffffffffffffffffffffffffff16815260200191505060405180910390f35b34801561062057600080fd5b5061062961165b565b604051808215151515815260200191505060405180910390f35b34801561064f57600080fd5b50610684600480360381019080803573ffffffffffffffffffffffffffffffffffffffff16906020019092919050505061166e565b005b34801561069257600080fd5b506106c7600480360381019080803573ffffffffffffffffffffffffffffffffffffffff16906020019092919050505061172f565b005b3480156106d557600080fd5b506106de6117f0565b6040518082815260200191505060405180910390f35b34801561070057600080fd5b506107096117f6565b604051808273ffffffffffffffffffffffffffffffffffffffff1673ffffffffffffffffffffffffffffffffffffffff16815260200191505060405180910390f35b34801561075757600080fd5b5061076061181c565b6040518082815260200191505060405180910390f35b34801561078257600080fd5b506107dd600480360381019080803590602001908201803590602001908080601f0160208091040260200160405190810160405280939291908181526020018383808284378201915050505050509192919290505050611822565b005b3480156107eb57600080fd5b50610820600480360381019080803573ffffffffffffffffffffffffffffffffffffffff1690602001909291905050506118b7565b005b34801561082e57600080fd5b5061083761191e565b6040518080602001828103825283818151815260200191508051906020019080838360005b8381101561087757808201518184015260208101905061085c565b50505050905090810190601f1680156108a45780820380516001836020036101000a031916815260200191505b509250505060405180910390f35b600a602052806000526040600020600091509050806000018054600181600116156101000203166002900480601f01602080910402602001604051908101604052809291908181526020018280546001816001161561010002031660029004801561095e5780601f106109335761010080835404028352916020019161095e565b820191906000526020600020905b81548152906001019060200180831161094157829003601f168201915b5050505050908060010154905082565b60045481565b600360009054906101000a900473ffffffffffffffffffffffffffffffffffffffff1673ffffffffffffffffffffffffffffffffffffffff163373ffffffffffffffffffffffffffffffffffffffff161480610a1d5750600560029054906101000a900473ffffffffffffffffffffffffffffffffffffffff1673ffffffffffffffffffffffffffffffffffffffff163373ffffffffffffffffffffffffffffffffffffffff16145b80610a7457506000809054906101000a900473ffffffffffffffffffffffffffffffffffffffff1673ffffffffffffffffffffffffffffffffffffffff163373ffffffffffffffffffffffffffffffffffffffff16145b1515610a7f57600080fd5b6000809054906101000a900473ffffffffffffffffffffffffffffffffffffffff1673ffffffffffffffffffffffffffffffffffffffff163373ffffffffffffffffffffffffffffffffffffffff161415610add5760006008819055505b600360009054906101000a900473ffffffffffffffffffffffffffffffffffffffff1673ffffffffffffffffffffffffffffffffffffffff163373ffffffffffffffffffffffffffffffffffffffff161415610b3c5760016008819055505b600560029054906101000a900473ffffffffffffffffffffffffffffffffffffffff1673ffffffffffffffffffffffffffffffffffffffff163373ffffffffffffffffffffffffffffffffffffffff161415610b9b5760026008819055505b60008151111515610bab57600080fd5b610bb78160085461106b565b50565b60008060009054906101000a900473ffffffffffffffffffffffffffffffffffffffff1673ffffffffffffffffffffffffffffffffffffffff163373ffffffffffffffffffffffffffffffffffffffff16141515610c1757600080fd5b6001600760006101000a81548160ff02191690831515021790551515610c3c57600080fd5b60001515600760019054906101000a900460ff161515141515610c5e57600080fd5b600260009054906101000a900473ffffffffffffffffffffffffffffffffffffffff1690508073ffffffffffffffffffffffffffffffffffffffff16631c6c32836000809054906101000a900473ffffffffffffffffffffffffffffffffffffffff16600560029054906101000a900473ffffffffffffffffffffffffffffffffffffffff166006546040518463ffffffff167c0100000000000000000000000000000000000000000000000000000000028152600401808473ffffffffffffffffffffffffffffffffffffffff1673ffffffffffffffffffffffffffffffffffffffff1681526020018373ffffffffffffffffffffffffffffffffffffffff1673ffffffffffffffffffffffffffffffffffffffff1681526020018281526020019350505050602060405180830381600087803b158015610d9f57600080fd5b505af1158015610db3573d6000803e3d6000fd5b505050506040513d6020811015610dc957600080fd5b81019080805190602001909291905050501515610de557600080fd5b6001600760016101000a81548160ff0219169083151502179055507f2e8f320f26e1408a887da348ca3e09c9a8b4ac4fdf759aaa8fc94bef12bb59296000809054906101000a900473ffffffffffffffffffffffffffffffffffffffff16600560029054906101000a900473ffffffffffffffffffffffffffffffffffffffff16600654604051808473ffffffffffffffffffffffffffffffffffffffff1673ffffffffffffffffffffffffffffffffffffffff1681526020018373ffffffffffffffffffffffffffffffffffffffff1673ffffffffffffffffffffffffffffffffffffffff168152602001828152602001935050505060405180910390a150565b600260009054906101000a900473ffffffffffffffffffffffffffffffffffffffff1681565b600560009054906101000a900460ff1681565b600560029054906101000a900473ffffffffffffffffffffffffffffffffffffffff1673ffffffffffffffffffffffffffffffffffffffff163373ffffffffffffffffffffffffffffffffffffffff16141515610f7c57600080fd5b60008151111515610f8c57600080fd5b6001600760006101000a81548160ff021916908315150217905550610fb281600361106b565b50565b6000809054906101000a900473ffffffffffffffffffffffffffffffffffffffff1673ffffffffffffffffffffffffffffffffffffffff163373ffffffffffffffffffffffffffffffffffffffff1614151561101057600080fd5b60011515600760009054906101000a900460ff16151514151561103257600080fd5b6000815111151561104257600080fd5b6000600760006101000a81548160ff02191690831515021790555061106881600161106b565b50565b604080519081016040528083815260200182815250600b600082015181600001908051906020019061109e929190611ab6565b5060208201518160010155905050600b600a60006009548152602001908152602001600020600082018160000190805460018160011615610100020316600290046110ea929190611b36565b50600182015481600101559050506001600954016009819055505050565b600560019054906101000a900460ff1681565b6000809054906101000a900473ffffffffffffffffffffffffffffffffffffffff1673ffffffffffffffffffffffffffffffffffffffff163373ffffffffffffffffffffffffffffffffffffffff1614151561117657600080fd5b6000809054906101000a900473ffffffffffffffffffffffffffffffffffffffff1673ffffffffffffffffffffffffffffffffffffffff167ff8df31144d9c2f0f6b59d69b8b98abd5459d07f2742c4df920b25aae33c6482060405160405180910390a260008060006101000a81548173ffffffffffffffffffffffffffffffffffffffff021916908373ffffffffffffffffffffffffffffffffffffffff160217905550565b600560029054906101000a900473ffffffffffffffffffffffffffffffffffffffff1681565b6000809054906101000a900473ffffffffffffffffffffffffffffffffffffffff1673ffffffffffffffffffffffffffffffffffffffff163373ffffffffffffffffffffffffffffffffffffffff1614151561129e57600080fd5b60011515600560009054906101000a900460ff1615151415156112c057600080fd5b600081511115156112d057600080fd5b6000600560006101000a81548160ff0219169083151502179055506112f681600161106b565b50565b600760019054906101000a900460ff1681565b60008060009054906101000a900473ffffffffffffffffffffffffffffffffffffffff1673ffffffffffffffffffffffffffffffffffffffff163373ffffffffffffffffffffffffffffffffffffffff1614151561136957600080fd5b60011515600560009054906101000a900460ff16151514151561138b57600080fd5b60001515600560019054906101000a900460ff1615151415156113ad57600080fd5b600260009054906101000a900473ffffffffffffffffffffffffffffffffffffffff1690508073ffffffffffffffffffffffffffffffffffffffff16631c6c32836000809054906101000a900473ffffffffffffffffffffffffffffffffffffffff16600360009054906101000a900473ffffffffffffffffffffffffffffffffffffffff166004546040518463ffffffff167c0100000000000000000000000000000000000000000000000000000000028152600401808473ffffffffffffffffffffffffffffffffffffffff1673ffffffffffffffffffffffffffffffffffffffff1681526020018373ffffffffffffffffffffffffffffffffffffffff1673ffffffffffffffffffffffffffffffffffffffff1681526020018281526020019350505050602060405180830381600087803b1580156114ee57600080fd5b505af1158015611502573d6000803e3d6000fd5b505050506040513d602081101561151857600080fd5b8101908080519060200190929190505050151561153457600080fd5b6001600560016101000a81548160ff0219169083151502179055507f2e705641ef3838701162829c9931a82fbb60ea6b84992d297d1654cc31ce0d8b6000809054906101000a900473ffffffffffffffffffffffffffffffffffffffff16600360009054906101000a900473ffffffffffffffffffffffffffffffffffffffff16600454604051808473ffffffffffffffffffffffffffffffffffffffff1673ffffffffffffffffffffffffffffffffffffffff1681526020018373ffffffffffffffffffffffffffffffffffffffff1673ffffffffffffffffffffffffffffffffffffffff168152602001828152602001935050505060405180910390a150565b6000809054906101000a900473ffffffffffffffffffffffffffffffffffffffff1681565b600760009054906101000a900460ff1681565b6000809054906101000a900473ffffffffffffffffffffffffffffffffffffffff1673ffffffffffffffffffffffffffffffffffffffff163373ffffffffffffffffffffffffffffffffffffffff161415156116c957600080fd5b60001515600760019054906101000a900460ff1615151415156116eb57600080fd5b80600560026101000a81548173ffffffffffffffffffffffffffffffffffffffff021916908373ffffffffffffffffffffffffffffffffffffffff16021790555050565b6000809054906101000a900473ffffffffffffffffffffffffffffffffffffffff1673ffffffffffffffffffffffffffffffffffffffff163373ffffffffffffffffffffffffffffffffffffffff1614151561178a57600080fd5b60001515600560019054906101000a900460ff1615151415156117ac57600080fd5b80600360006101000a81548173ffffffffffffffffffffffffffffffffffffffff021916908373ffffffffffffffffffffffffffffffffffffffff16021790555050565b60065481565b600360009054906101000a900473ffffffffffffffffffffffffffffffffffffffff1681565b60095481565b600360009054906101000a900473ffffffffffffffffffffffffffffffffffffffff1673ffffffffffffffffffffffffffffffffffffffff163373ffffffffffffffffffffffffffffffffffffffff1614151561187e57600080fd5b6000815111151561188e57600080fd5b6001600560006101000a81548160ff0219169083151502179055506118b481600261106b565b50565b6000809054906101000a900473ffffffffffffffffffffffffffffffffffffffff1673ffffffffffffffffffffffffffffffffffffffff163373ffffffffffffffffffffffffffffffffffffffff1614151561191257600080fd5b61191b816119bc565b50565b60018054600181600116156101000203166002900480601f0160208091040260200160405190810160405280929190818152602001828054600181600116156101000203166002900480156119b45780601f10611989576101008083540402835291602001916119b4565b820191906000526020600020905b81548152906001019060200180831161199757829003601f168201915b505050505081565b600073ffffffffffffffffffffffffffffffffffffffff168173ffffffffffffffffffffffffffffffffffffffff16141515156119f857600080fd5b8073ffffffffffffffffffffffffffffffffffffffff166000809054906101000a900473ffffffffffffffffffffffffffffffffffffffff1673ffffffffffffffffffffffffffffffffffffffff167f8be0079c531659141344cd1fd0a4f28419497f9722a3daafe3b4186f6b6457e060405160405180910390a3806000806101000a81548173ffffffffffffffffffffffffffffffffffffffff021916908373ffffffffffffffffffffffffffffffffffffffff16021790555050565b828054600181600116156101000203166002900490600052602060002090601f016020900481019282601f10611af757805160ff1916838001178555611b25565b82800160010185558215611b25579182015b82811115611b24578251825591602001919060010190611b09565b5b509050611b329190611bbd565b5090565b828054600181600116156101000203166002900490600052602060002090601f016020900481019282601f10611b6f5780548555611bac565b82800160010185558215611bac57600052602060002091601f016020900482015b82811115611bab578254825591600101919060010190611b90565b5b509050611bb99190611bbd565b5090565b611bdf91905b80821115611bdb576000816000905550600101611bc3565b5090565b905600a165627a7a72305820444c7f8c75ec3133fc1b89ca3ec1f9e220694ed769cd82f06722c604d3a1e7080029a165627a7a72305820aeff4b5cdd2b47019e149eb71cd6ccd98ddd69d1825560fdf3f344309d49b8fa0029a165627a7a723058209c429c0bb13b746b0a99965e13d4cf3625d9845c252ac195d0e1bcc7fce4785b0029",
  "source": "pragma solidity ^0.4.24;\r\n\r\nimport './contracts/ownership/Ownable.sol';\r\nimport './ProjectEquity.sol';\r\n\r\ncontract Incubator is Ownable {\r\n\t\r\n\tuint public incubatorOwnerPercentageInProject;\t\r\n\tuint public ventureFusionPercentageInProject;\r\n\tuint public ProjectSingleShareDivision;\r\n\t\r\n\taddress internal ventureFusionOwnerAddress;\t\r\n\tuint public transactionPriceInTokens;\r\n\t\r\n\t//-----------------------------------------------------------------------------------------------------\r\n\t// Incubator projects collection, Project structure and number of projects in this incubator. \r\n\t// numberOfProjectsInThisIncubator contains number of projects in this incubator and this is 0 based\r\n\t// which means if value is 1 then first project contract is at 0 index in the mapping \r\n\t//-----------------------------------------------------------------------------------------------------\r\n\tuint public numberOfProjectsInThisIncubator = 0;   \r\n\tstruct projectsStruct {             \t\t\t\t\r\n\t\tstring projectName;\r\n\t\taddress projectContractAddress;\r\n\t\tuint ProjectSingleShareDivision;\r\n\t\taddress projectOwner;\r\n\t}\r\n\tmapping (uint => projectsStruct) public incubatorProjects; \r\n\r\n\t//-----------------------------------------------------------------------------------------------------\r\n\t// Events in this contract \r\n\t//-----------------------------------------------------------------------------------------------------\r\n\tevent changeIncubatorOwnerProjectPercentageEvent(uint oldPercentage, uint percentage);\r\n\tevent changeVentureFusionProjectPercentageEvent(uint oldPercentage, uint percentage);\r\n\tevent changeVETTokenForTransactionsEvent(uint oldPrice, uint price);\r\n\tevent changeProjectSingleShareDivisionEvent(uint oldSingleShareDivision, uint singleShareDivision);\t\r\n\tevent ProjectCreatedEvent(uint ProjectID, string projectName);\r\n\t\r\n\t\r\n\t\r\n\t// Contract Constructor \r\n\tconstructor( \r\n\t     uint _incubatorOwnerPercentageInProject, \r\n\t\t uint _ventureFusionPercentageInProject,\r\n\t\t address _ventureFusionOwnerAddress,\r\n\t\t uint _transactionPriceInTokens,\r\n\t\t uint _singleShareDivision) \r\n    public \r\n    {\r\n\t\tincubatorOwnerPercentageInProject = _incubatorOwnerPercentageInProject;\r\n\t\tventureFusionPercentageInProject = _ventureFusionPercentageInProject;\r\n\t\ttransactionPriceInTokens = _transactionPriceInTokens;\r\n\t\tventureFusionOwnerAddress = _ventureFusionOwnerAddress;\r\n\t\tProjectSingleShareDivision = _singleShareDivision;\r\n\t}\r\n\t\r\n\t\r\n\t\r\n\t\r\n\t//-------------------------------------------------\r\n\t// Check that only venture fusion owner is calling this function\r\n\t//-------------------------------------------------\r\n\tmodifier onlyVentureFusionOwner() {\r\n\t\trequire(msg.sender == ventureFusionOwnerAddress);\r\n\t\t_;\r\n\t}\r\n\t\r\n\r\n\t//---------------------------------------------------------------------------------\r\n\t// Change the percentages owned by incubator owner when creating a new project\r\n\t//---------------------------------------------------------------------------------\r\n\tfunction changeIncubatorOwnerProjectPercentage(uint _projectPercentage) public onlyVentureFusionOwner {\t\r\n\t\temit changeIncubatorOwnerProjectPercentageEvent(incubatorOwnerPercentageInProject, _projectPercentage);\r\n\t\tincubatorOwnerPercentageInProject = _projectPercentage;\r\n\t}\r\n\t\r\n\t\r\n\t//---------------------------------------------------------------------------------\r\n\t// Change the percentages owned by VentureFusion when creating a new project  \r\n\t//---------------------------------------------------------------------------------\r\n\tfunction changeVentureFusionProjectPercentage(uint _projectPercentage) public onlyVentureFusionOwner {\t\r\n\t\temit changeVentureFusionProjectPercentageEvent(ventureFusionPercentageInProject, _projectPercentage);\r\n\t\tventureFusionPercentageInProject = _projectPercentage;\r\n\t}\r\n\t\r\n\t\r\n\t//-------------------------------------------------------------------------------------------------------------\r\n\t// This interface will be called by the VentureFusion admin and will set the number of tokens required to perform \r\n    // each transaction in this incubator. For exmaple to launch SellBuy shares needs 4 VET tokens  \t\r\n\t//-------------------------------------------------------------------------------------------------------------\r\n\tfunction changeVETTokenForTransactions(uint _transactionPriceInTokens) public onlyVentureFusionOwner {\r\n\t\temit changeVETTokenForTransactionsEvent(transactionPriceInTokens, _transactionPriceInTokens);\r\n\t\ttransactionPriceInTokens = _transactionPriceInTokens;\r\n\t}\r\n\r\n\t\r\n\t\r\n\t//-------------------------------------------------------------------------------------------------------------\r\n\t// This interface can be called by VentureFusion owner to set the decimal places for new projects \r\n\t//-------------------------------------------------------------------------------------------------------------\r\n\tfunction changeProjectSingleShareDivision(uint _singleShareDivision) public onlyVentureFusionOwner {\r\n\t\temit changeProjectSingleShareDivisionEvent(ProjectSingleShareDivision, _singleShareDivision);\r\n\t\tProjectSingleShareDivision = _singleShareDivision;\r\n\t}\r\n\t\r\n\t\r\n\r\n\t//-----------------------------------------------------------------------------------------\r\n\t// Add new project.   This interface will create a new project within this incubator\r\n\t//-----------------------------------------------------------------------------------------\r\n\tprojectsStruct newProject;\r\n\tfunction addNewProject(string _projectName, address _projectOwner) \r\n\t\tpublic onlyOwner \r\n\t\treturns ( uint newProjectID, address projectAddress, string projectName )  \r\n\t{\r\n\t\t//Create new project contract\r\n\t\taddress newProjectContract = new ProjectEquity(_projectOwner, owner, incubatorOwnerPercentageInProject, ventureFusionOwnerAddress, ventureFusionPercentageInProject, ProjectSingleShareDivision);\r\n\t\t\r\n\t\t//Create project structure object and add it to projects collection\r\n\t\tnewProject = projectsStruct(_projectName, newProjectContract, ProjectSingleShareDivision, _projectOwner);\r\n\t\tincubatorProjects[numberOfProjectsInThisIncubator] = newProject;\r\n\t\t\r\n\t\t//Transfer ownership to project owner\r\n\t\trequire(newProjectContract.call(bytes4(keccak256(\"transferOwnership(address)\")),_projectOwner));\r\n\t\t\r\n\t\t//Emit event that project has been created \r\n\t\temit ProjectCreatedEvent(numberOfProjectsInThisIncubator, _projectName);\r\n\t\t\r\n\t\t//Increment counter for next new project\r\n\t\tnumberOfProjectsInThisIncubator = numberOfProjectsInThisIncubator + 1;\r\n\t\t\r\n\t\t//Set return values of this function \r\n\t\tnewProjectID = numberOfProjectsInThisIncubator;\r\n\t\tprojectAddress = newProject.projectContractAddress;\r\n\t\tprojectName = _projectName;\r\n\t\t\r\n\t}\r\n\r\n\r\n}\r\n\r\n",
  "sourcePath": "F:\\Projects\\work\\VF\\blockchain\\contracts\\Incubator.sol",
  "compiler": {
    "name": "solc",
    "version": "0.4.24+commit.e67f0147.Emscripten.clang"
  },
  "schemaVersion": "2.0.1",
  "updatedAt": "2018-10-15T09:20:09.009Z"
}