{
  "contractName": "Incubator",
  "abi": [
    {
      "constant": true,
      "inputs": [
        {
          "name": "",
          "type": "uint256"
        }
      ],
      "name": "incubatorProjects",
      "outputs": [
        {
          "name": "projectName",
          "type": "string"
        },
        {
          "name": "projectContractAddress",
          "type": "address"
        }
      ],
      "payable": false,
      "stateMutability": "view",
      "type": "function"
    },
    {
      "constant": true,
      "inputs": [],
      "name": "transactionPriceInTokens",
      "outputs": [
        {
          "name": "",
          "type": "uint256"
        }
      ],
      "payable": false,
      "stateMutability": "view",
      "type": "function"
    },
    {
      "constant": true,
      "inputs": [],
      "name": "ventureFusionPercentageInProject",
      "outputs": [
        {
          "name": "",
          "type": "uint256"
        }
      ],
      "payable": false,
      "stateMutability": "view",
      "type": "function"
    },
    {
      "constant": false,
      "inputs": [],
      "name": "renounceOwnership",
      "outputs": [],
      "payable": false,
      "stateMutability": "nonpayable",
      "type": "function"
    },
    {
      "constant": true,
      "inputs": [],
      "name": "owner",
      "outputs": [
        {
          "name": "",
          "type": "address"
        }
      ],
      "payable": false,
      "stateMutability": "view",
      "type": "function"
    },
    {
      "constant": true,
      "inputs": [],
      "name": "numberOfProjectsInThisIncubator",
      "outputs": [
        {
          "name": "",
          "type": "uint256"
        }
      ],
      "payable": false,
      "stateMutability": "view",
      "type": "function"
    },
    {
      "constant": false,
      "inputs": [
        {
          "name": "_newOwner",
          "type": "address"
        }
      ],
      "name": "transferOwnership",
      "outputs": [],
      "payable": false,
      "stateMutability": "nonpayable",
      "type": "function"
    },
    {
      "inputs": [
        {
          "name": "_projectPercentage",
          "type": "uint256"
        },
        {
          "name": "_transactionPriceInTokens",
          "type": "uint256"
        }
      ],
      "payable": false,
      "stateMutability": "nonpayable",
      "type": "constructor"
    },
    {
      "anonymous": false,
      "inputs": [
        {
          "indexed": true,
          "name": "previousOwner",
          "type": "address"
        }
      ],
      "name": "OwnershipRenounced",
      "type": "event"
    },
    {
      "anonymous": false,
      "inputs": [
        {
          "indexed": true,
          "name": "previousOwner",
          "type": "address"
        },
        {
          "indexed": true,
          "name": "newOwner",
          "type": "address"
        }
      ],
      "name": "OwnershipTransferred",
      "type": "event"
    },
    {
      "constant": false,
      "inputs": [
        {
          "name": "_projectPercentage",
          "type": "uint256"
        }
      ],
      "name": "changeProjectPercentage",
      "outputs": [],
      "payable": false,
      "stateMutability": "nonpayable",
      "type": "function"
    },
    {
      "constant": false,
      "inputs": [
        {
          "name": "_transactionPriceInTokens",
          "type": "uint256"
        }
      ],
      "name": "setVETTokenTransactionPrice",
      "outputs": [],
      "payable": false,
      "stateMutability": "nonpayable",
      "type": "function"
    },
    {
      "constant": false,
      "inputs": [
        {
          "name": "_projectName",
          "type": "string"
        }
      ],
      "name": "addNewProject",
      "outputs": [
        {
          "name": "newProjectID",
          "type": "uint256"
        },
        {
          "name": "projectAddress",
          "type": "address"
        }
      ],
      "payable": false,
      "stateMutability": "nonpayable",
      "type": "function"
    }
  ],
  "bytecode": "0x6080604052600060035534801561001557600080fd5b50604051604080610b8c8339810180604052810190808051906020019092919080519060200190929190505050336000806101000a81548173ffffffffffffffffffffffffffffffffffffffff021916908373ffffffffffffffffffffffffffffffffffffffff1602179055505050610af9806100936000396000f3006080604052600436106100a4576000357c0100000000000000000000000000000000000000000000000000000000900463ffffffff16806302148ef7146100a95780630b6b11a6146100d65780633f5ed830146101af5780635446a29a146101da5780636566962e14610207578063715018a6146102325780638da5cb5b14610249578063d1a3f42f146102a0578063def18c08146102cb578063f2fde38b1461037b575b600080fd5b3480156100b557600080fd5b506100d4600480360381019080803590602001909291905050506103be565b005b3480156100e257600080fd5b5061010160048036038101908080359060200190929190505050610423565b60405180806020018373ffffffffffffffffffffffffffffffffffffffff1673ffffffffffffffffffffffffffffffffffffffff168152602001828103825284818151815260200191508051906020019080838360005b83811015610173578082015181840152602081019050610158565b50505050905090810190601f1680156101a05780820380516001836020036101000a031916815260200191505b50935050505060405180910390f35b3480156101bb57600080fd5b506101c46104ff565b6040518082815260200191505060405180910390f35b3480156101e657600080fd5b5061020560048036038101908080359060200190929190505050610505565b005b34801561021357600080fd5b5061021c61056a565b6040518082815260200191505060405180910390f35b34801561023e57600080fd5b50610247610570565b005b34801561025557600080fd5b5061025e610672565b604051808273ffffffffffffffffffffffffffffffffffffffff1673ffffffffffffffffffffffffffffffffffffffff16815260200191505060405180910390f35b3480156102ac57600080fd5b506102b5610697565b6040518082815260200191505060405180910390f35b3480156102d757600080fd5b50610332600480360381019080803590602001908201803590602001908080601f016020809104026020016040519081016040528093929190818152602001838380828437820191505050505050919291929050505061069d565b604051808381526020018273ffffffffffffffffffffffffffffffffffffffff1673ffffffffffffffffffffffffffffffffffffffff1681526020019250505060405180910390f35b34801561038757600080fd5b506103bc600480360381019080803573ffffffffffffffffffffffffffffffffffffffff169060200190929190505050610840565b005b6000809054906101000a900473ffffffffffffffffffffffffffffffffffffffff1673ffffffffffffffffffffffffffffffffffffffff163373ffffffffffffffffffffffffffffffffffffffff1614151561041957600080fd5b8060028190555050565b6004602052806000526040600020600091509050806000018054600181600116156101000203166002900480601f0160208091040260200160405190810160405280929190818152602001828054600181600116156101000203166002900480156104cf5780601f106104a4576101008083540402835291602001916104cf565b820191906000526020600020905b8154815290600101906020018083116104b257829003601f168201915b5050505050908060010160009054906101000a900473ffffffffffffffffffffffffffffffffffffffff16905082565b60025481565b6000809054906101000a900473ffffffffffffffffffffffffffffffffffffffff1673ffffffffffffffffffffffffffffffffffffffff163373ffffffffffffffffffffffffffffffffffffffff1614151561056057600080fd5b8060018190555050565b60015481565b6000809054906101000a900473ffffffffffffffffffffffffffffffffffffffff1673ffffffffffffffffffffffffffffffffffffffff163373ffffffffffffffffffffffffffffffffffffffff161415156105cb57600080fd5b6000809054906101000a900473ffffffffffffffffffffffffffffffffffffffff1673ffffffffffffffffffffffffffffffffffffffff167ff8df31144d9c2f0f6b59d69b8b98abd5459d07f2742c4df920b25aae33c6482060405160405180910390a260008060006101000a81548173ffffffffffffffffffffffffffffffffffffffff021916908373ffffffffffffffffffffffffffffffffffffffff160217905550565b6000809054906101000a900473ffffffffffffffffffffffffffffffffffffffff1681565b60035481565b60008060008060009054906101000a900473ffffffffffffffffffffffffffffffffffffffff1673ffffffffffffffffffffffffffffffffffffffff163373ffffffffffffffffffffffffffffffffffffffff161415156106fd57600080fd5b838160000190805190602001906107159291906109a1565b5060008160010160006101000a81548173ffffffffffffffffffffffffffffffffffffffff021916908373ffffffffffffffffffffffffffffffffffffffff1602179055508060046000600354815260200190815260200160002060008201816000019080546001816001161561010002031660029004610797929190610a21565b506001820160009054906101000a900473ffffffffffffffffffffffffffffffffffffffff168160010160006101000a81548173ffffffffffffffffffffffffffffffffffffffff021916908373ffffffffffffffffffffffffffffffffffffffff16021790555090505060035492508060010160009054906101000a900473ffffffffffffffffffffffffffffffffffffffff16915060016003540160038190555050915091565b6000809054906101000a900473ffffffffffffffffffffffffffffffffffffffff1673ffffffffffffffffffffffffffffffffffffffff163373ffffffffffffffffffffffffffffffffffffffff1614151561089b57600080fd5b6108a4816108a7565b50565b600073ffffffffffffffffffffffffffffffffffffffff168173ffffffffffffffffffffffffffffffffffffffff16141515156108e357600080fd5b8073ffffffffffffffffffffffffffffffffffffffff166000809054906101000a900473ffffffffffffffffffffffffffffffffffffffff1673ffffffffffffffffffffffffffffffffffffffff167f8be0079c531659141344cd1fd0a4f28419497f9722a3daafe3b4186f6b6457e060405160405180910390a3806000806101000a81548173ffffffffffffffffffffffffffffffffffffffff021916908373ffffffffffffffffffffffffffffffffffffffff16021790555050565b828054600181600116156101000203166002900490600052602060002090601f016020900481019282601f106109e257805160ff1916838001178555610a10565b82800160010185558215610a10579182015b82811115610a0f5782518255916020019190600101906109f4565b5b509050610a1d9190610aa8565b5090565b828054600181600116156101000203166002900490600052602060002090601f016020900481019282601f10610a5a5780548555610a97565b82800160010185558215610a9757600052602060002091601f016020900482015b82811115610a96578254825591600101919060010190610a7b565b5b509050610aa49190610aa8565b5090565b610aca91905b80821115610ac6576000816000905550600101610aae565b5090565b905600a165627a7a72305820a9a0aa5a4a6fd16abedb2fbddb5ce2b0b716c21a81c513423595fe2814ce5aa40029",
  "source": "pragma solidity ^0.4.24;\r\n\r\nimport './contracts/ownership/Ownable.sol';\r\n\r\ncontract Incubator is Ownable {\r\n\t\r\n\tuint public ventureFusionPercentageInProject;\r\n\tuint public transactionPriceInTokens;\r\n\t\r\n\t\r\n\tuint public numberOfProjectsInThisIncubator = 0;   //current number of project in this incubator\r\n\tstruct projectsStruct {             //project structure\r\n\t\tstring projectName;\r\n\t\taddress projectContractAddress;\r\n\t}\r\n\tmapping (uint => projectsStruct) public incubatorProjects;     //mapping of projects\r\n\t\r\n\t\r\n\t\r\n\tconstructor(uint _projectPercentage, uint _transactionPriceInTokens) public {\r\n\t\t\r\n\t}\r\n\t\r\n\t\r\n\t//-------------------------------------------------\r\n\t// Change the percentages owned by VentureFusion when creating a new project  \r\n\t//-------------------------------------------------\r\n\tfunction changeProjectPercentage(uint _projectPercentage) public onlyOwner {\t\r\n\t\tventureFusionPercentageInProject = _projectPercentage;\r\n\t}\r\n\t\r\n\t\r\n\t//-------------------------------------------------\r\n\t// This interface will be called by the VentureFusion admin and will set the number of tokens required to perform \r\n    // each transaction in this incubator. For exmaple to launch SellBuy shares needs 4 VET tokens  \t\r\n\t//-------------------------------------------------\r\n\tfunction setVETTokenTransactionPrice(uint _transactionPriceInTokens) public onlyOwner {\r\n\t\ttransactionPriceInTokens = _transactionPriceInTokens;\r\n\t}\r\n\r\n\t\r\n\t//-------------------------------------------------\r\n\t// Add new project.   This will create a new project within this incubator\r\n\t//-------------------------------------------------\r\n\tfunction addNewProject(string _projectName) \r\n\t\tpublic onlyOwner \r\n\t\treturns ( uint newProjectID, address projectAddress )  \r\n\t{\r\n\t\tprojectsStruct storage newProject;\r\n\t\tnewProject.projectName = _projectName;\r\n\t\tnewProject.projectContractAddress = 0x0;\r\n\t\tincubatorProjects[numberOfProjectsInThisIncubator] = newProject;\r\n\r\n\t\t//set return values \r\n\t\tnewProjectID = numberOfProjectsInThisIncubator;\r\n\t\tprojectAddress = newProject.projectContractAddress;\r\n\r\n\t\t//increment the counter for next new project\r\n\t\tnumberOfProjectsInThisIncubator = numberOfProjectsInThisIncubator + 1;\t\t\r\n\t}\r\n\r\n\r\n\r\n}",
  "sourcePath": "F:\\Projects\\work\\VF\\blockchain\\contracts\\Incubator.sol",
  "compiler": {
    "name": "solc",
    "version": "0.4.24+commit.e67f0147.Emscripten.clang"
  },
  "schemaVersion": "2.0.1",
  "updatedAt": "2018-10-04T13:55:48.289Z"
}