{
  "contractName": "ProjectEquity",
  "abi": [
    {
      "constant": true,
      "inputs": [],
      "name": "numberOfTotalTasksInArray",
      "outputs": [
        {
          "name": "",
          "type": "uint256"
        }
      ],
      "payable": false,
      "stateMutability": "view",
      "type": "function"
    },
    {
      "constant": true,
      "inputs": [
        {
          "name": "",
          "type": "uint256"
        }
      ],
      "name": "tasksAddresses",
      "outputs": [
        {
          "name": "",
          "type": "address"
        }
      ],
      "payable": false,
      "stateMutability": "view",
      "type": "function"
    },
    {
      "constant": true,
      "inputs": [],
      "name": "ProjectSingleShareDivision",
      "outputs": [
        {
          "name": "",
          "type": "uint256"
        }
      ],
      "payable": false,
      "stateMutability": "view",
      "type": "function"
    },
    {
      "constant": false,
      "inputs": [],
      "name": "renounceOwnership",
      "outputs": [],
      "payable": false,
      "stateMutability": "nonpayable",
      "type": "function"
    },
    {
      "constant": true,
      "inputs": [],
      "name": "owner",
      "outputs": [
        {
          "name": "",
          "type": "address"
        }
      ],
      "payable": false,
      "stateMutability": "view",
      "type": "function"
    },
    {
      "constant": false,
      "inputs": [
        {
          "name": "_newOwner",
          "type": "address"
        }
      ],
      "name": "transferOwnership",
      "outputs": [],
      "payable": false,
      "stateMutability": "nonpayable",
      "type": "function"
    },
    {
      "inputs": [
        {
          "name": "_projectOwner",
          "type": "address"
        },
        {
          "name": "_incubatorOwnerAddres",
          "type": "address"
        },
        {
          "name": "_incubatorOwnerPercentageInProject",
          "type": "uint256"
        },
        {
          "name": "_ventureFusionAddress",
          "type": "address"
        },
        {
          "name": "_ventureFusionPercentageInProject",
          "type": "uint256"
        },
        {
          "name": "_ProjectSingleShareDivision",
          "type": "uint256"
        }
      ],
      "payable": false,
      "stateMutability": "nonpayable",
      "type": "constructor"
    },
    {
      "anonymous": false,
      "inputs": [
        {
          "indexed": true,
          "name": "from",
          "type": "address"
        },
        {
          "indexed": true,
          "name": "to",
          "type": "address"
        },
        {
          "indexed": false,
          "name": "value",
          "type": "uint256"
        }
      ],
      "name": "TransferShares",
      "type": "event"
    },
    {
      "anonymous": false,
      "inputs": [
        {
          "indexed": true,
          "name": "from",
          "type": "address"
        },
        {
          "indexed": true,
          "name": "to",
          "type": "address"
        },
        {
          "indexed": false,
          "name": "value",
          "type": "uint256"
        }
      ],
      "name": "ApprovalShares",
      "type": "event"
    },
    {
      "anonymous": false,
      "inputs": [
        {
          "indexed": true,
          "name": "previousOwner",
          "type": "address"
        }
      ],
      "name": "OwnershipRenounced",
      "type": "event"
    },
    {
      "anonymous": false,
      "inputs": [
        {
          "indexed": true,
          "name": "previousOwner",
          "type": "address"
        },
        {
          "indexed": true,
          "name": "newOwner",
          "type": "address"
        }
      ],
      "name": "OwnershipTransferred",
      "type": "event"
    },
    {
      "constant": false,
      "inputs": [
        {
          "name": "_to",
          "type": "address"
        },
        {
          "name": "_value",
          "type": "uint256"
        }
      ],
      "name": "transferShares",
      "outputs": [
        {
          "name": "",
          "type": "bool"
        }
      ],
      "payable": false,
      "stateMutability": "nonpayable",
      "type": "function"
    },
    {
      "constant": false,
      "inputs": [
        {
          "name": "_spender",
          "type": "address"
        },
        {
          "name": "_value",
          "type": "uint256"
        }
      ],
      "name": "approveShares",
      "outputs": [
        {
          "name": "",
          "type": "bool"
        }
      ],
      "payable": false,
      "stateMutability": "nonpayable",
      "type": "function"
    },
    {
      "constant": true,
      "inputs": [
        {
          "name": "_owner",
          "type": "address"
        },
        {
          "name": "_spender",
          "type": "address"
        }
      ],
      "name": "shareAllowance",
      "outputs": [
        {
          "name": "",
          "type": "uint256"
        }
      ],
      "payable": false,
      "stateMutability": "view",
      "type": "function"
    },
    {
      "constant": false,
      "inputs": [
        {
          "name": "_from",
          "type": "address"
        },
        {
          "name": "_to",
          "type": "address"
        },
        {
          "name": "_value",
          "type": "uint256"
        }
      ],
      "name": "shareTransferFrom",
      "outputs": [
        {
          "name": "",
          "type": "bool"
        }
      ],
      "payable": false,
      "stateMutability": "nonpayable",
      "type": "function"
    },
    {
      "constant": true,
      "inputs": [
        {
          "name": "_shareHolder",
          "type": "address"
        }
      ],
      "name": "shareBalanceOf",
      "outputs": [
        {
          "name": "",
          "type": "uint256"
        }
      ],
      "payable": false,
      "stateMutability": "view",
      "type": "function"
    },
    {
      "constant": false,
      "inputs": [
        {
          "name": "_taskTitle",
          "type": "string"
        },
        {
          "name": "_contributorSharesOffered",
          "type": "uint256"
        },
        {
          "name": "_evaluatorSharesOffered",
          "type": "uint256"
        }
      ],
      "name": "launchNewTask",
      "outputs": [
        {
          "name": "",
          "type": "bool"
        }
      ],
      "payable": false,
      "stateMutability": "nonpayable",
      "type": "function"
    }
  ],
  "bytecode": "0x6080604052600060045534801561001557600080fd5b5060405160c080612c348339810180604052810190808051906020019092919080519060200190929190805190602001909291908051906020019092919080519060200190929190805190602001909291905050506000336000806101000a81548173ffffffffffffffffffffffffffffffffffffffff021916908373ffffffffffffffffffffffffffffffffffffffff16021790555081606402905084600160008873ffffffffffffffffffffffffffffffffffffffff1673ffffffffffffffffffffffffffffffffffffffff1681526020019081526020016000208190555082600160008673ffffffffffffffffffffffffffffffffffffffff1673ffffffffffffffffffffffffffffffffffffffff1681526020019081526020016000208190555061015c838601826101b264010000000002611055179091906401000000009004565b600160008973ffffffffffffffffffffffffffffffffffffffff1673ffffffffffffffffffffffffffffffffffffffff1681526020019081526020016000208190555081600381905550505050505050506101cb565b60008282111515156101c057fe5b818303905092915050565b612a5a806101da6000396000f3006080604052600436106100ba576000357c0100000000000000000000000000000000000000000000000000000000900463ffffffff1680631740ea5c146100bf5780631c6c328314610154578063425e7b8c146101d95780634473ad5214610204578063523cf2371461025b57806369edc912146102c8578063715018a6146102f35780638da5cb5b1461030a5780638fcb4e5b146103615780639564c2f0146103c6578063a0aa69951461043d578063f2fde38b146104a2575b600080fd5b3480156100cb57600080fd5b5061013a600480360381019080803590602001908201803590602001908080601f016020809104026020016040519081016040528093929190818152602001838380828437820191505050505050919291929080359060200190929190803590602001909291905050506104e5565b604051808215151515815260200191505060405180910390f35b34801561016057600080fd5b506101bf600480360381019080803573ffffffffffffffffffffffffffffffffffffffff169060200190929190803573ffffffffffffffffffffffffffffffffffffffff169060200190929190803590602001909291905050506106d6565b604051808215151515815260200191505060405180910390f35b3480156101e557600080fd5b506101ee610a96565b6040518082815260200191505060405180910390f35b34801561021057600080fd5b50610245600480360381019080803573ffffffffffffffffffffffffffffffffffffffff169060200190929190505050610a9c565b6040518082815260200191505060405180910390f35b34801561026757600080fd5b5061028660048036038101908080359060200190929190505050610ae5565b604051808273ffffffffffffffffffffffffffffffffffffffff1673ffffffffffffffffffffffffffffffffffffffff16815260200191505060405180910390f35b3480156102d457600080fd5b506102dd610b23565b6040518082815260200191505060405180910390f35b3480156102ff57600080fd5b50610308610b29565b005b34801561031657600080fd5b5061031f610c2b565b604051808273ffffffffffffffffffffffffffffffffffffffff1673ffffffffffffffffffffffffffffffffffffffff16815260200191505060405180910390f35b34801561036d57600080fd5b506103ac600480360381019080803573ffffffffffffffffffffffffffffffffffffffff16906020019092919080359060200190929190505050610c50565b604051808215151515815260200191505060405180910390f35b3480156103d257600080fd5b50610427600480360381019080803573ffffffffffffffffffffffffffffffffffffffff169060200190929190803573ffffffffffffffffffffffffffffffffffffffff169060200190929190505050610e75565b6040518082815260200191505060405180910390f35b34801561044957600080fd5b50610488600480360381019080803573ffffffffffffffffffffffffffffffffffffffff16906020019092919080359060200190929190505050610efc565b604051808215151515815260200191505060405180910390f35b3480156104ae57600080fd5b506104e3600480360381019080803573ffffffffffffffffffffffffffffffffffffffff169060200190929190505050610fee565b005b6000806000809054906101000a900473ffffffffffffffffffffffffffffffffffffffff1673ffffffffffffffffffffffffffffffffffffffff163373ffffffffffffffffffffffffffffffffffffffff1614151561054357600080fd5b8460008560008630610553611184565b80806020018773ffffffffffffffffffffffffffffffffffffffff1681526020018681526020018573ffffffffffffffffffffffffffffffffffffffff1681526020018481526020018373ffffffffffffffffffffffffffffffffffffffff1673ffffffffffffffffffffffffffffffffffffffff168152602001828103825288818151815260200191508051906020019080838360005b838110156106065780820151818401526020810190506105eb565b50505050905090810190601f1680156106335780820380516001836020036101000a031916815260200191505b50975050505050505050604051809103906000f080158015610659573d6000803e3d6000fd5b50905060058190806001815401808255809150509060018203906000526020600020016000909192909190916101000a81548173ffffffffffffffffffffffffffffffffffffffff021916908373ffffffffffffffffffffffffffffffffffffffff16021790555050600160045401600481905550509392505050565b6000600160008573ffffffffffffffffffffffffffffffffffffffff1673ffffffffffffffffffffffffffffffffffffffff16815260200190815260200160002054821115151561072657600080fd5b600260008573ffffffffffffffffffffffffffffffffffffffff1673ffffffffffffffffffffffffffffffffffffffff16815260200190815260200160002060003373ffffffffffffffffffffffffffffffffffffffff1673ffffffffffffffffffffffffffffffffffffffff1681526020019081526020016000205482111515156107b157600080fd5b600073ffffffffffffffffffffffffffffffffffffffff168373ffffffffffffffffffffffffffffffffffffffff16141515156107ed57600080fd5b61083f82600160008773ffffffffffffffffffffffffffffffffffffffff1673ffffffffffffffffffffffffffffffffffffffff1681526020019081526020016000205461105590919063ffffffff16565b600160008673ffffffffffffffffffffffffffffffffffffffff1673ffffffffffffffffffffffffffffffffffffffff168152602001908152602001600020819055506108d482600160008673ffffffffffffffffffffffffffffffffffffffff1673ffffffffffffffffffffffffffffffffffffffff1681526020019081526020016000205461106e90919063ffffffff16565b600160008573ffffffffffffffffffffffffffffffffffffffff1673ffffffffffffffffffffffffffffffffffffffff168152602001908152602001600020819055506109a682600260008773ffffffffffffffffffffffffffffffffffffffff1673ffffffffffffffffffffffffffffffffffffffff16815260200190815260200160002060003373ffffffffffffffffffffffffffffffffffffffff1673ffffffffffffffffffffffffffffffffffffffff1681526020019081526020016000205461105590919063ffffffff16565b600260008673ffffffffffffffffffffffffffffffffffffffff1673ffffffffffffffffffffffffffffffffffffffff16815260200190815260200160002060003373ffffffffffffffffffffffffffffffffffffffff1673ffffffffffffffffffffffffffffffffffffffff168152602001908152602001600020819055508273ffffffffffffffffffffffffffffffffffffffff168473ffffffffffffffffffffffffffffffffffffffff167f9d9c909296d9c674451c0c24f02cb64981eb3b727f99865939192f880a755dcb846040518082815260200191505060405180910390a3600190509392505050565b60045481565b6000600160008373ffffffffffffffffffffffffffffffffffffffff1673ffffffffffffffffffffffffffffffffffffffff168152602001908152602001600020549050919050565b600581815481101515610af457fe5b906000526020600020016000915054906101000a900473ffffffffffffffffffffffffffffffffffffffff1681565b60035481565b6000809054906101000a900473ffffffffffffffffffffffffffffffffffffffff1673ffffffffffffffffffffffffffffffffffffffff163373ffffffffffffffffffffffffffffffffffffffff16141515610b8457600080fd5b6000809054906101000a900473ffffffffffffffffffffffffffffffffffffffff1673ffffffffffffffffffffffffffffffffffffffff167ff8df31144d9c2f0f6b59d69b8b98abd5459d07f2742c4df920b25aae33c6482060405160405180910390a260008060006101000a81548173ffffffffffffffffffffffffffffffffffffffff021916908373ffffffffffffffffffffffffffffffffffffffff160217905550565b6000809054906101000a900473ffffffffffffffffffffffffffffffffffffffff1681565b6000600160003373ffffffffffffffffffffffffffffffffffffffff1673ffffffffffffffffffffffffffffffffffffffff168152602001908152602001600020548211151515610ca057600080fd5b600073ffffffffffffffffffffffffffffffffffffffff168373ffffffffffffffffffffffffffffffffffffffff1614151515610cdc57600080fd5b610d2e82600160003373ffffffffffffffffffffffffffffffffffffffff1673ffffffffffffffffffffffffffffffffffffffff1681526020019081526020016000205461105590919063ffffffff16565b600160003373ffffffffffffffffffffffffffffffffffffffff1673ffffffffffffffffffffffffffffffffffffffff16815260200190815260200160002081905550610dc382600160008673ffffffffffffffffffffffffffffffffffffffff1673ffffffffffffffffffffffffffffffffffffffff1681526020019081526020016000205461106e90919063ffffffff16565b600160008573ffffffffffffffffffffffffffffffffffffffff1673ffffffffffffffffffffffffffffffffffffffff168152602001908152602001600020819055508273ffffffffffffffffffffffffffffffffffffffff163373ffffffffffffffffffffffffffffffffffffffff167f9d9c909296d9c674451c0c24f02cb64981eb3b727f99865939192f880a755dcb846040518082815260200191505060405180910390a36001905092915050565b6000600260008473ffffffffffffffffffffffffffffffffffffffff1673ffffffffffffffffffffffffffffffffffffffff16815260200190815260200160002060008373ffffffffffffffffffffffffffffffffffffffff1673ffffffffffffffffffffffffffffffffffffffff16815260200190815260200160002054905092915050565b600081600260003373ffffffffffffffffffffffffffffffffffffffff1673ffffffffffffffffffffffffffffffffffffffff16815260200190815260200160002060008573ffffffffffffffffffffffffffffffffffffffff1673ffffffffffffffffffffffffffffffffffffffff168152602001908152602001600020819055508273ffffffffffffffffffffffffffffffffffffffff163373ffffffffffffffffffffffffffffffffffffffff167ff782178947bb18718bebbe1961c554f5b10973aca733cba80290d723f0d2988e846040518082815260200191505060405180910390a36001905092915050565b6000809054906101000a900473ffffffffffffffffffffffffffffffffffffffff1673ffffffffffffffffffffffffffffffffffffffff163373ffffffffffffffffffffffffffffffffffffffff1614151561104957600080fd5b6110528161108a565b50565b600082821115151561106357fe5b818303905092915050565b6000818301905082811015151561108157fe5b80905092915050565b600073ffffffffffffffffffffffffffffffffffffffff168173ffffffffffffffffffffffffffffffffffffffff16141515156110c657600080fd5b8073ffffffffffffffffffffffffffffffffffffffff166000809054906101000a900473ffffffffffffffffffffffffffffffffffffffff1673ffffffffffffffffffffffffffffffffffffffff167f8be0079c531659141344cd1fd0a4f28419497f9722a3daafe3b4186f6b6457e060405160405180910390a3806000806101000a81548173ffffffffffffffffffffffffffffffffffffffff021916908373ffffffffffffffffffffffffffffffffffffffff16021790555050565b604051611899806200119683390190560060806040526000600560006101000a81548160ff0219169083151502179055506000600560016101000a81548160ff0219169083151502179055506000600760006101000a81548160ff0219169083151502179055506000600760016101000a81548160ff021916908315150217905550600060085560006009553480156200008757600080fd5b506040516200189938038062001899833981018060405281019080805182019291906020018051906020019092919080519060200190929190805190602001909291908051906020019092919080519060200190929190505050336000806101000a81548173ffffffffffffffffffffffffffffffffffffffff021916908373ffffffffffffffffffffffffffffffffffffffff16021790555085600190805190602001906200013992919062000217565b5084600360006101000a81548173ffffffffffffffffffffffffffffffffffffffff021916908373ffffffffffffffffffffffffffffffffffffffff160217905550836004819055508160068190555082600560026101000a81548173ffffffffffffffffffffffffffffffffffffffff021916908373ffffffffffffffffffffffffffffffffffffffff16021790555080600260006101000a81548173ffffffffffffffffffffffffffffffffffffffff021916908373ffffffffffffffffffffffffffffffffffffffff160217905550505050505050620002c6565b828054600181600116156101000203166002900490600052602060002090601f016020900481019282601f106200025a57805160ff19168380011785556200028b565b828001600101855582156200028b579182015b828111156200028a5782518255916020019190600101906200026d565b5b5090506200029a91906200029e565b5090565b620002c391905b80821115620002bf576000816000905550600101620002a5565b5090565b90565b6115c380620002d66000396000f30060806040526004361061011d576000357c0100000000000000000000000000000000000000000000000000000000900463ffffffff1680632124e4cc146101225780633804f0c0146101cf5780633a77c91a146101fa5780633a8bae84146102635780633cf96af11461027a578063537dbb45146102d15780635a319a3a1461033a57806361513264146103a3578063715018a61461041657806372e0576a1461042d57806379bd4511146104845780638b65e252146104ed5780638da5cb5b14610504578063a66ba5511461055b578063b74c379b1461059e578063c0bcec46146105e1578063cde5b4e11461060c578063d1a1542c14610663578063d546c33d1461068e578063f2fde38b146106f7578063f7222aad1461073a575b600080fd5b34801561012e57600080fd5b5061014d600480360381019080803590602001909291905050506107ca565b6040518080602001838152602001828103825284818151815260200191508051906020019080838360005b83811015610193578082015181840152602081019050610178565b50505050905090810190601f1680156101c05780820380516001836020036101000a031916815260200191505b50935050505060405180910390f35b3480156101db57600080fd5b506101e4610886565b6040518082815260200191505060405180910390f35b34801561020657600080fd5b50610261600480360381019080803590602001908201803590602001908080601f016020809104026020016040519081016040528093929190818152602001838380828437820191505050505050919291929050505061088c565b005b34801561026f57600080fd5b50610278610ad2565b005b34801561028657600080fd5b5061028f610b6f565b604051808273ffffffffffffffffffffffffffffffffffffffff1673ffffffffffffffffffffffffffffffffffffffff16815260200191505060405180910390f35b3480156102dd57600080fd5b50610338600480360381019080803590602001908201803590602001908080601f0160208091040260200160405190810160405280939291908181526020018383808284378201915050505050509192919290505050610b95565b005b34801561034657600080fd5b506103a1600480360381019080803590602001908201803590602001908080601f0160208091040260200160405190810160405280939291908181526020018383808284378201915050505050509192919290505050610c2a565b005b3480156103af57600080fd5b50610414600480360381019080803590602001908201803590602001908080601f016020809104026020016040519081016040528093929190818152602001838380828437820191505050505050919291929080359060200190929190505050610ce3565b005b34801561042257600080fd5b5061042b610d80565b005b34801561043957600080fd5b50610442610e82565b604051808273ffffffffffffffffffffffffffffffffffffffff1673ffffffffffffffffffffffffffffffffffffffff16815260200191505060405180910390f35b34801561049057600080fd5b506104eb600480360381019080803590602001908201803590602001908080601f0160208091040260200160405190810160405280939291908181526020018383808284378201915050505050509192919290505050610ea8565b005b3480156104f957600080fd5b50610502610f61565b005b34801561051057600080fd5b50610519610ffe565b604051808273ffffffffffffffffffffffffffffffffffffffff1673ffffffffffffffffffffffffffffffffffffffff16815260200191505060405180910390f35b34801561056757600080fd5b5061059c600480360381019080803573ffffffffffffffffffffffffffffffffffffffff169060200190929190505050611023565b005b3480156105aa57600080fd5b506105df600480360381019080803573ffffffffffffffffffffffffffffffffffffffff1690602001909291905050506110e4565b005b3480156105ed57600080fd5b506105f66111a5565b6040518082815260200191505060405180910390f35b34801561061857600080fd5b506106216111ab565b604051808273ffffffffffffffffffffffffffffffffffffffff1673ffffffffffffffffffffffffffffffffffffffff16815260200191505060405180910390f35b34801561066f57600080fd5b506106786111d1565b6040518082815260200191505060405180910390f35b34801561069a57600080fd5b506106f5600480360381019080803590602001908201803590602001908080601f01602080910402602001604051908101604052809392919081815260200183838082843782019150505050505091929192905050506111d7565b005b34801561070357600080fd5b50610738600480360381019080803573ffffffffffffffffffffffffffffffffffffffff16906020019092919050505061126c565b005b34801561074657600080fd5b5061074f6112d3565b6040518080602001828103825283818151815260200191508051906020019080838360005b8381101561078f578082015181840152602081019050610774565b50505050905090810190601f1680156107bc5780820380516001836020036101000a031916815260200191505b509250505060405180910390f35b600a602052806000526040600020600091509050806000018054600181600116156101000203166002900480601f0160208091040260200160405190810160405280929190818152602001828054600181600116156101000203166002900480156108765780601f1061084b57610100808354040283529160200191610876565b820191906000526020600020905b81548152906001019060200180831161085957829003601f168201915b5050505050908060010154905082565b60045481565b600360009054906101000a900473ffffffffffffffffffffffffffffffffffffffff1673ffffffffffffffffffffffffffffffffffffffff163373ffffffffffffffffffffffffffffffffffffffff1614806109355750600560029054906101000a900473ffffffffffffffffffffffffffffffffffffffff1673ffffffffffffffffffffffffffffffffffffffff163373ffffffffffffffffffffffffffffffffffffffff16145b8061098c57506000809054906101000a900473ffffffffffffffffffffffffffffffffffffffff1673ffffffffffffffffffffffffffffffffffffffff163373ffffffffffffffffffffffffffffffffffffffff16145b151561099757600080fd5b6000809054906101000a900473ffffffffffffffffffffffffffffffffffffffff1673ffffffffffffffffffffffffffffffffffffffff163373ffffffffffffffffffffffffffffffffffffffff1614156109f55760006008819055505b600360009054906101000a900473ffffffffffffffffffffffffffffffffffffffff1673ffffffffffffffffffffffffffffffffffffffff163373ffffffffffffffffffffffffffffffffffffffff161415610a545760016008819055505b600560029054906101000a900473ffffffffffffffffffffffffffffffffffffffff1673ffffffffffffffffffffffffffffffffffffffff163373ffffffffffffffffffffffffffffffffffffffff161415610ab35760026008819055505b60008151111515610ac357600080fd5b610acf81600854610ce3565b50565b6000809054906101000a900473ffffffffffffffffffffffffffffffffffffffff1673ffffffffffffffffffffffffffffffffffffffff163373ffffffffffffffffffffffffffffffffffffffff16141515610b2d57600080fd5b6001600760006101000a81548160ff02191690831515021790551515610b5257600080fd5b6001600760016101000a81548160ff021916908315150217905550565b600260009054906101000a900473ffffffffffffffffffffffffffffffffffffffff1681565b600560029054906101000a900473ffffffffffffffffffffffffffffffffffffffff1673ffffffffffffffffffffffffffffffffffffffff163373ffffffffffffffffffffffffffffffffffffffff16141515610bf157600080fd5b60008151111515610c0157600080fd5b6001600760006101000a81548160ff021916908315150217905550610c27816003610ce3565b50565b6000809054906101000a900473ffffffffffffffffffffffffffffffffffffffff1673ffffffffffffffffffffffffffffffffffffffff163373ffffffffffffffffffffffffffffffffffffffff16141515610c8557600080fd5b6001600760006101000a81548160ff02191690831515021790551515610caa57600080fd5b60008151111515610cba57600080fd5b6000600760006101000a81548160ff021916908315150217905550610ce0816001610ce3565b50565b604080519081016040528083815260200182815250600b6000820151816000019080519060200190610d1692919061146b565b5060208201518160010155905050600b600a6000600954815260200190815260200160002060008201816000019080546001816001161561010002031660029004610d629291906114eb565b50600182015481600101559050506001600954016009819055505050565b6000809054906101000a900473ffffffffffffffffffffffffffffffffffffffff1673ffffffffffffffffffffffffffffffffffffffff163373ffffffffffffffffffffffffffffffffffffffff16141515610ddb57600080fd5b6000809054906101000a900473ffffffffffffffffffffffffffffffffffffffff1673ffffffffffffffffffffffffffffffffffffffff167ff8df31144d9c2f0f6b59d69b8b98abd5459d07f2742c4df920b25aae33c6482060405160405180910390a260008060006101000a81548173ffffffffffffffffffffffffffffffffffffffff021916908373ffffffffffffffffffffffffffffffffffffffff160217905550565b600560029054906101000a900473ffffffffffffffffffffffffffffffffffffffff1681565b6000809054906101000a900473ffffffffffffffffffffffffffffffffffffffff1673ffffffffffffffffffffffffffffffffffffffff163373ffffffffffffffffffffffffffffffffffffffff16141515610f0357600080fd5b6001600560006101000a81548160ff02191690831515021790551515610f2857600080fd5b60008151111515610f3857600080fd5b6000600560006101000a81548160ff021916908315150217905550610f5e816001610ce3565b50565b6000809054906101000a900473ffffffffffffffffffffffffffffffffffffffff1673ffffffffffffffffffffffffffffffffffffffff163373ffffffffffffffffffffffffffffffffffffffff16141515610fbc57600080fd5b6001600560006101000a81548160ff02191690831515021790551515610fe157600080fd5b6001600560016101000a81548160ff021916908315150217905550565b6000809054906101000a900473ffffffffffffffffffffffffffffffffffffffff1681565b6000809054906101000a900473ffffffffffffffffffffffffffffffffffffffff1673ffffffffffffffffffffffffffffffffffffffff163373ffffffffffffffffffffffffffffffffffffffff1614151561107e57600080fd5b60001515600760019054906101000a900460ff1615151415156110a057600080fd5b80600560026101000a81548173ffffffffffffffffffffffffffffffffffffffff021916908373ffffffffffffffffffffffffffffffffffffffff16021790555050565b6000809054906101000a900473ffffffffffffffffffffffffffffffffffffffff1673ffffffffffffffffffffffffffffffffffffffff163373ffffffffffffffffffffffffffffffffffffffff1614151561113f57600080fd5b60001515600560019054906101000a900460ff16151514151561116157600080fd5b80600360006101000a81548173ffffffffffffffffffffffffffffffffffffffff021916908373ffffffffffffffffffffffffffffffffffffffff16021790555050565b60065481565b600360009054906101000a900473ffffffffffffffffffffffffffffffffffffffff1681565b60095481565b600360009054906101000a900473ffffffffffffffffffffffffffffffffffffffff1673ffffffffffffffffffffffffffffffffffffffff163373ffffffffffffffffffffffffffffffffffffffff1614151561123357600080fd5b6000815111151561124357600080fd5b6001600560006101000a81548160ff021916908315150217905550611269816002610ce3565b50565b6000809054906101000a900473ffffffffffffffffffffffffffffffffffffffff1673ffffffffffffffffffffffffffffffffffffffff163373ffffffffffffffffffffffffffffffffffffffff161415156112c757600080fd5b6112d081611371565b50565b60018054600181600116156101000203166002900480601f0160208091040260200160405190810160405280929190818152602001828054600181600116156101000203166002900480156113695780601f1061133e57610100808354040283529160200191611369565b820191906000526020600020905b81548152906001019060200180831161134c57829003601f168201915b505050505081565b600073ffffffffffffffffffffffffffffffffffffffff168173ffffffffffffffffffffffffffffffffffffffff16141515156113ad57600080fd5b8073ffffffffffffffffffffffffffffffffffffffff166000809054906101000a900473ffffffffffffffffffffffffffffffffffffffff1673ffffffffffffffffffffffffffffffffffffffff167f8be0079c531659141344cd1fd0a4f28419497f9722a3daafe3b4186f6b6457e060405160405180910390a3806000806101000a81548173ffffffffffffffffffffffffffffffffffffffff021916908373ffffffffffffffffffffffffffffffffffffffff16021790555050565b828054600181600116156101000203166002900490600052602060002090601f016020900481019282601f106114ac57805160ff19168380011785556114da565b828001600101855582156114da579182015b828111156114d95782518255916020019190600101906114be565b5b5090506114e79190611572565b5090565b828054600181600116156101000203166002900490600052602060002090601f016020900481019282601f106115245780548555611561565b8280016001018555821561156157600052602060002091601f016020900482015b82811115611560578254825591600101919060010190611545565b5b50905061156e9190611572565b5090565b61159491905b80821115611590576000816000905550600101611578565b5090565b905600a165627a7a723058204a50812d27b2443cf7434ab28eca615cd9f9f32e6e20b8cabd40537fa4d4584a0029a165627a7a723058201352671ef0454a021e543dee1882267fa992c3fb770a0fea7c5d4988819379d90029",
  "source": "pragma solidity ^0.4.24;\n\n\nimport \"./contracts/math/SafeMath.sol\";\nimport './contracts/ownership/Ownable.sol';\nimport './ProjectTask.sol';\n\n\ncontract ProjectEquity is Ownable {\n\n  mapping(address => uint256) internal shareBalances;\n\n  mapping (address => mapping (address => uint256)) internal shareAllowed;\n\n  //how many decimal places each single share has. for example 1000 \n  //means each share can be broken down 1000. So 0.5 means 500\n  uint public ProjectSingleShareDivision;        \n\n  uint public numberOfTotalTasksInArray = 0;\n  address[] public tasksAddresses;\n  \n  using SafeMath for uint256;\n\n  event TransferShares(address indexed from, address indexed to, uint256 value);\n  event ApprovalShares(address indexed from, address indexed to, uint256 value);\n  \n  \n  \n  \n  \n  constructor(    address _projectOwner, \n\t\t\t\t  address _incubatorOwnerAddres, \n\t\t\t\t  uint _incubatorOwnerPercentageInProject, \n\t\t\t\t  address _ventureFusionAddress, \n\t\t\t\t  uint _ventureFusionPercentageInProject, \n\t\t\t\t  uint _ProjectSingleShareDivision )\n  public {\n\t uint totalShares = 100 * _ProjectSingleShareDivision;\n\t shareBalances[_incubatorOwnerAddres] = _incubatorOwnerPercentageInProject;\n\t shareBalances[_ventureFusionAddress] = _ventureFusionPercentageInProject;\n\t shareBalances[_projectOwner] = totalShares.sub(_incubatorOwnerPercentageInProject + _ventureFusionPercentageInProject);\n\t ProjectSingleShareDivision = _ProjectSingleShareDivision;        \n  }\n\n\n\n\n\n\n  function transferShares(\n\taddress _to, \n\tuint256 _value\n  ) \n    public returns (bool) \n  {\n    require(_value <= shareBalances[msg.sender]);\n    require(_to != address(0));\n\n    shareBalances[msg.sender] = shareBalances[msg.sender].sub(_value);\n    shareBalances[_to] = shareBalances[_to].add(_value);\n    emit TransferShares(msg.sender, _to, _value);\n    return true;\n  }\n\n\n\n    \n\n\n\n\n\n  function approveShares (\n     address _spender, \n\t uint256 _value\n  ) \n    public returns (bool) \n  {\n    shareAllowed[msg.sender][_spender] = _value;\n    emit ApprovalShares(msg.sender, _spender, _value);\n    return true;\n  }\n\n  \n\n  \n    \n\n  function shareAllowance(\n    address _owner,\n    address _spender\n  )\n    public view returns (uint256) \n  {\n     return shareAllowed[_owner][_spender];\n  }\n\n\n  \n  \n  \n\n\n  function shareTransferFrom(\n    address _from,\n    address _to,\n    uint256 _value\n  )\n    public returns (bool)\n  {\n    require(_value <= shareBalances[_from]);\n    require(_value <= shareAllowed[_from][msg.sender]);\n    require(_to != address(0));\n\n    shareBalances[_from] = shareBalances[_from].sub(_value);\n    shareBalances[_to] = shareBalances[_to].add(_value);\n    shareAllowed[_from][msg.sender] = shareAllowed[_from][msg.sender].sub(_value);\n    emit TransferShares(_from, _to, _value);\n    return true;\n  }\n\n  \n\n\n\n  \n  \n\n  function shareBalanceOf(\n     address _shareHolder\n  ) \n  public view returns (uint256) \n  {\n     return shareBalances[_shareHolder];\n  }\n \n \n\n\n \n  \n  function launchNewTask (\n     string _taskTitle, \n\t uint _contributorSharesOffered, \n\t uint _evaluatorSharesOffered\n  ) onlyOwner\n  public returns (bool)\n  {\n\t address projectTask = new ProjectTask(_taskTitle, 0x0, _contributorSharesOffered, 0x0, _evaluatorSharesOffered, address(this));\n\t tasksAddresses.push(projectTask);\n\t numberOfTotalTasksInArray = numberOfTotalTasksInArray + 1;\n  }\n  \n  \n  \n  \n  \n  \n}\n",
  "sourcePath": "F:\\Projects\\work\\VF\\blockchain\\contracts\\ProjectEquity.sol",
  "compiler": {
    "name": "solc",
    "version": "0.4.24+commit.e67f0147.Emscripten.clang"
  },
  "schemaVersion": "2.0.1",
  "updatedAt": "2018-10-11T17:35:32.089Z"
}