{
  "contractName": "ProjectTask",
  "abi": [
    {
      "constant": true,
      "inputs": [
        {
          "name": "",
          "type": "uint256"
        }
      ],
      "name": "taskNotes",
      "outputs": [
        {
          "name": "notes",
          "type": "string"
        },
        {
          "name": "sendBy",
          "type": "uint256"
        }
      ],
      "payable": false,
      "stateMutability": "view",
      "type": "function"
    },
    {
      "constant": true,
      "inputs": [],
      "name": "contributorProjectShares",
      "outputs": [
        {
          "name": "",
          "type": "uint256"
        }
      ],
      "payable": false,
      "stateMutability": "view",
      "type": "function"
    },
    {
      "constant": true,
      "inputs": [],
      "name": "projectAddress",
      "outputs": [
        {
          "name": "",
          "type": "address"
        }
      ],
      "payable": false,
      "stateMutability": "view",
      "type": "function"
    },
    {
      "constant": true,
      "inputs": [],
      "name": "isContributorSolutionSubmitted",
      "outputs": [
        {
          "name": "",
          "type": "bool"
        }
      ],
      "payable": false,
      "stateMutability": "view",
      "type": "function"
    },
    {
      "constant": true,
      "inputs": [],
      "name": "isContributorSolutionAcceptedAndSharesTransferred",
      "outputs": [
        {
          "name": "",
          "type": "bool"
        }
      ],
      "payable": false,
      "stateMutability": "view",
      "type": "function"
    },
    {
      "constant": false,
      "inputs": [],
      "name": "renounceOwnership",
      "outputs": [],
      "payable": false,
      "stateMutability": "nonpayable",
      "type": "function"
    },
    {
      "constant": true,
      "inputs": [],
      "name": "evaluatorAddress",
      "outputs": [
        {
          "name": "",
          "type": "address"
        }
      ],
      "payable": false,
      "stateMutability": "view",
      "type": "function"
    },
    {
      "constant": true,
      "inputs": [],
      "name": "isEvaluatorSolutionAcceptedAndSharesTransferred",
      "outputs": [
        {
          "name": "",
          "type": "bool"
        }
      ],
      "payable": false,
      "stateMutability": "view",
      "type": "function"
    },
    {
      "constant": true,
      "inputs": [],
      "name": "owner",
      "outputs": [
        {
          "name": "",
          "type": "address"
        }
      ],
      "payable": false,
      "stateMutability": "view",
      "type": "function"
    },
    {
      "constant": true,
      "inputs": [],
      "name": "isEvaluatorSolutionSubmitted",
      "outputs": [
        {
          "name": "",
          "type": "bool"
        }
      ],
      "payable": false,
      "stateMutability": "view",
      "type": "function"
    },
    {
      "constant": true,
      "inputs": [],
      "name": "evaluatorProjectShares",
      "outputs": [
        {
          "name": "",
          "type": "uint256"
        }
      ],
      "payable": false,
      "stateMutability": "view",
      "type": "function"
    },
    {
      "constant": true,
      "inputs": [],
      "name": "contributorAddress",
      "outputs": [
        {
          "name": "",
          "type": "address"
        }
      ],
      "payable": false,
      "stateMutability": "view",
      "type": "function"
    },
    {
      "constant": true,
      "inputs": [],
      "name": "numberOfTaskNotes",
      "outputs": [
        {
          "name": "",
          "type": "uint256"
        }
      ],
      "payable": false,
      "stateMutability": "view",
      "type": "function"
    },
    {
      "constant": false,
      "inputs": [
        {
          "name": "_newOwner",
          "type": "address"
        }
      ],
      "name": "transferOwnership",
      "outputs": [],
      "payable": false,
      "stateMutability": "nonpayable",
      "type": "function"
    },
    {
      "constant": true,
      "inputs": [],
      "name": "taskTitle",
      "outputs": [
        {
          "name": "",
          "type": "string"
        }
      ],
      "payable": false,
      "stateMutability": "view",
      "type": "function"
    },
    {
      "inputs": [
        {
          "name": "_taskTitle",
          "type": "string"
        },
        {
          "name": "_contributorProjectShares",
          "type": "uint256"
        },
        {
          "name": "_evaluatorProjectShares",
          "type": "uint256"
        },
        {
          "name": "_projectAddress",
          "type": "address"
        }
      ],
      "payable": false,
      "stateMutability": "nonpayable",
      "type": "constructor"
    },
    {
      "anonymous": false,
      "inputs": [
        {
          "indexed": false,
          "name": "owner",
          "type": "address"
        },
        {
          "indexed": false,
          "name": "contributor",
          "type": "address"
        },
        {
          "indexed": false,
          "name": "shares",
          "type": "uint256"
        }
      ],
      "name": "ContributorTaskAccepted",
      "type": "event"
    },
    {
      "anonymous": false,
      "inputs": [
        {
          "indexed": false,
          "name": "owner",
          "type": "address"
        },
        {
          "indexed": false,
          "name": "evaluator",
          "type": "address"
        },
        {
          "indexed": false,
          "name": "shares",
          "type": "uint256"
        }
      ],
      "name": "EvaluatorTaskAccepted",
      "type": "event"
    },
    {
      "anonymous": false,
      "inputs": [
        {
          "indexed": true,
          "name": "previousOwner",
          "type": "address"
        }
      ],
      "name": "OwnershipRenounced",
      "type": "event"
    },
    {
      "anonymous": false,
      "inputs": [
        {
          "indexed": true,
          "name": "previousOwner",
          "type": "address"
        },
        {
          "indexed": true,
          "name": "newOwner",
          "type": "address"
        }
      ],
      "name": "OwnershipTransferred",
      "type": "event"
    },
    {
      "constant": false,
      "inputs": [
        {
          "name": "_address",
          "type": "address"
        }
      ],
      "name": "setContributorAddress",
      "outputs": [],
      "payable": false,
      "stateMutability": "nonpayable",
      "type": "function"
    },
    {
      "constant": false,
      "inputs": [
        {
          "name": "_address",
          "type": "address"
        }
      ],
      "name": "setEvaluatorAddress",
      "outputs": [],
      "payable": false,
      "stateMutability": "nonpayable",
      "type": "function"
    },
    {
      "constant": false,
      "inputs": [
        {
          "name": "_note",
          "type": "string"
        },
        {
          "name": "_sendBy",
          "type": "uint256"
        }
      ],
      "name": "addNotes",
      "outputs": [],
      "payable": false,
      "stateMutability": "nonpayable",
      "type": "function"
    },
    {
      "constant": false,
      "inputs": [
        {
          "name": "_notes",
          "type": "string"
        }
      ],
      "name": "contributorDeliverablesAreReadyWithNotes",
      "outputs": [],
      "payable": false,
      "stateMutability": "nonpayable",
      "type": "function"
    },
    {
      "constant": false,
      "inputs": [
        {
          "name": "_notes",
          "type": "string"
        }
      ],
      "name": "evaluatorDeliverablesAreReadyWithNotes",
      "outputs": [],
      "payable": false,
      "stateMutability": "nonpayable",
      "type": "function"
    },
    {
      "constant": false,
      "inputs": [
        {
          "name": "_notes",
          "type": "string"
        }
      ],
      "name": "setNotes",
      "outputs": [],
      "payable": false,
      "stateMutability": "nonpayable",
      "type": "function"
    },
    {
      "constant": false,
      "inputs": [
        {
          "name": "_notes",
          "type": "string"
        }
      ],
      "name": "rejectContibutorTaskSubmissionAndSetNotes",
      "outputs": [],
      "payable": false,
      "stateMutability": "nonpayable",
      "type": "function"
    },
    {
      "constant": false,
      "inputs": [
        {
          "name": "_notes",
          "type": "string"
        }
      ],
      "name": "rejectEvaluatorTaskSubmissionAndSetNotes",
      "outputs": [],
      "payable": false,
      "stateMutability": "nonpayable",
      "type": "function"
    },
    {
      "constant": false,
      "inputs": [],
      "name": "markContributorTaskDoneAndTransferShare",
      "outputs": [],
      "payable": false,
      "stateMutability": "nonpayable",
      "type": "function"
    },
    {
      "constant": false,
      "inputs": [],
      "name": "markEvaluatorTaskDoneAndTransferShare",
      "outputs": [],
      "payable": false,
      "stateMutability": "nonpayable",
      "type": "function"
    }
  ],
  "bytecode": "0x60806040526000600560006101000a81548160ff0219169083151502179055506000600560016101000a81548160ff0219169083151502179055506000600760006101000a81548160ff0219169083151502179055506000600760016101000a81548160ff021916908315150217905550600060085560006009553480156200008757600080fd5b5060405162001f3438038062001f3483398101806040528101908080518201929190602001805190602001909291908051906020019092919080519060200190929190505050336000806101000a81548173ffffffffffffffffffffffffffffffffffffffff021916908373ffffffffffffffffffffffffffffffffffffffff160217905550600073ffffffffffffffffffffffffffffffffffffffff168173ffffffffffffffffffffffffffffffffffffffff16141515156200014a57600080fd5b600083101515156200015b57600080fd5b600082101515156200016c57600080fd5b600084511115156200017d57600080fd5b836001908051906020019062000195929190620001ef565b50826004819055508160068190555080600260006101000a81548173ffffffffffffffffffffffffffffffffffffffff021916908373ffffffffffffffffffffffffffffffffffffffff160217905550505050506200029e565b828054600181600116156101000203166002900490600052602060002090601f016020900481019282601f106200023257805160ff191683800117855562000263565b8280016001018555821562000263579182015b828111156200026257825182559160200191906001019062000245565b5b50905062000272919062000276565b5090565b6200029b91905b80821115620002975760008160009055506001016200027d565b5090565b90565b611c8680620002ae6000396000f300608060405260043610610149576000357c0100000000000000000000000000000000000000000000000000000000900463ffffffff1680632124e4cc1461014e5780633804f0c0146101fb5780633a77c91a146102265780633a8bae841461028f5780633cf96af1146102a65780634a990c8b146102fd578063537dbb451461032c5780635a319a3a1461039557806361513264146103fe578063688e043314610471578063715018a6146104a057806372e0576a146104b757806379bd45111461050e578063856ff264146105775780638b65e252146105a65780638da5cb5b146105bd5780638fc3ceb414610614578063a66ba55114610643578063b74c379b14610686578063c0bcec46146106c9578063cde5b4e1146106f4578063d1a1542c1461074b578063d546c33d14610776578063f2fde38b146107df578063f7222aad14610822575b600080fd5b34801561015a57600080fd5b50610179600480360381019080803590602001909291905050506108b2565b6040518080602001838152602001828103825284818151815260200191508051906020019080838360005b838110156101bf5780820151818401526020810190506101a4565b50505050905090810190601f1680156101ec5780820380516001836020036101000a031916815260200191505b50935050505060405180910390f35b34801561020757600080fd5b5061021061096e565b6040518082815260200191505060405180910390f35b34801561023257600080fd5b5061028d600480360381019080803590602001908201803590602001908080601f0160208091040260200160405190810160405280939291908181526020018383808284378201915050505050509192919290505050610974565b005b34801561029b57600080fd5b506102a4610bba565b005b3480156102b257600080fd5b506102bb610ee7565b604051808273ffffffffffffffffffffffffffffffffffffffff1673ffffffffffffffffffffffffffffffffffffffff16815260200191505060405180910390f35b34801561030957600080fd5b50610312610f0d565b604051808215151515815260200191505060405180910390f35b34801561033857600080fd5b50610393600480360381019080803590602001908201803590602001908080601f0160208091040260200160405190810160405280939291908181526020018383808284378201915050505050509192919290505050610f20565b005b3480156103a157600080fd5b506103fc600480360381019080803590602001908201803590602001908080601f0160208091040260200160405190810160405280939291908181526020018383808284378201915050505050509192919290505050610fb5565b005b34801561040a57600080fd5b5061046f600480360381019080803590602001908201803590602001908080601f01602080910402602001604051908101604052809392919081815260200183838082843782019150505050505091929192908035906020019092919050505061106b565b005b34801561047d57600080fd5b50610486611108565b604051808215151515815260200191505060405180910390f35b3480156104ac57600080fd5b506104b561111b565b005b3480156104c357600080fd5b506104cc61121d565b604051808273ffffffffffffffffffffffffffffffffffffffff1673ffffffffffffffffffffffffffffffffffffffff16815260200191505060405180910390f35b34801561051a57600080fd5b50610575600480360381019080803590602001908201803590602001908080601f0160208091040260200160405190810160405280939291908181526020018383808284378201915050505050509192919290505050611243565b005b34801561058357600080fd5b5061058c6112f9565b604051808215151515815260200191505060405180910390f35b3480156105b257600080fd5b506105bb61130c565b005b3480156105c957600080fd5b506105d2611636565b604051808273ffffffffffffffffffffffffffffffffffffffff1673ffffffffffffffffffffffffffffffffffffffff16815260200191505060405180910390f35b34801561062057600080fd5b5061062961165b565b604051808215151515815260200191505060405180910390f35b34801561064f57600080fd5b50610684600480360381019080803573ffffffffffffffffffffffffffffffffffffffff16906020019092919050505061166e565b005b34801561069257600080fd5b506106c7600480360381019080803573ffffffffffffffffffffffffffffffffffffffff16906020019092919050505061176b565b005b3480156106d557600080fd5b506106de611868565b6040518082815260200191505060405180910390f35b34801561070057600080fd5b5061070961186e565b604051808273ffffffffffffffffffffffffffffffffffffffff1673ffffffffffffffffffffffffffffffffffffffff16815260200191505060405180910390f35b34801561075757600080fd5b50610760611894565b6040518082815260200191505060405180910390f35b34801561078257600080fd5b506107dd600480360381019080803590602001908201803590602001908080601f016020809104026020016040519081016040528093929190818152602001838380828437820191505050505050919291929050505061189a565b005b3480156107eb57600080fd5b50610820600480360381019080803573ffffffffffffffffffffffffffffffffffffffff16906020019092919050505061192f565b005b34801561082e57600080fd5b50610837611996565b6040518080602001828103825283818151815260200191508051906020019080838360005b8381101561087757808201518184015260208101905061085c565b50505050905090810190601f1680156108a45780820380516001836020036101000a031916815260200191505b509250505060405180910390f35b600a602052806000526040600020600091509050806000018054600181600116156101000203166002900480601f01602080910402602001604051908101604052809291908181526020018280546001816001161561010002031660029004801561095e5780601f106109335761010080835404028352916020019161095e565b820191906000526020600020905b81548152906001019060200180831161094157829003601f168201915b5050505050908060010154905082565b60045481565b600360009054906101000a900473ffffffffffffffffffffffffffffffffffffffff1673ffffffffffffffffffffffffffffffffffffffff163373ffffffffffffffffffffffffffffffffffffffff161480610a1d5750600560029054906101000a900473ffffffffffffffffffffffffffffffffffffffff1673ffffffffffffffffffffffffffffffffffffffff163373ffffffffffffffffffffffffffffffffffffffff16145b80610a7457506000809054906101000a900473ffffffffffffffffffffffffffffffffffffffff1673ffffffffffffffffffffffffffffffffffffffff163373ffffffffffffffffffffffffffffffffffffffff16145b1515610a7f57600080fd5b6000809054906101000a900473ffffffffffffffffffffffffffffffffffffffff1673ffffffffffffffffffffffffffffffffffffffff163373ffffffffffffffffffffffffffffffffffffffff161415610add5760016008819055505b600360009054906101000a900473ffffffffffffffffffffffffffffffffffffffff1673ffffffffffffffffffffffffffffffffffffffff163373ffffffffffffffffffffffffffffffffffffffff161415610b3c5760026008819055505b600560029054906101000a900473ffffffffffffffffffffffffffffffffffffffff1673ffffffffffffffffffffffffffffffffffffffff163373ffffffffffffffffffffffffffffffffffffffff161415610b9b5760036008819055505b60008151111515610bab57600080fd5b610bb78160085461106b565b50565b60008060009054906101000a900473ffffffffffffffffffffffffffffffffffffffff1673ffffffffffffffffffffffffffffffffffffffff163373ffffffffffffffffffffffffffffffffffffffff16141515610c1757600080fd5b6001600760006101000a81548160ff02191690831515021790551515610c3c57600080fd5b60001515600760019054906101000a900460ff161515141515610c5e57600080fd5b600260009054906101000a900473ffffffffffffffffffffffffffffffffffffffff1690508073ffffffffffffffffffffffffffffffffffffffff166323b872dd6000809054906101000a900473ffffffffffffffffffffffffffffffffffffffff16600560029054906101000a900473ffffffffffffffffffffffffffffffffffffffff166006546040518463ffffffff167c0100000000000000000000000000000000000000000000000000000000028152600401808473ffffffffffffffffffffffffffffffffffffffff1673ffffffffffffffffffffffffffffffffffffffff1681526020018373ffffffffffffffffffffffffffffffffffffffff1673ffffffffffffffffffffffffffffffffffffffff1681526020018281526020019350505050602060405180830381600087803b158015610d9f57600080fd5b505af1158015610db3573d6000803e3d6000fd5b505050506040513d6020811015610dc957600080fd5b81019080805190602001909291905050501515610de557600080fd5b6001600760016101000a81548160ff0219169083151502179055507f2e8f320f26e1408a887da348ca3e09c9a8b4ac4fdf759aaa8fc94bef12bb59296000809054906101000a900473ffffffffffffffffffffffffffffffffffffffff16600560029054906101000a900473ffffffffffffffffffffffffffffffffffffffff16600654604051808473ffffffffffffffffffffffffffffffffffffffff1673ffffffffffffffffffffffffffffffffffffffff1681526020018373ffffffffffffffffffffffffffffffffffffffff1673ffffffffffffffffffffffffffffffffffffffff168152602001828152602001935050505060405180910390a150565b600260009054906101000a900473ffffffffffffffffffffffffffffffffffffffff1681565b600560009054906101000a900460ff1681565b600560029054906101000a900473ffffffffffffffffffffffffffffffffffffffff1673ffffffffffffffffffffffffffffffffffffffff163373ffffffffffffffffffffffffffffffffffffffff16141515610f7c57600080fd5b60008151111515610f8c57600080fd5b6001600760006101000a81548160ff021916908315150217905550610fb281600361106b565b50565b6000809054906101000a900473ffffffffffffffffffffffffffffffffffffffff1673ffffffffffffffffffffffffffffffffffffffff163373ffffffffffffffffffffffffffffffffffffffff1614151561101057600080fd5b60011515600760009054906101000a900460ff16151514151561103257600080fd5b6000815111151561104257600080fd5b6000600760006101000a81548160ff02191690831515021790555061106881600161106b565b50565b604080519081016040528083815260200182815250600b600082015181600001908051906020019061109e929190611b2e565b5060208201518160010155905050600b600a60006009548152602001908152602001600020600082018160000190805460018160011615610100020316600290046110ea929190611bae565b50600182015481600101559050506001600954016009819055505050565b600560019054906101000a900460ff1681565b6000809054906101000a900473ffffffffffffffffffffffffffffffffffffffff1673ffffffffffffffffffffffffffffffffffffffff163373ffffffffffffffffffffffffffffffffffffffff1614151561117657600080fd5b6000809054906101000a900473ffffffffffffffffffffffffffffffffffffffff1673ffffffffffffffffffffffffffffffffffffffff167ff8df31144d9c2f0f6b59d69b8b98abd5459d07f2742c4df920b25aae33c6482060405160405180910390a260008060006101000a81548173ffffffffffffffffffffffffffffffffffffffff021916908373ffffffffffffffffffffffffffffffffffffffff160217905550565b600560029054906101000a900473ffffffffffffffffffffffffffffffffffffffff1681565b6000809054906101000a900473ffffffffffffffffffffffffffffffffffffffff1673ffffffffffffffffffffffffffffffffffffffff163373ffffffffffffffffffffffffffffffffffffffff1614151561129e57600080fd5b60011515600560009054906101000a900460ff1615151415156112c057600080fd5b600081511115156112d057600080fd5b6000600560006101000a81548160ff0219169083151502179055506112f681600161106b565b50565b600760019054906101000a900460ff1681565b60008060009054906101000a900473ffffffffffffffffffffffffffffffffffffffff1673ffffffffffffffffffffffffffffffffffffffff163373ffffffffffffffffffffffffffffffffffffffff1614151561136957600080fd5b60011515600560009054906101000a900460ff16151514151561138b57600080fd5b60001515600560019054906101000a900460ff1615151415156113ad57600080fd5b600260009054906101000a900473ffffffffffffffffffffffffffffffffffffffff1690508073ffffffffffffffffffffffffffffffffffffffff166323b872dd6000809054906101000a900473ffffffffffffffffffffffffffffffffffffffff16600360009054906101000a900473ffffffffffffffffffffffffffffffffffffffff166004546040518463ffffffff167c0100000000000000000000000000000000000000000000000000000000028152600401808473ffffffffffffffffffffffffffffffffffffffff1673ffffffffffffffffffffffffffffffffffffffff1681526020018373ffffffffffffffffffffffffffffffffffffffff1673ffffffffffffffffffffffffffffffffffffffff1681526020018281526020019350505050602060405180830381600087803b1580156114ee57600080fd5b505af1158015611502573d6000803e3d6000fd5b505050506040513d602081101561151857600080fd5b8101908080519060200190929190505050151561153457600080fd5b6001600560016101000a81548160ff0219169083151502179055507f2e705641ef3838701162829c9931a82fbb60ea6b84992d297d1654cc31ce0d8b6000809054906101000a900473ffffffffffffffffffffffffffffffffffffffff16600360009054906101000a900473ffffffffffffffffffffffffffffffffffffffff16600454604051808473ffffffffffffffffffffffffffffffffffffffff1673ffffffffffffffffffffffffffffffffffffffff1681526020018373ffffffffffffffffffffffffffffffffffffffff1673ffffffffffffffffffffffffffffffffffffffff168152602001828152602001935050505060405180910390a150565b6000809054906101000a900473ffffffffffffffffffffffffffffffffffffffff1681565b600760009054906101000a900460ff1681565b6000809054906101000a900473ffffffffffffffffffffffffffffffffffffffff1673ffffffffffffffffffffffffffffffffffffffff163373ffffffffffffffffffffffffffffffffffffffff161415156116c957600080fd5b600073ffffffffffffffffffffffffffffffffffffffff168173ffffffffffffffffffffffffffffffffffffffff161415151561170557600080fd5b60001515600760019054906101000a900460ff16151514151561172757600080fd5b80600560026101000a81548173ffffffffffffffffffffffffffffffffffffffff021916908373ffffffffffffffffffffffffffffffffffffffff16021790555050565b6000809054906101000a900473ffffffffffffffffffffffffffffffffffffffff1673ffffffffffffffffffffffffffffffffffffffff163373ffffffffffffffffffffffffffffffffffffffff161415156117c657600080fd5b600073ffffffffffffffffffffffffffffffffffffffff168173ffffffffffffffffffffffffffffffffffffffff161415151561180257600080fd5b60001515600560019054906101000a900460ff16151514151561182457600080fd5b80600360006101000a81548173ffffffffffffffffffffffffffffffffffffffff021916908373ffffffffffffffffffffffffffffffffffffffff16021790555050565b60065481565b600360009054906101000a900473ffffffffffffffffffffffffffffffffffffffff1681565b60095481565b600360009054906101000a900473ffffffffffffffffffffffffffffffffffffffff1673ffffffffffffffffffffffffffffffffffffffff163373ffffffffffffffffffffffffffffffffffffffff161415156118f657600080fd5b6000815111151561190657600080fd5b6001600560006101000a81548160ff02191690831515021790555061192c81600261106b565b50565b6000809054906101000a900473ffffffffffffffffffffffffffffffffffffffff1673ffffffffffffffffffffffffffffffffffffffff163373ffffffffffffffffffffffffffffffffffffffff1614151561198a57600080fd5b61199381611a34565b50565b60018054600181600116156101000203166002900480601f016020809104026020016040519081016040528092919081815260200182805460018160011615610100020316600290048015611a2c5780601f10611a0157610100808354040283529160200191611a2c565b820191906000526020600020905b815481529060010190602001808311611a0f57829003601f168201915b505050505081565b600073ffffffffffffffffffffffffffffffffffffffff168173ffffffffffffffffffffffffffffffffffffffff1614151515611a7057600080fd5b8073ffffffffffffffffffffffffffffffffffffffff166000809054906101000a900473ffffffffffffffffffffffffffffffffffffffff1673ffffffffffffffffffffffffffffffffffffffff167f8be0079c531659141344cd1fd0a4f28419497f9722a3daafe3b4186f6b6457e060405160405180910390a3806000806101000a81548173ffffffffffffffffffffffffffffffffffffffff021916908373ffffffffffffffffffffffffffffffffffffffff16021790555050565b828054600181600116156101000203166002900490600052602060002090601f016020900481019282601f10611b6f57805160ff1916838001178555611b9d565b82800160010185558215611b9d579182015b82811115611b9c578251825591602001919060010190611b81565b5b509050611baa9190611c35565b5090565b828054600181600116156101000203166002900490600052602060002090601f016020900481019282601f10611be75780548555611c24565b82800160010185558215611c2457600052602060002091601f016020900482015b82811115611c23578254825591600101919060010190611c08565b5b509050611c319190611c35565b5090565b611c5791905b80821115611c53576000816000905550600101611c3b565b5090565b905600a165627a7a72305820528327baa0a416d9989bf9dba874b10dd755e7515fc4c91607d4d03ceb7abdf20029",
  "source": "pragma solidity ^0.4.24;\r\n\r\nimport './contracts/ownership/Ownable.sol';\r\nimport './ProjectEquity.sol';\r\n\r\ncontract ProjectTask is Ownable {\r\n\r\n   //------------------------------------------------------------------------------------------\r\n   // Task related information\r\n   //------------------------------------------------------------------------------------------\r\n   string public taskTitle;\r\n   address public projectAddress;\r\n\r\n   \r\n   //------------------------------------------------------------------------------------------\r\n   // Contributor's parameters    address, shares, solution submitted, solution accepted\r\n   //------------------------------------------------------------------------------------------\r\n   address public contributorAddress;\r\n   uint public contributorProjectShares;\r\n   bool public isContributorSolutionSubmitted = false;\r\n   bool public isContributorSolutionAcceptedAndSharesTransferred = false;\r\n\r\n   \r\n   //------------------------------------------------------------------------------------------\r\n   // Evaluator's parameters    address, shares, solution submitted, solution accepted\r\n   //------------------------------------------------------------------------------------------   \r\n   address public evaluatorAddress;\r\n   uint public evaluatorProjectShares;\r\n   bool public isEvaluatorSolutionSubmitted = false;\r\n   bool public isEvaluatorSolutionAcceptedAndSharesTransferred = false;\r\n\r\n   \r\n   //------------------------------------------------------------------------------------------   \r\n   // Temporary variable set in modifier onlyParticipent and used in setNote public function\r\n   //------------------------------------------------------------------------------------------   \r\n   uint tempNoteSendBy = 0;\r\n   \r\n   \r\n   //----------------------------------------------------------------------------------------------------\r\n   // Local Tasks collection.   All tasks that belong to this project are collected in this collection\r\n   // They are added in the order they are received \r\n   //----------------------------------------------------------------------------------------------------\r\n   uint public numberOfTaskNotes = 0;   //current number of notes\r\n   struct taskNoteStruct {             //project structure\r\n\t\tstring notes;\r\n\t\tuint sendBy;       // 1=Owner     2=Contributor     3=Evaluator\r\n   }\r\n   mapping (uint => taskNoteStruct) public taskNotes;     //mapping of task notes\r\n\r\n   \r\n   \r\n   \r\n   event ContributorTaskAccepted(address owner, address contributor, uint shares);\r\n   event EvaluatorTaskAccepted(address owner, address evaluator, uint shares);\r\n   \r\n   \r\n  //-------------------------------------------------\r\n  // Contract Constructor \r\n  //-------------------------------------------------   \r\n   constructor(\r\n\t  string _taskTitle,                            // Task title \r\n\t  uint _contributorProjectShares,               // Contributor's shares \r\n\t  uint _evaluatorProjectShares,                 // Evaluator's shares \r\n\t  address _projectAddress                       // Project address to which this contract belong \r\n   )\r\n   public {\r\n      require(_projectAddress != address(0));\r\n\t  require(_contributorProjectShares >= 0);\r\n\t  require(_evaluatorProjectShares >= 0);\r\n\t  require(bytes(_taskTitle).length > 0);\r\n\t     \r\n      taskTitle = _taskTitle;\r\n \t  contributorProjectShares = _contributorProjectShares;\r\n\t  evaluatorProjectShares = _evaluatorProjectShares;\r\n\t  projectAddress = _projectAddress;\r\n   }\r\n\r\n\r\n  //-------------------------------------------------\r\n  // Check message is send by only contributor \r\n  //-------------------------------------------------      \r\n  modifier onlyContributor() {\r\n    require(msg.sender == contributorAddress);\r\n    _;\r\n  }\r\n   \r\n   \r\n  //-------------------------------------------------\r\n  // Check message is send by only evaluator \r\n  //-------------------------------------------------         \r\n  modifier onlyEvaluator() {\r\n    require(msg.sender == evaluatorAddress);\r\n    _;\r\n  }\r\n  \r\n\r\n  \r\n  //----------------------------------------------------------------------------------------------\r\n  // Check message is send by only contributor, evaluator or project owner \r\n  // Also set tempNoteSendBy who send the message     owner = 1, contributor = 2, evaluator = 3\r\n  //----------------------------------------------------------------------------------------------        \r\n  modifier onlyParticipent () {\r\n     require(msg.sender == contributorAddress || msg.sender == evaluatorAddress || msg.sender == owner);\r\n\t \r\n\t if(msg.sender == owner) \r\n\t    tempNoteSendBy = 1;\r\n\t if(msg.sender == contributorAddress) \r\n\t    tempNoteSendBy = 2;\r\n\t if(msg.sender == evaluatorAddress) \r\n\t    tempNoteSendBy = 3;\r\n\t _;\r\n  }\r\n   \r\n\r\n\r\n\r\n   //----------------------------------------------------------------------------------------------\r\n   // Owner can set contributor's address.   Only set contrinutor can send notes or deliverables \r\n   //----------------------------------------------------------------------------------------------   \r\n   function setContributorAddress(address _address) onlyOwner public {\r\n\t   require(_address != address(0));\r\n\t   \r\n\t   require(isContributorSolutionAcceptedAndSharesTransferred == false);\t\t\r\n\t   contributorAddress = _address;\r\n   }\r\n\t\r\n\t\r\n\t\r\n   //----------------------------------------------------------------------------------------------\r\n   // Owner can set evaluator's address.   Only set evaluator can send notes or deliverables \r\n   //----------------------------------------------------------------------------------------------   \t\r\n\tfunction setEvaluatorAddress(address _address) onlyOwner public  {\r\n\t   require(_address != address(0));\r\n\t   \r\n\t   require(isEvaluatorSolutionAcceptedAndSharesTransferred == false);\t\t\r\n\t   evaluatorAddress = _address;\r\n\t}\r\n\r\n\t\r\n\t\r\n   //----------------------------------------\r\n   // Add notes to local notes collection \r\n   //----------------------------------------\r\n\ttaskNoteStruct newNotes;\r\n\tfunction addNotes (string _note, uint _sendBy) public\r\n\t{\t\t\r\n\t\tnewNotes = taskNoteStruct(_note, _sendBy);\r\n\t\ttaskNotes[numberOfTaskNotes] = newNotes;\r\n\t\tnumberOfTaskNotes = numberOfTaskNotes + 1;\r\n\t}\r\n\r\n\t\r\n\r\n   //----------------------------------------------------------------------------------------------   \t\r\n   // Contributor can send deliverables. only current contributor can call this function and \r\n   // owner can change contributor \r\n   //----------------------------------------------------------------------------------------------   \t\r\n\tfunction contributorDeliverablesAreReadyWithNotes(string _notes) onlyContributor public  {\r\n\t\trequire(bytes(_notes).length > 0);\r\n\t\t\r\n\t\tisContributorSolutionSubmitted = true;\r\n\t\taddNotes(_notes, 2);\r\n\t}\r\n\r\n\t\r\n\t\r\n\t\r\n   //----------------------------------------------------------------------------------------------   \t\r\n   // Evaluator can send deliverables. only current evaluator can call this function and \r\n   // owner can change evaluator \r\n   //----------------------------------------------------------------------------------------------   \t\r\n\tfunction evaluatorDeliverablesAreReadyWithNotes(string _notes) onlyEvaluator public  {\r\n\t\trequire(bytes(_notes).length > 0);\r\n\t\t\r\n\t\tisEvaluatorSolutionSubmitted = true;\r\n\t\taddNotes(_notes, 3);\t\r\n\t}\r\n\r\n\t\r\n\t\r\n\t\t\r\n   //------------------------------------------------  \r\n   // Owner, contributor or evaluator can send notes \r\n   //------------------------------------------------\r\n\tfunction setNotes(string _notes) onlyParticipent  public {\r\n\t\trequire(bytes(_notes).length > 0);\r\n\t\t\r\n\t\taddNotes(_notes, tempNoteSendBy);\r\n\t}\r\n\r\n\t\r\n\t\r\n\t\r\n   //-------------------------------------------------------  \r\n   // Owner can reject contributor deliverables with notes \r\n   //-------------------------------------------------------\t\r\n\tfunction rejectContibutorTaskSubmissionAndSetNotes(string _notes) onlyOwner public {\r\n\t\trequire(isContributorSolutionSubmitted == true);\r\n\t\trequire(bytes(_notes).length > 0);\r\n\t\t\r\n\t\tisContributorSolutionSubmitted = false;\r\n\t\taddNotes(_notes, 1);\t\r\n\t}\r\n\r\n\t\r\n\t\r\n\t\r\n   //-------------------------------------------------------  \r\n   // Owner can reject evaluator deliverables with notes \r\n   //-------------------------------------------------------\r\n\tfunction rejectEvaluatorTaskSubmissionAndSetNotes(string _notes) onlyOwner public {\r\n\t\trequire(isEvaluatorSolutionSubmitted == true);\r\n\t\trequire(bytes(_notes).length > 0);\r\n\t\t\r\n\t\tisEvaluatorSolutionSubmitted = false;\r\n\t\taddNotes(_notes, 1);\t\r\n\t}\r\n\r\n\t\r\n\t\r\n\t\r\n   //--------------------------------------------------------------------\r\n   // Owner can finalized the contributor's submissions. \r\n   // This will call the project contractt to transfer equity to contributor \r\n   //--------------------------------------------------------------------\r\n\tfunction markContributorTaskDoneAndTransferShare() onlyOwner public  {\r\n\t\trequire(isContributorSolutionSubmitted == true);\r\n\t\trequire(isContributorSolutionAcceptedAndSharesTransferred == false);\r\n\t\t\t\t\r\n\t    // call the project contract and transfer share/equity to contributor\r\n\t\tProjectEquity receiver = ProjectEquity(projectAddress);\r\n\t\trequire(receiver.transferFrom(owner, contributorAddress, contributorProjectShares));\t\t\r\n\t\t\r\n\t\t//Set variable that contributor submission is accepted and shares are transferred\r\n\t\tisContributorSolutionAcceptedAndSharesTransferred = true;\r\n\t\t\r\n\t\t//Generate event \r\n\t\temit ContributorTaskAccepted(owner, contributorAddress, contributorProjectShares);\r\n\t}\r\n\t\r\n\t\r\n\t\r\n\t\r\n   //--------------------------------------------------------------------\r\n   // Owner can finalized the evaluator's submissions. \r\n   // This will call the projectt to transfer equity to contributor \r\n   //--------------------------------------------------------------------\r\n\tfunction markEvaluatorTaskDoneAndTransferShare() onlyOwner public  {\r\n\t\trequire(isEvaluatorSolutionSubmitted = true);\r\n\t\trequire(isEvaluatorSolutionAcceptedAndSharesTransferred == false);\r\n\t\t\r\n\t\t// call the project contract and  transfer share/equity to evaluator \r\n\t\tProjectEquity receiver = ProjectEquity(projectAddress);\r\n\t\trequire(receiver.transferFrom(owner, evaluatorAddress, evaluatorProjectShares));\r\n\t\t\r\n\t\t//Set variable that evaluator submission is accepted and shares are transferred\r\n\t\tisEvaluatorSolutionAcceptedAndSharesTransferred = true;\r\n\t\t\r\n\t\t//Genetate event \r\n\t\temit EvaluatorTaskAccepted(owner, evaluatorAddress, evaluatorProjectShares);\r\n\t}\r\n\r\n\r\n\r\n}",
  "sourcePath": "F:\\Projects\\work\\VF\\blockchain\\contracts\\ProjectTask.sol",
  "compiler": {
    "name": "solc",
    "version": "0.4.24+commit.e67f0147.Emscripten.clang"
  },
  "schemaVersion": "2.0.1",
  "updatedAt": "2018-10-18T16:53:42.358Z"
}