{
  "contractName": "ProjectTask",
  "abi": [
    {
      "constant": true,
      "inputs": [
        {
          "name": "",
          "type": "uint256"
        }
      ],
      "name": "taskNotes",
      "outputs": [
        {
          "name": "notes",
          "type": "string"
        },
        {
          "name": "sendBy",
          "type": "uint256"
        }
      ],
      "payable": false,
      "stateMutability": "view",
      "type": "function"
    },
    {
      "constant": true,
      "inputs": [],
      "name": "contributorProjectShares",
      "outputs": [
        {
          "name": "",
          "type": "uint256"
        }
      ],
      "payable": false,
      "stateMutability": "view",
      "type": "function"
    },
    {
      "constant": true,
      "inputs": [],
      "name": "projectAddress",
      "outputs": [
        {
          "name": "",
          "type": "address"
        }
      ],
      "payable": false,
      "stateMutability": "view",
      "type": "function"
    },
    {
      "constant": true,
      "inputs": [],
      "name": "isContributorSolutionSubmitted",
      "outputs": [
        {
          "name": "",
          "type": "bool"
        }
      ],
      "payable": false,
      "stateMutability": "view",
      "type": "function"
    },
    {
      "constant": true,
      "inputs": [],
      "name": "isContributorSolutionAcceptedAndSharesTransferred",
      "outputs": [
        {
          "name": "",
          "type": "bool"
        }
      ],
      "payable": false,
      "stateMutability": "view",
      "type": "function"
    },
    {
      "constant": false,
      "inputs": [],
      "name": "renounceOwnership",
      "outputs": [],
      "payable": false,
      "stateMutability": "nonpayable",
      "type": "function"
    },
    {
      "constant": true,
      "inputs": [],
      "name": "evaluatorAddress",
      "outputs": [
        {
          "name": "",
          "type": "address"
        }
      ],
      "payable": false,
      "stateMutability": "view",
      "type": "function"
    },
    {
      "constant": true,
      "inputs": [],
      "name": "isEvaluatorSolutionAcceptedAndSharesTransferred",
      "outputs": [
        {
          "name": "",
          "type": "bool"
        }
      ],
      "payable": false,
      "stateMutability": "view",
      "type": "function"
    },
    {
      "constant": true,
      "inputs": [],
      "name": "owner",
      "outputs": [
        {
          "name": "",
          "type": "address"
        }
      ],
      "payable": false,
      "stateMutability": "view",
      "type": "function"
    },
    {
      "constant": true,
      "inputs": [],
      "name": "isEvaluatorSolutionSubmitted",
      "outputs": [
        {
          "name": "",
          "type": "bool"
        }
      ],
      "payable": false,
      "stateMutability": "view",
      "type": "function"
    },
    {
      "constant": true,
      "inputs": [],
      "name": "evaluatorProjectShares",
      "outputs": [
        {
          "name": "",
          "type": "uint256"
        }
      ],
      "payable": false,
      "stateMutability": "view",
      "type": "function"
    },
    {
      "constant": true,
      "inputs": [],
      "name": "contributorAddress",
      "outputs": [
        {
          "name": "",
          "type": "address"
        }
      ],
      "payable": false,
      "stateMutability": "view",
      "type": "function"
    },
    {
      "constant": true,
      "inputs": [],
      "name": "numberOfTaskNotes",
      "outputs": [
        {
          "name": "",
          "type": "uint256"
        }
      ],
      "payable": false,
      "stateMutability": "view",
      "type": "function"
    },
    {
      "constant": false,
      "inputs": [
        {
          "name": "_newOwner",
          "type": "address"
        }
      ],
      "name": "transferOwnership",
      "outputs": [],
      "payable": false,
      "stateMutability": "nonpayable",
      "type": "function"
    },
    {
      "constant": true,
      "inputs": [],
      "name": "taskTitle",
      "outputs": [
        {
          "name": "",
          "type": "string"
        }
      ],
      "payable": false,
      "stateMutability": "view",
      "type": "function"
    },
    {
      "inputs": [
        {
          "name": "_taskTitle",
          "type": "string"
        },
        {
          "name": "_contributorAddress",
          "type": "address"
        },
        {
          "name": "_contributorProjectShares",
          "type": "uint256"
        },
        {
          "name": "_evaluatorAddress",
          "type": "address"
        },
        {
          "name": "_evaluatorProjectShares",
          "type": "uint256"
        },
        {
          "name": "_projectAddress",
          "type": "address"
        }
      ],
      "payable": false,
      "stateMutability": "nonpayable",
      "type": "constructor"
    },
    {
      "anonymous": false,
      "inputs": [
        {
          "indexed": true,
          "name": "previousOwner",
          "type": "address"
        }
      ],
      "name": "OwnershipRenounced",
      "type": "event"
    },
    {
      "anonymous": false,
      "inputs": [
        {
          "indexed": true,
          "name": "previousOwner",
          "type": "address"
        },
        {
          "indexed": true,
          "name": "newOwner",
          "type": "address"
        }
      ],
      "name": "OwnershipTransferred",
      "type": "event"
    },
    {
      "constant": false,
      "inputs": [
        {
          "name": "_address",
          "type": "address"
        }
      ],
      "name": "setContributorAddress",
      "outputs": [],
      "payable": false,
      "stateMutability": "nonpayable",
      "type": "function"
    },
    {
      "constant": false,
      "inputs": [
        {
          "name": "_address",
          "type": "address"
        }
      ],
      "name": "setEvaluatorAddress",
      "outputs": [],
      "payable": false,
      "stateMutability": "nonpayable",
      "type": "function"
    },
    {
      "constant": false,
      "inputs": [
        {
          "name": "_note",
          "type": "string"
        },
        {
          "name": "_sendBy",
          "type": "uint256"
        }
      ],
      "name": "addNotes",
      "outputs": [],
      "payable": false,
      "stateMutability": "nonpayable",
      "type": "function"
    },
    {
      "constant": false,
      "inputs": [
        {
          "name": "_notes",
          "type": "string"
        }
      ],
      "name": "contributorDeliverablesAreReadyWithNotes",
      "outputs": [],
      "payable": false,
      "stateMutability": "nonpayable",
      "type": "function"
    },
    {
      "constant": false,
      "inputs": [
        {
          "name": "_notes",
          "type": "string"
        }
      ],
      "name": "evaluatorDeliverablesAreReadyWithNotes",
      "outputs": [],
      "payable": false,
      "stateMutability": "nonpayable",
      "type": "function"
    },
    {
      "constant": false,
      "inputs": [
        {
          "name": "_notes",
          "type": "string"
        }
      ],
      "name": "setNotes",
      "outputs": [],
      "payable": false,
      "stateMutability": "nonpayable",
      "type": "function"
    },
    {
      "constant": false,
      "inputs": [
        {
          "name": "_notes",
          "type": "string"
        }
      ],
      "name": "rejectContibutorTaskSubmissionAndSetNotes",
      "outputs": [],
      "payable": false,
      "stateMutability": "nonpayable",
      "type": "function"
    },
    {
      "constant": false,
      "inputs": [
        {
          "name": "_notes",
          "type": "string"
        }
      ],
      "name": "rejectEvaluatorTaskSubmissionAndSetNotes",
      "outputs": [],
      "payable": false,
      "stateMutability": "nonpayable",
      "type": "function"
    },
    {
      "constant": false,
      "inputs": [],
      "name": "markContributorTaskDoneAndTransferShare",
      "outputs": [],
      "payable": false,
      "stateMutability": "nonpayable",
      "type": "function"
    },
    {
      "constant": false,
      "inputs": [],
      "name": "markEvaluatorTaskDoneAndTransferShare",
      "outputs": [],
      "payable": false,
      "stateMutability": "nonpayable",
      "type": "function"
    }
  ],
  "bytecode": "0x60806040526000600560006101000a81548160ff0219169083151502179055506000600560016101000a81548160ff0219169083151502179055506000600760006101000a81548160ff0219169083151502179055506000600760016101000a81548160ff021916908315150217905550600060085560006009553480156200008757600080fd5b5060405162001bb638038062001bb6833981018060405281019080805182019291906020018051906020019092919080519060200190929190805190602001909291908051906020019092919080519060200190929190505050336000806101000a81548173ffffffffffffffffffffffffffffffffffffffff021916908373ffffffffffffffffffffffffffffffffffffffff16021790555085600190805190602001906200013992919062000217565b5084600360006101000a81548173ffffffffffffffffffffffffffffffffffffffff021916908373ffffffffffffffffffffffffffffffffffffffff160217905550836004819055508160068190555082600560026101000a81548173ffffffffffffffffffffffffffffffffffffffff021916908373ffffffffffffffffffffffffffffffffffffffff16021790555080600260006101000a81548173ffffffffffffffffffffffffffffffffffffffff021916908373ffffffffffffffffffffffffffffffffffffffff160217905550505050505050620002c6565b828054600181600116156101000203166002900490600052602060002090601f016020900481019282601f106200025a57805160ff19168380011785556200028b565b828001600101855582156200028b579182015b828111156200028a5782518255916020019190600101906200026d565b5b5090506200029a91906200029e565b5090565b620002c391905b80821115620002bf576000816000905550600101620002a5565b5090565b90565b6118e080620002d66000396000f300608060405260043610610149576000357c0100000000000000000000000000000000000000000000000000000000900463ffffffff1680632124e4cc1461014e5780633804f0c0146101fb5780633a77c91a146102265780633a8bae841461028f5780633cf96af1146102a65780634a990c8b146102fd578063537dbb451461032c5780635a319a3a1461039557806361513264146103fe578063688e043314610471578063715018a6146104a057806372e0576a146104b757806379bd45111461050e578063856ff264146105775780638b65e252146105a65780638da5cb5b146105bd5780638fc3ceb414610614578063a66ba55114610643578063b74c379b14610686578063c0bcec46146106c9578063cde5b4e1146106f4578063d1a1542c1461074b578063d546c33d14610776578063f2fde38b146107df578063f7222aad14610822575b600080fd5b34801561015a57600080fd5b50610179600480360381019080803590602001909291905050506108b2565b6040518080602001838152602001828103825284818151815260200191508051906020019080838360005b838110156101bf5780820151818401526020810190506101a4565b50505050905090810190601f1680156101ec5780820380516001836020036101000a031916815260200191505b50935050505060405180910390f35b34801561020757600080fd5b5061021061096e565b6040518082815260200191505060405180910390f35b34801561023257600080fd5b5061028d600480360381019080803590602001908201803590602001908080601f0160208091040260200160405190810160405280939291908181526020018383808284378201915050505050509192919290505050610974565b005b34801561029b57600080fd5b506102a4610bba565b005b3480156102b257600080fd5b506102bb610c79565b604051808273ffffffffffffffffffffffffffffffffffffffff1673ffffffffffffffffffffffffffffffffffffffff16815260200191505060405180910390f35b34801561030957600080fd5b50610312610c9f565b604051808215151515815260200191505060405180910390f35b34801561033857600080fd5b50610393600480360381019080803590602001908201803590602001908080601f0160208091040260200160405190810160405280939291908181526020018383808284378201915050505050509192919290505050610cb2565b005b3480156103a157600080fd5b506103fc600480360381019080803590602001908201803590602001908080601f0160208091040260200160405190810160405280939291908181526020018383808284378201915050505050509192919290505050610d47565b005b34801561040a57600080fd5b5061046f600480360381019080803590602001908201803590602001908080601f016020809104026020016040519081016040528093929190818152602001838380828437820191505050505050919291929080359060200190929190505050610dfd565b005b34801561047d57600080fd5b50610486610e9a565b604051808215151515815260200191505060405180910390f35b3480156104ac57600080fd5b506104b5610ead565b005b3480156104c357600080fd5b506104cc610faf565b604051808273ffffffffffffffffffffffffffffffffffffffff1673ffffffffffffffffffffffffffffffffffffffff16815260200191505060405180910390f35b34801561051a57600080fd5b50610575600480360381019080803590602001908201803590602001908080601f0160208091040260200160405190810160405280939291908181526020018383808284378201915050505050509192919290505050610fd5565b005b34801561058357600080fd5b5061058c61108b565b604051808215151515815260200191505060405180910390f35b3480156105b257600080fd5b506105bb61109e565b005b3480156105c957600080fd5b506105d2611308565b604051808273ffffffffffffffffffffffffffffffffffffffff1673ffffffffffffffffffffffffffffffffffffffff16815260200191505060405180910390f35b34801561062057600080fd5b5061062961132d565b604051808215151515815260200191505060405180910390f35b34801561064f57600080fd5b50610684600480360381019080803573ffffffffffffffffffffffffffffffffffffffff169060200190929190505050611340565b005b34801561069257600080fd5b506106c7600480360381019080803573ffffffffffffffffffffffffffffffffffffffff169060200190929190505050611401565b005b3480156106d557600080fd5b506106de6114c2565b6040518082815260200191505060405180910390f35b34801561070057600080fd5b506107096114c8565b604051808273ffffffffffffffffffffffffffffffffffffffff1673ffffffffffffffffffffffffffffffffffffffff16815260200191505060405180910390f35b34801561075757600080fd5b506107606114ee565b6040518082815260200191505060405180910390f35b34801561078257600080fd5b506107dd600480360381019080803590602001908201803590602001908080601f01602080910402602001604051908101604052809392919081815260200183838082843782019150505050505091929192905050506114f4565b005b3480156107eb57600080fd5b50610820600480360381019080803573ffffffffffffffffffffffffffffffffffffffff169060200190929190505050611589565b005b34801561082e57600080fd5b506108376115f0565b6040518080602001828103825283818151815260200191508051906020019080838360005b8381101561087757808201518184015260208101905061085c565b50505050905090810190601f1680156108a45780820380516001836020036101000a031916815260200191505b509250505060405180910390f35b600a602052806000526040600020600091509050806000018054600181600116156101000203166002900480601f01602080910402602001604051908101604052809291908181526020018280546001816001161561010002031660029004801561095e5780601f106109335761010080835404028352916020019161095e565b820191906000526020600020905b81548152906001019060200180831161094157829003601f168201915b5050505050908060010154905082565b60045481565b600360009054906101000a900473ffffffffffffffffffffffffffffffffffffffff1673ffffffffffffffffffffffffffffffffffffffff163373ffffffffffffffffffffffffffffffffffffffff161480610a1d5750600560029054906101000a900473ffffffffffffffffffffffffffffffffffffffff1673ffffffffffffffffffffffffffffffffffffffff163373ffffffffffffffffffffffffffffffffffffffff16145b80610a7457506000809054906101000a900473ffffffffffffffffffffffffffffffffffffffff1673ffffffffffffffffffffffffffffffffffffffff163373ffffffffffffffffffffffffffffffffffffffff16145b1515610a7f57600080fd5b6000809054906101000a900473ffffffffffffffffffffffffffffffffffffffff1673ffffffffffffffffffffffffffffffffffffffff163373ffffffffffffffffffffffffffffffffffffffff161415610add5760006008819055505b600360009054906101000a900473ffffffffffffffffffffffffffffffffffffffff1673ffffffffffffffffffffffffffffffffffffffff163373ffffffffffffffffffffffffffffffffffffffff161415610b3c5760016008819055505b600560029054906101000a900473ffffffffffffffffffffffffffffffffffffffff1673ffffffffffffffffffffffffffffffffffffffff163373ffffffffffffffffffffffffffffffffffffffff161415610b9b5760026008819055505b60008151111515610bab57600080fd5b610bb781600854610dfd565b50565b6000809054906101000a900473ffffffffffffffffffffffffffffffffffffffff1673ffffffffffffffffffffffffffffffffffffffff163373ffffffffffffffffffffffffffffffffffffffff16141515610c1557600080fd5b6001600760006101000a81548160ff02191690831515021790551515610c3a57600080fd5b60001515600760019054906101000a900460ff161515141515610c5c57600080fd5b6001600760016101000a81548160ff021916908315150217905550565b600260009054906101000a900473ffffffffffffffffffffffffffffffffffffffff1681565b600560009054906101000a900460ff1681565b600560029054906101000a900473ffffffffffffffffffffffffffffffffffffffff1673ffffffffffffffffffffffffffffffffffffffff163373ffffffffffffffffffffffffffffffffffffffff16141515610d0e57600080fd5b60008151111515610d1e57600080fd5b6001600760006101000a81548160ff021916908315150217905550610d44816003610dfd565b50565b6000809054906101000a900473ffffffffffffffffffffffffffffffffffffffff1673ffffffffffffffffffffffffffffffffffffffff163373ffffffffffffffffffffffffffffffffffffffff16141515610da257600080fd5b60011515600760009054906101000a900460ff161515141515610dc457600080fd5b60008151111515610dd457600080fd5b6000600760006101000a81548160ff021916908315150217905550610dfa816001610dfd565b50565b604080519081016040528083815260200182815250600b6000820151816000019080519060200190610e30929190611788565b5060208201518160010155905050600b600a6000600954815260200190815260200160002060008201816000019080546001816001161561010002031660029004610e7c929190611808565b50600182015481600101559050506001600954016009819055505050565b600560019054906101000a900460ff1681565b6000809054906101000a900473ffffffffffffffffffffffffffffffffffffffff1673ffffffffffffffffffffffffffffffffffffffff163373ffffffffffffffffffffffffffffffffffffffff16141515610f0857600080fd5b6000809054906101000a900473ffffffffffffffffffffffffffffffffffffffff1673ffffffffffffffffffffffffffffffffffffffff167ff8df31144d9c2f0f6b59d69b8b98abd5459d07f2742c4df920b25aae33c6482060405160405180910390a260008060006101000a81548173ffffffffffffffffffffffffffffffffffffffff021916908373ffffffffffffffffffffffffffffffffffffffff160217905550565b600560029054906101000a900473ffffffffffffffffffffffffffffffffffffffff1681565b6000809054906101000a900473ffffffffffffffffffffffffffffffffffffffff1673ffffffffffffffffffffffffffffffffffffffff163373ffffffffffffffffffffffffffffffffffffffff1614151561103057600080fd5b60011515600560009054906101000a900460ff16151514151561105257600080fd5b6000815111151561106257600080fd5b6000600560006101000a81548160ff021916908315150217905550611088816001610dfd565b50565b600760019054906101000a900460ff1681565b6000809054906101000a900473ffffffffffffffffffffffffffffffffffffffff1673ffffffffffffffffffffffffffffffffffffffff163373ffffffffffffffffffffffffffffffffffffffff161415156110f957600080fd5b60011515600560009054906101000a900460ff16151514151561111b57600080fd5b60001515600560019054906101000a900460ff16151514151561113d57600080fd5b600260009054906101000a900473ffffffffffffffffffffffffffffffffffffffff1673ffffffffffffffffffffffffffffffffffffffff1660405180807f73686172655472616e7366657246726f6d28616464726573732c20616464726581526020017f73732c2075696e74290000000000000000000000000000000000000000000000815250602901905060405180910390207c010000000000000000000000000000000000000000000000000000000090046000809054906101000a900473ffffffffffffffffffffffffffffffffffffffff16600360009054906101000a900473ffffffffffffffffffffffffffffffffffffffff166004546040518463ffffffff167c0100000000000000000000000000000000000000000000000000000000028152600401808473ffffffffffffffffffffffffffffffffffffffff1673ffffffffffffffffffffffffffffffffffffffff1681526020018373ffffffffffffffffffffffffffffffffffffffff1673ffffffffffffffffffffffffffffffffffffffff16815260200182815260200193505050506000604051808303816000875af192505050506001600560016101000a81548160ff021916908315150217905550565b6000809054906101000a900473ffffffffffffffffffffffffffffffffffffffff1681565b600760009054906101000a900460ff1681565b6000809054906101000a900473ffffffffffffffffffffffffffffffffffffffff1673ffffffffffffffffffffffffffffffffffffffff163373ffffffffffffffffffffffffffffffffffffffff1614151561139b57600080fd5b60001515600760019054906101000a900460ff1615151415156113bd57600080fd5b80600560026101000a81548173ffffffffffffffffffffffffffffffffffffffff021916908373ffffffffffffffffffffffffffffffffffffffff16021790555050565b6000809054906101000a900473ffffffffffffffffffffffffffffffffffffffff1673ffffffffffffffffffffffffffffffffffffffff163373ffffffffffffffffffffffffffffffffffffffff1614151561145c57600080fd5b60001515600560019054906101000a900460ff16151514151561147e57600080fd5b80600360006101000a81548173ffffffffffffffffffffffffffffffffffffffff021916908373ffffffffffffffffffffffffffffffffffffffff16021790555050565b60065481565b600360009054906101000a900473ffffffffffffffffffffffffffffffffffffffff1681565b60095481565b600360009054906101000a900473ffffffffffffffffffffffffffffffffffffffff1673ffffffffffffffffffffffffffffffffffffffff163373ffffffffffffffffffffffffffffffffffffffff1614151561155057600080fd5b6000815111151561156057600080fd5b6001600560006101000a81548160ff021916908315150217905550611586816002610dfd565b50565b6000809054906101000a900473ffffffffffffffffffffffffffffffffffffffff1673ffffffffffffffffffffffffffffffffffffffff163373ffffffffffffffffffffffffffffffffffffffff161415156115e457600080fd5b6115ed8161168e565b50565b60018054600181600116156101000203166002900480601f0160208091040260200160405190810160405280929190818152602001828054600181600116156101000203166002900480156116865780601f1061165b57610100808354040283529160200191611686565b820191906000526020600020905b81548152906001019060200180831161166957829003601f168201915b505050505081565b600073ffffffffffffffffffffffffffffffffffffffff168173ffffffffffffffffffffffffffffffffffffffff16141515156116ca57600080fd5b8073ffffffffffffffffffffffffffffffffffffffff166000809054906101000a900473ffffffffffffffffffffffffffffffffffffffff1673ffffffffffffffffffffffffffffffffffffffff167f8be0079c531659141344cd1fd0a4f28419497f9722a3daafe3b4186f6b6457e060405160405180910390a3806000806101000a81548173ffffffffffffffffffffffffffffffffffffffff021916908373ffffffffffffffffffffffffffffffffffffffff16021790555050565b828054600181600116156101000203166002900490600052602060002090601f016020900481019282601f106117c957805160ff19168380011785556117f7565b828001600101855582156117f7579182015b828111156117f65782518255916020019190600101906117db565b5b509050611804919061188f565b5090565b828054600181600116156101000203166002900490600052602060002090601f016020900481019282601f10611841578054855561187e565b8280016001018555821561187e57600052602060002091601f016020900482015b8281111561187d578254825591600101919060010190611862565b5b50905061188b919061188f565b5090565b6118b191905b808211156118ad576000816000905550600101611895565b5090565b905600a165627a7a72305820308bb546b751585aaa742ee2c39ddeb3c24871a86a0638f13b9c475526d0372f0029",
  "source": "pragma solidity ^0.4.24;\r\n\r\nimport './contracts/ownership/Ownable.sol';\r\nimport './ProjectEquity.sol';\r\n\r\ncontract ProjectTask is Ownable {\r\n\r\n   string public taskTitle;\r\n   address public projectAddress;\r\n\r\n   address public contributorAddress;\r\n   uint public contributorProjectShares;\r\n   bool public isContributorSolutionSubmitted = false;\r\n   bool public isContributorSolutionAcceptedAndSharesTransferred = false;\r\n\r\n   address public evaluatorAddress;\r\n   uint public evaluatorProjectShares;\r\n   bool public isEvaluatorSolutionSubmitted = false;\r\n   bool public isEvaluatorSolutionAcceptedAndSharesTransferred = false;\r\n\r\n   uint tempNoteSendBy = 0;\r\n   \r\n   uint public numberOfTaskNotes = 0;   //current number of notes\r\n   struct taskNoteStruct {             //project structure\r\n\t\tstring notes;\r\n\t\tuint sendBy;       // 1=Owner     2=Contributor     3=Evaluator\r\n   }\r\n   mapping (uint => taskNoteStruct) public taskNotes;     //mapping of task notes    \r\n\r\n   \r\n   \r\n   constructor(\r\n\t  string _taskTitle,\r\n\t  address _contributorAddress,\r\n\t  uint _contributorProjectShares,\r\n\t  address _evaluatorAddress,\r\n\t  uint _evaluatorProjectShares,\r\n\t  address _projectAddress\r\n   )\r\n   public {\r\n      taskTitle = _taskTitle;\r\n\t  contributorAddress = _contributorAddress;\r\n \t  contributorProjectShares = _contributorProjectShares;\r\n\t  evaluatorProjectShares = _evaluatorProjectShares;\r\n\t  evaluatorAddress = _evaluatorAddress;\r\n\t  projectAddress = _projectAddress;\r\n   }\r\n\r\n\r\n   \r\n  modifier onlyContributor() {\r\n    require(msg.sender == contributorAddress);\r\n    _;\r\n  }\r\n   \r\n   \r\n  modifier onlyEvaluator() {\r\n    require(msg.sender == evaluatorAddress);\r\n    _;\r\n  }\r\n  \r\n  \r\n  modifier onlyParticipent () {\r\n     require(msg.sender == contributorAddress || msg.sender == evaluatorAddress || msg.sender == owner);\r\n\t if(msg.sender == owner) \r\n\t    tempNoteSendBy = 0;\r\n\t if(msg.sender == contributorAddress) \r\n\t    tempNoteSendBy = 1;\r\n\t if(msg.sender == evaluatorAddress) \r\n\t    tempNoteSendBy = 2;\r\n\t _;\r\n  }\r\n   \r\n\r\n\r\n   \r\n\tfunction setContributorAddress(address _address) onlyOwner public {\r\n\t   require(isContributorSolutionAcceptedAndSharesTransferred == false);\t\t\r\n\t   contributorAddress = _address;\r\n\t}\r\n\t\r\n\tfunction setEvaluatorAddress(address _address) onlyOwner public  {\r\n\t   require(isEvaluatorSolutionAcceptedAndSharesTransferred == false);\t\t\r\n\t   evaluatorAddress = _address;\r\n\t}\r\n\r\n\t\r\n\ttaskNoteStruct newNotes;\r\n\tfunction addNotes (string _note, uint _sendBy) public\r\n\t{\r\n\t\tnewNotes = taskNoteStruct(_note, _sendBy);\r\n\t\ttaskNotes[numberOfTaskNotes] = newNotes;\r\n\t\tnumberOfTaskNotes = numberOfTaskNotes + 1;\r\n\t}\r\n\r\n\r\n\r\n\tfunction contributorDeliverablesAreReadyWithNotes(string _notes) onlyContributor public  {\r\n\t\trequire(bytes(_notes).length > 0);\r\n\t\tisContributorSolutionSubmitted = true;\r\n\t\taddNotes(_notes, 2);\r\n\t}\r\n\r\n\r\n\tfunction evaluatorDeliverablesAreReadyWithNotes(string _notes) onlyEvaluator public  {\r\n\t\trequire(bytes(_notes).length > 0);\r\n\t\tisEvaluatorSolutionSubmitted = true;\r\n\t\taddNotes(_notes, 3);\t\r\n\t}\r\n\r\n\r\n\tfunction setNotes(string _notes) onlyParticipent  public {\r\n\t\trequire(bytes(_notes).length > 0);\r\n\t\taddNotes(_notes, tempNoteSendBy);\r\n\t}\r\n\r\n\tfunction rejectContibutorTaskSubmissionAndSetNotes(string _notes) onlyOwner public {\r\n\t\trequire(isContributorSolutionSubmitted == true);\r\n\t\trequire(bytes(_notes).length > 0);\r\n\t\tisContributorSolutionSubmitted = false;\r\n\t\taddNotes(_notes, 1);\t\r\n\t}\r\n\r\n\tfunction rejectEvaluatorTaskSubmissionAndSetNotes(string _notes) onlyOwner public {\r\n\t\trequire(isEvaluatorSolutionSubmitted == true);\r\n\t\trequire(bytes(_notes).length > 0);\r\n\t\tisEvaluatorSolutionSubmitted = false;\r\n\t\taddNotes(_notes, 1);\t\r\n\t}\r\n\r\n\r\n\r\n\tfunction markContributorTaskDoneAndTransferShare() onlyOwner public  {\r\n\t\trequire(isContributorSolutionSubmitted == true);\r\n\t\trequire(isContributorSolutionAcceptedAndSharesTransferred == false);\r\n\t\t//transfer contributor tokens to him\r\n\t\tprojectAddress.call(bytes4(keccak256(\"shareTransferFrom(address, address, uint)\")), owner, contributorAddress, contributorProjectShares);\r\n\t\t\r\n\t\tisContributorSolutionAcceptedAndSharesTransferred = true;\r\n\t}\r\n\t\r\n\tfunction markEvaluatorTaskDoneAndTransferShare() onlyOwner public  {\r\n\t\trequire(isEvaluatorSolutionSubmitted = true);\r\n\t\trequire(isEvaluatorSolutionAcceptedAndSharesTransferred == false);\r\n\t\tisEvaluatorSolutionAcceptedAndSharesTransferred = true;\r\n\t}\r\n\r\n\r\n\t\r\n}",
  "sourcePath": "F:\\Projects\\work\\VF\\blockchain\\contracts\\ProjectTask.sol",
  "compiler": {
    "name": "solc",
    "version": "0.4.24+commit.e67f0147.Emscripten.clang"
  },
  "schemaVersion": "2.0.1",
  "updatedAt": "2018-10-13T05:46:11.719Z"
}