{
  "contractName": "ProjectTask",
  "abi": [
    {
      "constant": true,
      "inputs": [
        {
          "name": "",
          "type": "uint256"
        }
      ],
      "name": "taskNotes",
      "outputs": [
        {
          "name": "notes",
          "type": "string"
        },
        {
          "name": "sendBy",
          "type": "uint256"
        }
      ],
      "payable": false,
      "stateMutability": "view",
      "type": "function"
    },
    {
      "constant": true,
      "inputs": [],
      "name": "contributorProjectShares",
      "outputs": [
        {
          "name": "",
          "type": "uint256"
        }
      ],
      "payable": false,
      "stateMutability": "view",
      "type": "function"
    },
    {
      "constant": true,
      "inputs": [],
      "name": "projectAddress",
      "outputs": [
        {
          "name": "",
          "type": "address"
        }
      ],
      "payable": false,
      "stateMutability": "view",
      "type": "function"
    },
    {
      "constant": false,
      "inputs": [],
      "name": "renounceOwnership",
      "outputs": [],
      "payable": false,
      "stateMutability": "nonpayable",
      "type": "function"
    },
    {
      "constant": true,
      "inputs": [],
      "name": "evaluatorAddress",
      "outputs": [
        {
          "name": "",
          "type": "address"
        }
      ],
      "payable": false,
      "stateMutability": "view",
      "type": "function"
    },
    {
      "constant": true,
      "inputs": [],
      "name": "owner",
      "outputs": [
        {
          "name": "",
          "type": "address"
        }
      ],
      "payable": false,
      "stateMutability": "view",
      "type": "function"
    },
    {
      "constant": true,
      "inputs": [],
      "name": "evaluatorProjectShares",
      "outputs": [
        {
          "name": "",
          "type": "uint256"
        }
      ],
      "payable": false,
      "stateMutability": "view",
      "type": "function"
    },
    {
      "constant": true,
      "inputs": [],
      "name": "contributorAddress",
      "outputs": [
        {
          "name": "",
          "type": "address"
        }
      ],
      "payable": false,
      "stateMutability": "view",
      "type": "function"
    },
    {
      "constant": true,
      "inputs": [],
      "name": "numberOfTaskNotes",
      "outputs": [
        {
          "name": "",
          "type": "uint256"
        }
      ],
      "payable": false,
      "stateMutability": "view",
      "type": "function"
    },
    {
      "constant": false,
      "inputs": [
        {
          "name": "_newOwner",
          "type": "address"
        }
      ],
      "name": "transferOwnership",
      "outputs": [],
      "payable": false,
      "stateMutability": "nonpayable",
      "type": "function"
    },
    {
      "constant": true,
      "inputs": [],
      "name": "taskTitle",
      "outputs": [
        {
          "name": "",
          "type": "string"
        }
      ],
      "payable": false,
      "stateMutability": "view",
      "type": "function"
    },
    {
      "inputs": [
        {
          "name": "_taskTitle",
          "type": "string"
        },
        {
          "name": "_contributorAddress",
          "type": "address"
        },
        {
          "name": "_contributorProjectShares",
          "type": "uint256"
        },
        {
          "name": "_evaluatorAddress",
          "type": "address"
        },
        {
          "name": "_evaluatorProjectShares",
          "type": "uint256"
        },
        {
          "name": "_projectAddress",
          "type": "address"
        }
      ],
      "payable": false,
      "stateMutability": "nonpayable",
      "type": "constructor"
    },
    {
      "anonymous": false,
      "inputs": [
        {
          "indexed": true,
          "name": "previousOwner",
          "type": "address"
        }
      ],
      "name": "OwnershipRenounced",
      "type": "event"
    },
    {
      "anonymous": false,
      "inputs": [
        {
          "indexed": true,
          "name": "previousOwner",
          "type": "address"
        },
        {
          "indexed": true,
          "name": "newOwner",
          "type": "address"
        }
      ],
      "name": "OwnershipTransferred",
      "type": "event"
    },
    {
      "constant": false,
      "inputs": [
        {
          "name": "_address",
          "type": "address"
        }
      ],
      "name": "setContributorAddress",
      "outputs": [],
      "payable": false,
      "stateMutability": "nonpayable",
      "type": "function"
    },
    {
      "constant": false,
      "inputs": [
        {
          "name": "_address",
          "type": "address"
        }
      ],
      "name": "setEvaluatorAddress",
      "outputs": [],
      "payable": false,
      "stateMutability": "nonpayable",
      "type": "function"
    },
    {
      "constant": false,
      "inputs": [
        {
          "name": "_note",
          "type": "string"
        },
        {
          "name": "_sendBy",
          "type": "uint256"
        }
      ],
      "name": "addNotes",
      "outputs": [],
      "payable": false,
      "stateMutability": "nonpayable",
      "type": "function"
    },
    {
      "constant": false,
      "inputs": [
        {
          "name": "_notes",
          "type": "string"
        }
      ],
      "name": "contributorDeliverablesAreReadyWithNotes",
      "outputs": [],
      "payable": false,
      "stateMutability": "nonpayable",
      "type": "function"
    },
    {
      "constant": false,
      "inputs": [
        {
          "name": "_notes",
          "type": "string"
        }
      ],
      "name": "evaluatorDeliverablesAreReadyWithNotes",
      "outputs": [],
      "payable": false,
      "stateMutability": "nonpayable",
      "type": "function"
    },
    {
      "constant": false,
      "inputs": [
        {
          "name": "_notes",
          "type": "string"
        }
      ],
      "name": "setNotes",
      "outputs": [],
      "payable": false,
      "stateMutability": "nonpayable",
      "type": "function"
    },
    {
      "constant": false,
      "inputs": [
        {
          "name": "_notes",
          "type": "string"
        }
      ],
      "name": "rejectContibutorTaskSubmissionAndSetNotes",
      "outputs": [],
      "payable": false,
      "stateMutability": "nonpayable",
      "type": "function"
    },
    {
      "constant": false,
      "inputs": [
        {
          "name": "_notes",
          "type": "string"
        }
      ],
      "name": "rejectEvaluatorTaskSubmissionAndSetNotes",
      "outputs": [],
      "payable": false,
      "stateMutability": "nonpayable",
      "type": "function"
    },
    {
      "constant": false,
      "inputs": [],
      "name": "markContributorTaskDoneAndTransferShare",
      "outputs": [],
      "payable": false,
      "stateMutability": "nonpayable",
      "type": "function"
    },
    {
      "constant": false,
      "inputs": [],
      "name": "markEvaluatorTaskDoneAndTransferShare",
      "outputs": [],
      "payable": false,
      "stateMutability": "nonpayable",
      "type": "function"
    }
  ],
  "bytecode": "0x60806040526000600560006101000a81548160ff0219169083151502179055506000600560016101000a81548160ff0219169083151502179055506000600760006101000a81548160ff0219169083151502179055506000600760016101000a81548160ff021916908315150217905550600060085560006009553480156200008757600080fd5b506040516200189938038062001899833981018060405281019080805182019291906020018051906020019092919080519060200190929190805190602001909291908051906020019092919080519060200190929190505050336000806101000a81548173ffffffffffffffffffffffffffffffffffffffff021916908373ffffffffffffffffffffffffffffffffffffffff16021790555085600190805190602001906200013992919062000217565b5084600360006101000a81548173ffffffffffffffffffffffffffffffffffffffff021916908373ffffffffffffffffffffffffffffffffffffffff160217905550836004819055508160068190555082600560026101000a81548173ffffffffffffffffffffffffffffffffffffffff021916908373ffffffffffffffffffffffffffffffffffffffff16021790555080600260006101000a81548173ffffffffffffffffffffffffffffffffffffffff021916908373ffffffffffffffffffffffffffffffffffffffff160217905550505050505050620002c6565b828054600181600116156101000203166002900490600052602060002090601f016020900481019282601f106200025a57805160ff19168380011785556200028b565b828001600101855582156200028b579182015b828111156200028a5782518255916020019190600101906200026d565b5b5090506200029a91906200029e565b5090565b620002c391905b80821115620002bf576000816000905550600101620002a5565b5090565b90565b6115c380620002d66000396000f30060806040526004361061011d576000357c0100000000000000000000000000000000000000000000000000000000900463ffffffff1680632124e4cc146101225780633804f0c0146101cf5780633a77c91a146101fa5780633a8bae84146102635780633cf96af11461027a578063537dbb45146102d15780635a319a3a1461033a57806361513264146103a3578063715018a61461041657806372e0576a1461042d57806379bd4511146104845780638b65e252146104ed5780638da5cb5b14610504578063a66ba5511461055b578063b74c379b1461059e578063c0bcec46146105e1578063cde5b4e11461060c578063d1a1542c14610663578063d546c33d1461068e578063f2fde38b146106f7578063f7222aad1461073a575b600080fd5b34801561012e57600080fd5b5061014d600480360381019080803590602001909291905050506107ca565b6040518080602001838152602001828103825284818151815260200191508051906020019080838360005b83811015610193578082015181840152602081019050610178565b50505050905090810190601f1680156101c05780820380516001836020036101000a031916815260200191505b50935050505060405180910390f35b3480156101db57600080fd5b506101e4610886565b6040518082815260200191505060405180910390f35b34801561020657600080fd5b50610261600480360381019080803590602001908201803590602001908080601f016020809104026020016040519081016040528093929190818152602001838380828437820191505050505050919291929050505061088c565b005b34801561026f57600080fd5b50610278610ad2565b005b34801561028657600080fd5b5061028f610b6f565b604051808273ffffffffffffffffffffffffffffffffffffffff1673ffffffffffffffffffffffffffffffffffffffff16815260200191505060405180910390f35b3480156102dd57600080fd5b50610338600480360381019080803590602001908201803590602001908080601f0160208091040260200160405190810160405280939291908181526020018383808284378201915050505050509192919290505050610b95565b005b34801561034657600080fd5b506103a1600480360381019080803590602001908201803590602001908080601f0160208091040260200160405190810160405280939291908181526020018383808284378201915050505050509192919290505050610c2a565b005b3480156103af57600080fd5b50610414600480360381019080803590602001908201803590602001908080601f016020809104026020016040519081016040528093929190818152602001838380828437820191505050505050919291929080359060200190929190505050610ce3565b005b34801561042257600080fd5b5061042b610d80565b005b34801561043957600080fd5b50610442610e82565b604051808273ffffffffffffffffffffffffffffffffffffffff1673ffffffffffffffffffffffffffffffffffffffff16815260200191505060405180910390f35b34801561049057600080fd5b506104eb600480360381019080803590602001908201803590602001908080601f0160208091040260200160405190810160405280939291908181526020018383808284378201915050505050509192919290505050610ea8565b005b3480156104f957600080fd5b50610502610f61565b005b34801561051057600080fd5b50610519610ffe565b604051808273ffffffffffffffffffffffffffffffffffffffff1673ffffffffffffffffffffffffffffffffffffffff16815260200191505060405180910390f35b34801561056757600080fd5b5061059c600480360381019080803573ffffffffffffffffffffffffffffffffffffffff169060200190929190505050611023565b005b3480156105aa57600080fd5b506105df600480360381019080803573ffffffffffffffffffffffffffffffffffffffff1690602001909291905050506110e4565b005b3480156105ed57600080fd5b506105f66111a5565b6040518082815260200191505060405180910390f35b34801561061857600080fd5b506106216111ab565b604051808273ffffffffffffffffffffffffffffffffffffffff1673ffffffffffffffffffffffffffffffffffffffff16815260200191505060405180910390f35b34801561066f57600080fd5b506106786111d1565b6040518082815260200191505060405180910390f35b34801561069a57600080fd5b506106f5600480360381019080803590602001908201803590602001908080601f01602080910402602001604051908101604052809392919081815260200183838082843782019150505050505091929192905050506111d7565b005b34801561070357600080fd5b50610738600480360381019080803573ffffffffffffffffffffffffffffffffffffffff16906020019092919050505061126c565b005b34801561074657600080fd5b5061074f6112d3565b6040518080602001828103825283818151815260200191508051906020019080838360005b8381101561078f578082015181840152602081019050610774565b50505050905090810190601f1680156107bc5780820380516001836020036101000a031916815260200191505b509250505060405180910390f35b600a602052806000526040600020600091509050806000018054600181600116156101000203166002900480601f0160208091040260200160405190810160405280929190818152602001828054600181600116156101000203166002900480156108765780601f1061084b57610100808354040283529160200191610876565b820191906000526020600020905b81548152906001019060200180831161085957829003601f168201915b5050505050908060010154905082565b60045481565b600360009054906101000a900473ffffffffffffffffffffffffffffffffffffffff1673ffffffffffffffffffffffffffffffffffffffff163373ffffffffffffffffffffffffffffffffffffffff1614806109355750600560029054906101000a900473ffffffffffffffffffffffffffffffffffffffff1673ffffffffffffffffffffffffffffffffffffffff163373ffffffffffffffffffffffffffffffffffffffff16145b8061098c57506000809054906101000a900473ffffffffffffffffffffffffffffffffffffffff1673ffffffffffffffffffffffffffffffffffffffff163373ffffffffffffffffffffffffffffffffffffffff16145b151561099757600080fd5b6000809054906101000a900473ffffffffffffffffffffffffffffffffffffffff1673ffffffffffffffffffffffffffffffffffffffff163373ffffffffffffffffffffffffffffffffffffffff1614156109f55760006008819055505b600360009054906101000a900473ffffffffffffffffffffffffffffffffffffffff1673ffffffffffffffffffffffffffffffffffffffff163373ffffffffffffffffffffffffffffffffffffffff161415610a545760016008819055505b600560029054906101000a900473ffffffffffffffffffffffffffffffffffffffff1673ffffffffffffffffffffffffffffffffffffffff163373ffffffffffffffffffffffffffffffffffffffff161415610ab35760026008819055505b60008151111515610ac357600080fd5b610acf81600854610ce3565b50565b6000809054906101000a900473ffffffffffffffffffffffffffffffffffffffff1673ffffffffffffffffffffffffffffffffffffffff163373ffffffffffffffffffffffffffffffffffffffff16141515610b2d57600080fd5b6001600760006101000a81548160ff02191690831515021790551515610b5257600080fd5b6001600760016101000a81548160ff021916908315150217905550565b600260009054906101000a900473ffffffffffffffffffffffffffffffffffffffff1681565b600560029054906101000a900473ffffffffffffffffffffffffffffffffffffffff1673ffffffffffffffffffffffffffffffffffffffff163373ffffffffffffffffffffffffffffffffffffffff16141515610bf157600080fd5b60008151111515610c0157600080fd5b6001600760006101000a81548160ff021916908315150217905550610c27816003610ce3565b50565b6000809054906101000a900473ffffffffffffffffffffffffffffffffffffffff1673ffffffffffffffffffffffffffffffffffffffff163373ffffffffffffffffffffffffffffffffffffffff16141515610c8557600080fd5b6001600760006101000a81548160ff02191690831515021790551515610caa57600080fd5b60008151111515610cba57600080fd5b6000600760006101000a81548160ff021916908315150217905550610ce0816001610ce3565b50565b604080519081016040528083815260200182815250600b6000820151816000019080519060200190610d1692919061146b565b5060208201518160010155905050600b600a6000600954815260200190815260200160002060008201816000019080546001816001161561010002031660029004610d629291906114eb565b50600182015481600101559050506001600954016009819055505050565b6000809054906101000a900473ffffffffffffffffffffffffffffffffffffffff1673ffffffffffffffffffffffffffffffffffffffff163373ffffffffffffffffffffffffffffffffffffffff16141515610ddb57600080fd5b6000809054906101000a900473ffffffffffffffffffffffffffffffffffffffff1673ffffffffffffffffffffffffffffffffffffffff167ff8df31144d9c2f0f6b59d69b8b98abd5459d07f2742c4df920b25aae33c6482060405160405180910390a260008060006101000a81548173ffffffffffffffffffffffffffffffffffffffff021916908373ffffffffffffffffffffffffffffffffffffffff160217905550565b600560029054906101000a900473ffffffffffffffffffffffffffffffffffffffff1681565b6000809054906101000a900473ffffffffffffffffffffffffffffffffffffffff1673ffffffffffffffffffffffffffffffffffffffff163373ffffffffffffffffffffffffffffffffffffffff16141515610f0357600080fd5b6001600560006101000a81548160ff02191690831515021790551515610f2857600080fd5b60008151111515610f3857600080fd5b6000600560006101000a81548160ff021916908315150217905550610f5e816001610ce3565b50565b6000809054906101000a900473ffffffffffffffffffffffffffffffffffffffff1673ffffffffffffffffffffffffffffffffffffffff163373ffffffffffffffffffffffffffffffffffffffff16141515610fbc57600080fd5b6001600560006101000a81548160ff02191690831515021790551515610fe157600080fd5b6001600560016101000a81548160ff021916908315150217905550565b6000809054906101000a900473ffffffffffffffffffffffffffffffffffffffff1681565b6000809054906101000a900473ffffffffffffffffffffffffffffffffffffffff1673ffffffffffffffffffffffffffffffffffffffff163373ffffffffffffffffffffffffffffffffffffffff1614151561107e57600080fd5b60001515600760019054906101000a900460ff1615151415156110a057600080fd5b80600560026101000a81548173ffffffffffffffffffffffffffffffffffffffff021916908373ffffffffffffffffffffffffffffffffffffffff16021790555050565b6000809054906101000a900473ffffffffffffffffffffffffffffffffffffffff1673ffffffffffffffffffffffffffffffffffffffff163373ffffffffffffffffffffffffffffffffffffffff1614151561113f57600080fd5b60001515600560019054906101000a900460ff16151514151561116157600080fd5b80600360006101000a81548173ffffffffffffffffffffffffffffffffffffffff021916908373ffffffffffffffffffffffffffffffffffffffff16021790555050565b60065481565b600360009054906101000a900473ffffffffffffffffffffffffffffffffffffffff1681565b60095481565b600360009054906101000a900473ffffffffffffffffffffffffffffffffffffffff1673ffffffffffffffffffffffffffffffffffffffff163373ffffffffffffffffffffffffffffffffffffffff1614151561123357600080fd5b6000815111151561124357600080fd5b6001600560006101000a81548160ff021916908315150217905550611269816002610ce3565b50565b6000809054906101000a900473ffffffffffffffffffffffffffffffffffffffff1673ffffffffffffffffffffffffffffffffffffffff163373ffffffffffffffffffffffffffffffffffffffff161415156112c757600080fd5b6112d081611371565b50565b60018054600181600116156101000203166002900480601f0160208091040260200160405190810160405280929190818152602001828054600181600116156101000203166002900480156113695780601f1061133e57610100808354040283529160200191611369565b820191906000526020600020905b81548152906001019060200180831161134c57829003601f168201915b505050505081565b600073ffffffffffffffffffffffffffffffffffffffff168173ffffffffffffffffffffffffffffffffffffffff16141515156113ad57600080fd5b8073ffffffffffffffffffffffffffffffffffffffff166000809054906101000a900473ffffffffffffffffffffffffffffffffffffffff1673ffffffffffffffffffffffffffffffffffffffff167f8be0079c531659141344cd1fd0a4f28419497f9722a3daafe3b4186f6b6457e060405160405180910390a3806000806101000a81548173ffffffffffffffffffffffffffffffffffffffff021916908373ffffffffffffffffffffffffffffffffffffffff16021790555050565b828054600181600116156101000203166002900490600052602060002090601f016020900481019282601f106114ac57805160ff19168380011785556114da565b828001600101855582156114da579182015b828111156114d95782518255916020019190600101906114be565b5b5090506114e79190611572565b5090565b828054600181600116156101000203166002900490600052602060002090601f016020900481019282601f106115245780548555611561565b8280016001018555821561156157600052602060002091601f016020900482015b82811115611560578254825591600101919060010190611545565b5b50905061156e9190611572565b5090565b61159491905b80821115611590576000816000905550600101611578565b5090565b905600a165627a7a723058204a50812d27b2443cf7434ab28eca615cd9f9f32e6e20b8cabd40537fa4d4584a0029",
  "source": "pragma solidity ^0.4.24;\r\n\r\nimport './contracts/ownership/Ownable.sol';\r\n\r\n\r\ncontract ProjectTask is Ownable {\r\n\r\n   string public taskTitle;\r\n   address public projectAddress;\r\n\r\n   address public contributorAddress;\r\n   uint public contributorProjectShares;\r\n   bool isContributorSolutionSubmitted = false;\r\n   bool isContributorSolutionAcceptedAndSharesTransferred = false;\r\n\r\n   address public evaluatorAddress;\r\n   uint public evaluatorProjectShares;\r\n   bool isEvaluatorSolutionSubmitted = false;\r\n   bool isEvaluatorSolutionAcceptedAndSharesTransferred = false;\r\n\r\n   uint tempNoteSendBy = 0;\r\n   \r\n   uint public numberOfTaskNotes = 0;   //current number of notes\r\n   struct taskNoteStruct {             //project structure\r\n\t\tstring notes;\r\n\t\tuint sendBy;       // 1=Owner     2=Contributor     3=Evaluator\r\n   }\r\n   mapping (uint => taskNoteStruct) public taskNotes;     //mapping of task notes    \r\n\r\n   \r\n   \r\n   constructor(\r\n\t  string _taskTitle,\r\n\t  address _contributorAddress,\r\n\t  uint _contributorProjectShares,\r\n\t  address _evaluatorAddress,\r\n\t  uint _evaluatorProjectShares,\r\n\t  address _projectAddress\r\n   )\r\n   public {\r\n      taskTitle = _taskTitle;\r\n\t  contributorAddress = _contributorAddress;\r\n \t  contributorProjectShares = _contributorProjectShares;\r\n\t  evaluatorProjectShares = _evaluatorProjectShares;\r\n\t  evaluatorAddress = _evaluatorAddress;\r\n\t  projectAddress = _projectAddress;\r\n   }\r\n\r\n\r\n   \r\n  modifier onlyContributor() {\r\n    require(msg.sender == contributorAddress);\r\n    _;\r\n  }\r\n   \r\n   \r\n  modifier onlyEvaluator() {\r\n    require(msg.sender == evaluatorAddress);\r\n    _;\r\n  }\r\n  \r\n  \r\n  modifier onlyParticipent () {\r\n     require(msg.sender == contributorAddress || msg.sender == evaluatorAddress || msg.sender == owner);\r\n\t if(msg.sender == owner) \r\n\t    tempNoteSendBy = 0;\r\n\t if(msg.sender == contributorAddress) \r\n\t    tempNoteSendBy = 1;\r\n\t if(msg.sender == evaluatorAddress) \r\n\t    tempNoteSendBy = 2;\r\n\t _;\r\n  }\r\n   \r\n\r\n\r\n   \r\n\tfunction setContributorAddress(address _address) onlyOwner public {\r\n\t   require(isContributorSolutionAcceptedAndSharesTransferred == false);\t\t\r\n\t   contributorAddress = _address;\r\n\t}\r\n\t\r\n\tfunction setEvaluatorAddress(address _address) onlyOwner public  {\r\n\t   require(isEvaluatorSolutionAcceptedAndSharesTransferred == false);\t\t\r\n\t   evaluatorAddress = _address;\r\n\t}\r\n\r\n\t\r\n\ttaskNoteStruct newNotes;\r\n\tfunction addNotes (string _note, uint _sendBy) public\r\n\t{\r\n\t\tnewNotes = taskNoteStruct(_note, _sendBy);\r\n\t\ttaskNotes[numberOfTaskNotes] = newNotes;\r\n\t\tnumberOfTaskNotes = numberOfTaskNotes + 1;\r\n\t}\r\n\r\n\r\n\r\n\tfunction contributorDeliverablesAreReadyWithNotes(string _notes) onlyContributor public  {\r\n\t\trequire(bytes(_notes).length > 0);\r\n\t\tisContributorSolutionSubmitted = true;\r\n\t\taddNotes(_notes, 2);\r\n\t}\r\n\t\r\n\tfunction evaluatorDeliverablesAreReadyWithNotes(string _notes) onlyEvaluator public  {\r\n\t\trequire(bytes(_notes).length > 0);\r\n\t\tisEvaluatorSolutionSubmitted = true;\r\n\t\taddNotes(_notes, 3);\t\r\n\t}\r\n\r\n\r\n\tfunction setNotes(string _notes) onlyParticipent  public {\r\n\t\trequire(bytes(_notes).length > 0);\r\n\t\taddNotes(_notes, tempNoteSendBy);\r\n\t}\r\n\r\n\tfunction rejectContibutorTaskSubmissionAndSetNotes(string _notes) onlyOwner public {\r\n\t\trequire(isContributorSolutionSubmitted = true);\r\n\t\trequire(bytes(_notes).length > 0);\r\n\t\tisContributorSolutionSubmitted = false;\r\n\t\taddNotes(_notes, 1);\t\r\n\t}\r\n\r\n\tfunction rejectEvaluatorTaskSubmissionAndSetNotes(string _notes) onlyOwner public {\r\n\t\trequire(isEvaluatorSolutionSubmitted = true);\r\n\t\trequire(bytes(_notes).length > 0);\r\n\t\tisEvaluatorSolutionSubmitted = false;\r\n\t\taddNotes(_notes, 1);\t\r\n\t}\r\n\r\n\r\n\r\n\tfunction markContributorTaskDoneAndTransferShare() onlyOwner public  {\r\n\t\trequire(isContributorSolutionSubmitted = true);\r\n\t\tisContributorSolutionAcceptedAndSharesTransferred = true;\r\n\t}\r\n\t\r\n\tfunction markEvaluatorTaskDoneAndTransferShare() onlyOwner public  {\r\n\t\trequire(isEvaluatorSolutionSubmitted = true);\r\n\t\tisEvaluatorSolutionAcceptedAndSharesTransferred = true;\r\n\t}\r\n\r\n\r\n\t\r\n}",
  "sourcePath": "F:\\Projects\\work\\VF\\blockchain\\contracts\\ProjectTask.sol",
  "compiler": {
    "name": "solc",
    "version": "0.4.24+commit.e67f0147.Emscripten.clang"
  },
  "schemaVersion": "2.0.1",
  "updatedAt": "2018-10-11T17:35:32.089Z"
}