{
  "contractName": "SimpleBank",
  "abi": [
    {
      "constant": true,
      "inputs": [],
      "name": "owner",
      "outputs": [
        {
          "name": "",
          "type": "address"
        }
      ],
      "payable": false,
      "stateMutability": "view",
      "type": "function"
    },
    {
      "inputs": [],
      "payable": true,
      "stateMutability": "payable",
      "type": "constructor"
    },
    {
      "anonymous": false,
      "inputs": [
        {
          "indexed": true,
          "name": "accountAddress",
          "type": "address"
        },
        {
          "indexed": false,
          "name": "amount",
          "type": "uint256"
        }
      ],
      "name": "LogDepositMade",
      "type": "event"
    },
    {
      "constant": false,
      "inputs": [],
      "name": "enroll",
      "outputs": [
        {
          "name": "",
          "type": "uint256"
        }
      ],
      "payable": false,
      "stateMutability": "nonpayable",
      "type": "function"
    },
    {
      "constant": false,
      "inputs": [],
      "name": "deposit",
      "outputs": [
        {
          "name": "",
          "type": "uint256"
        }
      ],
      "payable": true,
      "stateMutability": "payable",
      "type": "function"
    },
    {
      "constant": false,
      "inputs": [
        {
          "name": "withdrawAmount",
          "type": "uint256"
        }
      ],
      "name": "withdraw",
      "outputs": [
        {
          "name": "remainingBal",
          "type": "uint256"
        }
      ],
      "payable": false,
      "stateMutability": "nonpayable",
      "type": "function"
    },
    {
      "constant": true,
      "inputs": [],
      "name": "balance",
      "outputs": [
        {
          "name": "",
          "type": "uint256"
        }
      ],
      "payable": false,
      "stateMutability": "view",
      "type": "function"
    },
    {
      "constant": true,
      "inputs": [],
      "name": "depositsBalance",
      "outputs": [
        {
          "name": "",
          "type": "uint256"
        }
      ],
      "payable": false,
      "stateMutability": "view",
      "type": "function"
    }
  ],
  "bytecode": "0x60806040526801a055690d9db80000341415156100aa576040517f08c379a00000000000000000000000000000000000000000000000000000000081526004018080602001828103825260218152602001807f333020657468657220696e697469616c2066756e64696e67207265717569726581526020017f640000000000000000000000000000000000000000000000000000000000000081525060400191505060405180910390fd5b33600260006101000a81548173ffffffffffffffffffffffffffffffffffffffff021916908373ffffffffffffffffffffffffffffffffffffffff16021790555060008060006101000a81548160ff021916908360ff160217905550610553806101156000396000f300608060405260043610610078576000357c0100000000000000000000000000000000000000000000000000000000900463ffffffff168063138fbe711461007d5780632e1a7d4d146100a85780638da5cb5b146100e9578063b69ef8a814610140578063d0e30db01461016b578063e65f2a7e14610189575b600080fd5b34801561008957600080fd5b506100926101b4565b6040518082815260200191505060405180910390f35b3480156100b457600080fd5b506100d3600480360381019080803590602001909291905050506101d3565b6040518082815260200191505060405180910390f35b3480156100f557600080fd5b506100fe6102f9565b604051808273ffffffffffffffffffffffffffffffffffffffff1673ffffffffffffffffffffffffffffffffffffffff16815260200191505060405180910390f35b34801561014c57600080fd5b5061015561031f565b6040518082815260200191505060405180910390f35b610173610366565b6040518082815260200191505060405180910390f35b34801561019557600080fd5b5061019e610448565b6040518082815260200191505060405180910390f35b60003073ffffffffffffffffffffffffffffffffffffffff1631905090565b6000600160003373ffffffffffffffffffffffffffffffffffffffff1673ffffffffffffffffffffffffffffffffffffffff16815260200190815260200160002054821115156102b25781600160003373ffffffffffffffffffffffffffffffffffffffff1673ffffffffffffffffffffffffffffffffffffffff168152602001908152602001600020600082825403925050819055503373ffffffffffffffffffffffffffffffffffffffff166108fc839081150290604051600060405180830381858888f193505050501580156102b0573d6000803e3d6000fd5b505b600160003373ffffffffffffffffffffffffffffffffffffffff1673ffffffffffffffffffffffffffffffffffffffff168152602001908152602001600020549050919050565b600260009054906101000a900473ffffffffffffffffffffffffffffffffffffffff1681565b6000600160003373ffffffffffffffffffffffffffffffffffffffff1673ffffffffffffffffffffffffffffffffffffffff16815260200190815260200160002054905090565b600034600160003373ffffffffffffffffffffffffffffffffffffffff1673ffffffffffffffffffffffffffffffffffffffff168152602001908152602001600020600082825401925050819055503373ffffffffffffffffffffffffffffffffffffffff167fa8126f7572bb1fdeae5b5aa9ec126438b91f658a07873f009d041ae690f3a193346040518082815260200191505060405180910390a2600160003373ffffffffffffffffffffffffffffffffffffffff1673ffffffffffffffffffffffffffffffffffffffff16815260200190815260200160002054905090565b600060036000809054906101000a900460ff1660ff1610156104e25760008081819054906101000a900460ff168092919060010191906101000a81548160ff021916908360ff16021790555050678ac7230489e80000600160003373ffffffffffffffffffffffffffffffffffffffff1673ffffffffffffffffffffffffffffffffffffffff168152602001908152602001600020819055505b600160003373ffffffffffffffffffffffffffffffffffffffff1673ffffffffffffffffffffffffffffffffffffffff168152602001908152602001600020549050905600a165627a7a72305820155a80b4b4571c9f0d8b849842aa97dde9239453f4b84d8794fa812362f964160029",
  "source": "pragma solidity ^0.4.24;\r\n\r\ncontract SimpleBank {\r\n    uint8 private clientCount;\r\n    mapping (address => uint) private balances;\r\n    address public owner;\r\n\r\n  // Log the event about a deposit being made by an address and its amount\r\n    event LogDepositMade(address indexed accountAddress, uint amount);\r\n\r\n    // Constructor is \"payable\" so it can receive the initial funding of 30, \r\n    // required to reward the first 3 clients\r\n    constructor() public payable {\r\n        require(msg.value == 30 ether, \"30 ether initial funding required\");\r\n        /* Set the owner to the creator of this contract */\r\n        owner = msg.sender;\r\n        clientCount = 0;\r\n    }\r\n\r\n    /// @notice Enroll a customer with the bank, \r\n    /// giving the first 3 of them 10 ether as reward\r\n    /// @return The balance of the user after enrolling\r\n    function enroll() public returns (uint) {\r\n        if (clientCount < 3) {\r\n            clientCount++;\r\n            balances[msg.sender] = 10 ether;\r\n        }\r\n        return balances[msg.sender];\r\n    }\r\n\r\n    /// @notice Deposit ether into bank, requires method is \"payable\"\r\n    /// @return The balance of the user after the deposit is made\r\n    function deposit() public payable returns (uint) {\r\n        balances[msg.sender] += msg.value;\r\n        emit LogDepositMade(msg.sender, msg.value);\r\n        return balances[msg.sender];\r\n    }\r\n\r\n    /// @notice Withdraw ether from bank\r\n    /// @return The balance remaining for the user\r\n    function withdraw(uint withdrawAmount) public returns (uint remainingBal) {\r\n        // Check enough balance available, otherwise just return balance\r\n        if (withdrawAmount <= balances[msg.sender]) {\r\n            balances[msg.sender] -= withdrawAmount;\r\n            msg.sender.transfer(withdrawAmount);\r\n        }\r\n        return balances[msg.sender];\r\n    }\r\n\r\n    /// @notice Just reads balance of the account requesting, so \"constant\"\r\n    /// @return The balance of the user\r\n    function balance() public constant returns (uint) {\r\n        return balances[msg.sender];\r\n    }\r\n\r\n    /// @return The balance of the Simple Bank contract\r\n    function depositsBalance() public constant returns (uint) {\r\n        return address(this).balance;\r\n    }\r\n}",
  "sourcePath": "F:\\Projects\\work\\VF\\blockchain\\contracts\\SimpleBank.sol",
  "compiler": {
    "name": "solc",
    "version": "0.4.24+commit.e67f0147.Emscripten.clang"
  },
  "schemaVersion": "2.0.1",
  "updatedAt": "2018-10-07T14:07:01.170Z"
}