{
  "contractName": "VentureFusion_VET",
  "abi": [
    {
      "inputs": [],
      "payable": false,
      "stateMutability": "nonpayable",
      "type": "constructor"
    },
    {
      "constant": false,
      "inputs": [
        {
          "name": "_vetTokenAmount",
          "type": "uint256"
        }
      ],
      "name": "stackVETTokens",
      "outputs": [],
      "payable": true,
      "stateMutability": "payable",
      "type": "function"
    },
    {
      "constant": false,
      "inputs": [
        {
          "name": "_vetTokenAmount",
          "type": "uint256"
        }
      ],
      "name": "unStackVETTokens",
      "outputs": [],
      "payable": true,
      "stateMutability": "payable",
      "type": "function"
    }
  ],
  "bytecode": "0x608060405234801561001057600080fd5b5060bc8061001f6000396000f3006080604052600436106049576000357c0100000000000000000000000000000000000000000000000000000000900463ffffffff168063918db79e14604e578063c725a37a14606c575b600080fd5b606a60048036038101908080359060200190929190505050608a565b005b608860048036038101908080359060200190929190505050608d565b005b50565b505600a165627a7a7230582088162a0316f4ceb353550db6d6f53dbe4ed26677ffbd1940a91fff3bfe4e7b570029",
  "source": "pragma solidity ^0.4.24;\r\n\r\ncontract VentureFusion_VET {\r\n\r\n\tconstructor() public {\r\n\t\t\r\n\t}\r\n\r\n\r\n\r\n\t//TODO    override token transfers so before token trnasfers check stacked tokens\r\n\r\n\t  \r\n\r\n\r\n\t// -----------------------------------------\r\n\t// VET Token Stacking / UnStacking\r\n\t// Called by owner of the tokens to stack some amount VET token against a specific skill set. Stack tokens \r\n\t// will be locked and will not be used for any transactions. \r\n\t//\r\n\t// Stocked tokens will also be tracked within this contract. It will track how many token are stacked against a \r\n\t//specific project or how many tokens are stacked against a specific skill \r\n\t// -----------------------------------------\r\n\tfunction stackVETTokens(uint256 _vetTokenAmount) public payable {\r\n\r\n\t}  \r\n\t  \r\n\t  \r\n\tfunction unStackVETTokens(uint256 _vetTokenAmount) public payable {\r\n\r\n\t}\r\n\r\n\r\n\r\n}",
  "sourcePath": "F:\\Projects\\work\\VF\\blockchain\\contracts\\VentureFusion_VET.sol",
  "compiler": {
    "name": "solc",
    "version": "0.4.24+commit.e67f0147.Emscripten.clang"
  },
  "schemaVersion": "2.0.1",
  "updatedAt": "2018-10-02T13:27:06.982Z"
}